{"contracts/MockUSDC.sol":{"MockUSDC":{"abi":[{"inputs":[],"stateMutability":"nonpayable","type":"constructor"},{"inputs":[],"name":"ECDSAInvalidSignature","type":"error"},{"inputs":[{"internalType":"uint256","name":"length","type":"uint256"}],"name":"ECDSAInvalidSignatureLength","type":"error"},{"inputs":[{"internalType":"bytes32","name":"s","type":"bytes32"}],"name":"ECDSAInvalidSignatureS","type":"error"},{"inputs":[{"internalType":"address","name":"spender","type":"address"},{"internalType":"uint256","name":"allowance","type":"uint256"},{"internalType":"uint256","name":"needed","type":"uint256"}],"name":"ERC20InsufficientAllowance","type":"error"},{"inputs":[{"internalType":"address","name":"sender","type":"address"},{"internalType":"uint256","name":"balance","type":"uint256"},{"internalType":"uint256","name":"needed","type":"uint256"}],"name":"ERC20InsufficientBalance","type":"error"},{"inputs":[{"internalType":"address","name":"approver","type":"address"}],"name":"ERC20InvalidApprover","type":"error"},{"inputs":[{"internalType":"address","name":"receiver","type":"address"}],"name":"ERC20InvalidReceiver","type":"error"},{"inputs":[{"internalType":"address","name":"sender","type":"address"}],"name":"ERC20InvalidSender","type":"error"},{"inputs":[{"internalType":"address","name":"spender","type":"address"}],"name":"ERC20InvalidSpender","type":"error"},{"inputs":[],"name":"InvalidShortString","type":"error"},{"inputs":[{"internalType":"string","name":"str","type":"string"}],"name":"StringTooLong","type":"error"},{"anonymous":false,"inputs":[{"indexed":true,"internalType":"address","name":"owner","type":"address"},{"indexed":true,"internalType":"address","name":"spender","type":"address"},{"indexed":false,"internalType":"uint256","name":"value","type":"uint256"}],"name":"Approval","type":"event"},{"anonymous":false,"inputs":[{"indexed":true,"internalType":"address","name":"authorizer","type":"address"},{"indexed":true,"internalType":"bytes32","name":"nonce","type":"bytes32"}],"name":"AuthorizationUsed","type":"event"},{"anonymous":false,"inputs":[],"name":"EIP712DomainChanged","type":"event"},{"anonymous":false,"inputs":[{"indexed":true,"internalType":"address","name":"from","type":"address"},{"indexed":true,"internalType":"address","name":"to","type":"address"},{"indexed":false,"internalType":"uint256","name":"value","type":"uint256"}],"name":"Transfer","type":"event"},{"inputs":[],"name":"RECEIVE_WITH_AUTHORIZATION_TYPEHASH","outputs":[{"internalType":"bytes32","name":"","type":"bytes32"}],"stateMutability":"view","type":"function"},{"inputs":[{"internalType":"address","name":"owner","type":"address"},{"internalType":"address","name":"spender","type":"address"}],"name":"allowance","outputs":[{"internalType":"uint256","name":"","type":"uint256"}],"stateMutability":"view","type":"function"},{"inputs":[{"internalType":"address","name":"spender","type":"address"},{"internalType":"uint256","name":"value","type":"uint256"}],"name":"approve","outputs":[{"internalType":"bool","name":"","type":"bool"}],"stateMutability":"nonpayable","type":"function"},{"inputs":[{"internalType":"address","name":"authorizer","type":"address"},{"internalType":"bytes32","name":"nonce","type":"bytes32"}],"name":"authorizationState","outputs":[{"internalType":"bool","name":"","type":"bool"}],"stateMutability":"view","type":"function"},{"inputs":[{"internalType":"address","name":"account","type":"address"}],"name":"balanceOf","outputs":[{"internalType":"uint256","name":"","type":"uint256"}],"stateMutability":"view","type":"function"},{"inputs":[],"name":"decimals","outputs":[{"internalType":"uint8","name":"","type":"uint8"}],"stateMutability":"view","type":"function"},{"inputs":[],"name":"eip712Domain","outputs":[{"internalType":"bytes1","name":"fields","type":"bytes1"},{"internalType":"string","name":"name","type":"string"},{"internalType":"string","name":"version","type":"string"},{"internalType":"uint256","name":"chainId","type":"uint256"},{"internalType":"address","name":"verifyingContract","type":"address"},{"internalType":"bytes32","name":"salt","type":"bytes32"},{"internalType":"uint256[]","name":"extensions","type":"uint256[]"}],"stateMutability":"view","type":"function"},{"inputs":[{"internalType":"address","name":"to","type":"address"},{"internalType":"uint256","name":"amount","type":"uint256"}],"name":"mint","outputs":[],"stateMutability":"nonpayable","type":"function"},{"inputs":[],"name":"name","outputs":[{"internalType":"string","name":"","type":"string"}],"stateMutability":"view","type":"function"},{"inputs":[{"internalType":"address","name":"from","type":"address"},{"internalType":"address","name":"to","type":"address"},{"internalType":"uint256","name":"value","type":"uint256"},{"internalType":"uint256","name":"validAfter","type":"uint256"},{"internalType":"uint256","name":"validBefore","type":"uint256"},{"internalType":"bytes32","name":"nonce","type":"bytes32"},{"internalType":"uint8","name":"v","type":"uint8"},{"internalType":"bytes32","name":"r","type":"bytes32"},{"internalType":"bytes32","name":"s","type":"bytes32"}],"name":"receiveWithAuthorization","outputs":[],"stateMutability":"nonpayable","type":"function"},{"inputs":[],"name":"symbol","outputs":[{"internalType":"string","name":"","type":"string"}],"stateMutability":"view","type":"function"},{"inputs":[],"name":"totalSupply","outputs":[{"internalType":"uint256","name":"","type":"uint256"}],"stateMutability":"view","type":"function"},{"inputs":[{"internalType":"address","name":"to","type":"address"},{"internalType":"uint256","name":"value","type":"uint256"}],"name":"transfer","outputs":[{"internalType":"bool","name":"","type":"bool"}],"stateMutability":"nonpayable","type":"function"},{"inputs":[{"internalType":"address","name":"from","type":"address"},{"internalType":"address","name":"to","type":"address"},{"internalType":"uint256","name":"value","type":"uint256"}],"name":"transferFrom","outputs":[{"internalType":"bool","name":"","type":"bool"}],"stateMutability":"nonpayable","type":"function"}],"evm":{"bytecode":{"linkReferences":{},"object":"6101606040523480156200001257600080fd5b50604080518082018252600d8082526c26b7b1b5902aa9a21021b7b4b760991b60208084018290528451808601865260018152603160f81b818301528551808701875293845283820192909252845180860190955260058552646d5553444360d81b908501529192600362000088838262000415565b50600462000097828262000415565b50620000a9915083905060056200017f565b61012052620000ba8160066200017f565b61014052815160208084019190912060e052815190820120610100524660a0526200014860e05161010051604080517f8b73c3c69bb8fe3d512ecc4cf759cc79239f7b179b0ffacaa9a75d522b39400f60208201529081019290925260608201524660808201523060a082015260009060c00160405160208183030381529060405280519060200120905090565b60805250503060c0526200017933620001646012600a620005f4565b6200017390620f42406200060c565b620001b8565b620006b1565b60006020835110156200019f576200019783620001fa565b9050620001b2565b81620001ac848262000415565b5060ff90505b92915050565b6001600160a01b038216620001e85760405163ec442f0560e01b8152600060048201526024015b60405180910390fd5b620001f6600083836200023d565b5050565b600080829050601f8151111562000228578260405163305a27a960e01b8152600401620001df919062000626565b8051620002358262000676565b179392505050565b6001600160a01b0383166200026c5780600260008282546200026091906200069b565b90915550620002e09050565b6001600160a01b03831660009081526020819052604090205481811015620002c15760405163391434e360e21b81526001600160a01b03851660048201526024810182905260448101839052606401620001df565b6001600160a01b03841660009081526020819052604090209082900390555b6001600160a01b038216620002fe576002805482900390556200031d565b6001600160a01b03821660009081526020819052604090208054820190555b816001600160a01b0316836001600160a01b03167fddf252ad1be2c89b69c2b068fc378daa952ba7f163c4a11628f55a4df523b3ef836040516200036391815260200190565b60405180910390a3505050565b634e487b7160e01b600052604160045260246000fd5b600181811c908216806200039b57607f821691505b602082108103620003bc57634e487b7160e01b600052602260045260246000fd5b50919050565b601f8211156200041057600081815260208120601f850160051c81016020861015620003eb5750805b601f850160051c820191505b818110156200040c57828155600101620003f7565b5050505b505050565b81516001600160401b0381111562000431576200043162000370565b620004498162000442845462000386565b84620003c2565b602080601f831160018114620004815760008415620004685750858301515b600019600386901b1c1916600185901b1785556200040c565b600085815260208120601f198616915b82811015620004b25788860151825594840194600190910190840162000491565b5085821015620004d15787850151600019600388901b60f8161c191681555b5050505050600190811b01905550565b634e487b7160e01b600052601160045260246000fd5b600181815b80851115620005385781600019048211156200051c576200051c620004e1565b808516156200052a57918102915b93841c9390800290620004fc565b509250929050565b6000826200055157506001620001b2565b816200056057506000620001b2565b81600181146200057957600281146200058457620005a4565b6001915050620001b2565b60ff841115620005985762000598620004e1565b50506001821b620001b2565b5060208310610133831016604e8410600b8410161715620005c9575081810a620001b2565b620005d58383620004f7565b8060001904821115620005ec57620005ec620004e1565b029392505050565b60006200060560ff84168362000540565b9392505050565b8082028115828204841417620001b257620001b2620004e1565b600060208083528351808285015260005b81811015620006555785810183015185820160400152820162000637565b506000604082860101526040601f19601f8301168501019250505092915050565b80516020808301519190811015620003bc5760001960209190910360031b1b16919050565b80820180821115620001b257620001b2620004e1565b60805160a05160c05160e05161010051610120516101405161110b6200070c60003960006107d10152600061079f01526000610bd601526000610bae01526000610b0901526000610b3301526000610b5d015261110b6000f3fe608060405234801561001057600080fd5b50600436106100ea5760003560e01c80637f2eecc31161008c578063a9059cbb11610066578063a9059cbb146101ec578063dd62ed3e146101ff578063e94a010214610238578063ef55bec61461027157600080fd5b80637f2eecc3146101a257806384b0196e146101c957806395d89b41146101e457600080fd5b806323b872dd116100c857806323b872dd14610142578063313ce5671461015557806340c10f191461016457806370a082311461017957600080fd5b806306fdde03146100ef578063095ea7b31461010d57806318160ddd14610130575b600080fd5b6100f7610284565b6040516101049190610e5c565b60405180910390f35b61012061011b366004610e92565b610316565b6040519015158152602001610104565b6002545b604051908152602001610104565b610120610150366004610ebc565b610330565b60405160128152602001610104565b610177610172366004610e92565b610354565b005b610134610187366004610ef8565b6001600160a01b031660009081526020819052604090205490565b6101347fd099cc98ef71107a616c4f0f941f04c322d8e254fe26b3c6668db87aae413de881565b6101d1610362565b6040516101049796959493929190610f13565b6100f76103a8565b6101206101fa366004610e92565b6103b7565b61013461020d366004610fa9565b6001600160a01b03918216600090815260016020908152604080832093909416825291909152205490565b610120610246366004610e92565b6001600160a01b03919091166000908152600760209081526040808320938352929052205460ff1690565b61017761027f366004610fdc565b6103c5565b60606003805461029390611064565b80601f01602080910402602001604051908101604052809291908181526020018280546102bf90611064565b801561030c5780601f106102e15761010080835404028352916020019161030c565b820191906000526020600020905b8154815290600101906020018083116102ef57829003601f168201915b5050505050905090565b600033610324818585610672565b60019150505b92915050565b60003361033e858285610684565b610349858585610703565b506001949350505050565b61035e8282610762565b5050565b600060608060008060006060610376610798565b61037e6107ca565b60408051600080825260208201909252600f60f81b9b939a50919850469750309650945092509050565b60606004805461029390611064565b600033610324818585610703565b85421161042a5760405162461bcd60e51b815260206004820152602860248201527f4d6f636b555344433a20617574686f72697a6174696f6e206973206e6f742079604482015267195d081d985b1a5960c21b60648201526084015b60405180910390fd5b8442106104845760405162461bcd60e51b815260206004820152602260248201527f4d6f636b555344433a20617574686f72697a6174696f6e206973206578706972604482015261195960f21b6064820152608401610421565b6001600160a01b038916600090815260076020908152604080832087845290915290205460ff16156104f85760405162461bcd60e51b815260206004820152601f60248201527f4d6f636b555344433a20617574686f72697a6174696f6e2069732075736564006044820152606401610421565b604080517fd099cc98ef71107a616c4f0f941f04c322d8e254fe26b3c6668db87aae413de86020808301919091526001600160a01b038c8116838501528b166060830152608082018a905260a0820189905260c0820188905260e0808301889052835180840390910181526101009092019092528051910120600061057c826107f7565b9050600061058c82878787610824565b90506001600160a01b038116158015906105b757508b6001600160a01b0316816001600160a01b0316145b6106035760405162461bcd60e51b815260206004820152601b60248201527f4d6f636b555344433a20696e76616c6964207369676e617475726500000000006044820152606401610421565b6001600160a01b038c1660008181526007602090815260408083208b8452909152808220805460ff19166001179055518992917f98de503528ee59b575ef0c0a2576a82497bfc029a5685b209e9ec333479b10a591a36106648c8c8c610703565b505050505050505050505050565b61067f8383836001610852565b505050565b6001600160a01b038381166000908152600160209081526040808320938616835292905220546000198110156106fd57818110156106ee57604051637dc7a0d960e11b81526001600160a01b03841660048201526024810182905260448101839052606401610421565b6106fd84848484036000610852565b50505050565b6001600160a01b03831661072d57604051634b637e8f60e11b815260006004820152602401610421565b6001600160a01b0382166107575760405163ec442f0560e01b815260006004820152602401610421565b61067f838383610927565b6001600160a01b03821661078c5760405163ec442f0560e01b815260006004820152602401610421565b61035e60008383610927565b60606107c57f00000000000000000000000000000000000000000000000000000000000000006005610a51565b905090565b60606107c57f00000000000000000000000000000000000000000000000000000000000000006006610a51565b600061032a610804610afc565b8360405161190160f01b8152600281019290925260228201526042902090565b60008060008061083688888888610c27565b9250925092506108468282610cf6565b50909695505050505050565b6001600160a01b03841661087c5760405163e602df0560e01b815260006004820152602401610421565b6001600160a01b0383166108a657604051634a1406b160e11b815260006004820152602401610421565b6001600160a01b03808516600090815260016020908152604080832093871683529290522082905580156106fd57826001600160a01b0316846001600160a01b03167f8c5be1e5ebec7d5bd14f71427d1e84f3dd0314c0f7b2291e5b200ac8c7c3b9258460405161091991815260200190565b60405180910390a350505050565b6001600160a01b038316610952578060026000828254610947919061109e565b909155506109c49050565b6001600160a01b038316600090815260208190526040902054818110156109a55760405163391434e360e21b81526001600160a01b03851660048201526024810182905260448101839052606401610421565b6001600160a01b03841660009081526020819052604090209082900390555b6001600160a01b0382166109e0576002805482900390556109ff565b6001600160a01b03821660009081526020819052604090208054820190555b816001600160a01b0316836001600160a01b03167fddf252ad1be2c89b69c2b068fc378daa952ba7f163c4a11628f55a4df523b3ef83604051610a4491815260200190565b60405180910390a3505050565b606060ff8314610a6b57610a6483610daf565b905061032a565b818054610a7790611064565b80601f0160208091040260200160405190810160405280929190818152602001828054610aa390611064565b8015610af05780601f10610ac557610100808354040283529160200191610af0565b820191906000526020600020905b815481529060010190602001808311610ad357829003601f168201915b5050505050905061032a565b6000306001600160a01b037f000000000000000000000000000000000000000000000000000000000000000016148015610b5557507f000000000000000000000000000000000000000000000000000000000000000046145b15610b7f57507f000000000000000000000000000000000000000000000000000000000000000090565b6107c5604080517f8b73c3c69bb8fe3d512ecc4cf759cc79239f7b179b0ffacaa9a75d522b39400f60208201527f0000000000000000000000000000000000000000000000000000000000000000918101919091527f000000000000000000000000000000000000000000000000000000000000000060608201524660808201523060a082015260009060c00160405160208183030381529060405280519060200120905090565b600080807f7fffffffffffffffffffffffffffffff5d576e7357a4501ddfe92f46681b20a0841115610c625750600091506003905082610cec565b604080516000808252602082018084528a905260ff891692820192909252606081018790526080810186905260019060a0016020604051602081039080840390855afa158015610cb6573d6000803e3d6000fd5b5050604051601f1901519150506001600160a01b038116610ce257506000925060019150829050610cec565b9250600091508190505b9450945094915050565b6000826003811115610d0a57610d0a6110bf565b03610d13575050565b6001826003811115610d2757610d276110bf565b03610d455760405163f645eedf60e01b815260040160405180910390fd5b6002826003811115610d5957610d596110bf565b03610d7a5760405163fce698f760e01b815260048101829052602401610421565b6003826003811115610d8e57610d8e6110bf565b0361035e576040516335e2f38360e21b815260048101829052602401610421565b60606000610dbc83610dee565b604080516020808252818301909252919250600091906020820181803683375050509182525060208101929092525090565b600060ff8216601f81111561032a57604051632cd44ac360e21b815260040160405180910390fd5b6000815180845260005b81811015610e3c57602081850181015186830182015201610e20565b506000602082860101526020601f19601f83011685010191505092915050565b602081526000610e6f6020830184610e16565b9392505050565b80356001600160a01b0381168114610e8d57600080fd5b919050565b60008060408385031215610ea557600080fd5b610eae83610e76565b946020939093013593505050565b600080600060608486031215610ed157600080fd5b610eda84610e76565b9250610ee860208501610e76565b9150604084013590509250925092565b600060208284031215610f0a57600080fd5b610e6f82610e76565b60ff60f81b881681526000602060e081840152610f3360e084018a610e16565b8381036040850152610f45818a610e16565b606085018990526001600160a01b038816608086015260a0850187905284810360c0860152855180825283870192509083019060005b81811015610f9757835183529284019291840191600101610f7b565b50909c9b505050505050505050505050565b60008060408385031215610fbc57600080fd5b610fc583610e76565b9150610fd360208401610e76565b90509250929050565b60008060008060008060008060006101208a8c031215610ffb57600080fd5b6110048a610e76565b985061101260208b01610e76565b975060408a0135965060608a0135955060808a0135945060a08a0135935060c08a013560ff8116811461104457600080fd5b8093505060e08a013591506101008a013590509295985092959850929598565b600181811c9082168061107857607f821691505b60208210810361109857634e487b7160e01b600052602260045260246000fd5b50919050565b8082018082111561032a57634e487b7160e01b600052601160045260246000fd5b634e487b7160e01b600052602160045260246000fdfea2646970667358221220029ab60f815b87e0ce1ce7c5e847fd3ab77ae2fae32ea701119b46235e58d96364736f6c63430008140033","opcodes":"PUSH2 0x160 PUSH1 0x40 MSTORE CALLVALUE DUP1 ISZERO PUSH3 0x12 JUMPI PUSH1 0x0 DUP1 REVERT JUMPDEST POP PUSH1 0x40 DUP1 MLOAD DUP1 DUP3 ADD DUP3 MSTORE PUSH1 0xD DUP1 DUP3 MSTORE PUSH13 0x26B7B1B5902AA9A21021B7B4B7 PUSH1 0x99 SHL PUSH1 0x20 DUP1 DUP5 ADD DUP3 SWAP1 MSTORE DUP5 MLOAD DUP1 DUP7 ADD DUP7 MSTORE PUSH1 0x1 DUP2 MSTORE PUSH1 0x31 PUSH1 0xF8 SHL DUP2 DUP4 ADD MSTORE DUP6 MLOAD DUP1 DUP8 ADD DUP8 MSTORE SWAP4 DUP5 MSTORE DUP4 DUP3 ADD SWAP3 SWAP1 SWAP3 MSTORE DUP5 MLOAD DUP1 DUP7 ADD SWAP1 SWAP6 MSTORE PUSH1 0x5 DUP6 MSTORE PUSH5 0x6D55534443 PUSH1 0xD8 SHL SWAP1 DUP6 ADD MSTORE SWAP2 SWAP3 PUSH1 0x3 PUSH3 0x88 DUP4 DUP3 PUSH3 0x415 JUMP JUMPDEST POP PUSH1 0x4 PUSH3 0x97 DUP3 DUP3 PUSH3 0x415 JUMP JUMPDEST POP PUSH3 0xA9 SWAP2 POP DUP4 SWAP1 POP PUSH1 0x5 PUSH3 0x17F JUMP JUMPDEST PUSH2 0x120 MSTORE PUSH3 0xBA DUP2 PUSH1 0x6 PUSH3 0x17F JUMP JUMPDEST PUSH2 0x140 MSTORE DUP2 MLOAD PUSH1 0x20 DUP1 DUP5 ADD SWAP2 SWAP1 SWAP2 KECCAK256 PUSH1 0xE0 MSTORE DUP2 MLOAD SWAP1 DUP3 ADD KECCAK256 PUSH2 0x100 MSTORE CHAINID PUSH1 0xA0 MSTORE PUSH3 0x148 PUSH1 0xE0 MLOAD PUSH2 0x100 MLOAD PUSH1 0x40 DUP1 MLOAD PUSH32 0x8B73C3C69BB8FE3D512ECC4CF759CC79239F7B179B0FFACAA9A75D522B39400F PUSH1 0x20 DUP3 ADD MSTORE SWAP1 DUP2 ADD SWAP3 SWAP1 SWAP3 MSTORE PUSH1 0x60 DUP3 ADD MSTORE CHAINID PUSH1 0x80 DUP3 ADD MSTORE ADDRESS PUSH1 0xA0 DUP3 ADD MSTORE PUSH1 0x0 SWAP1 PUSH1 0xC0 ADD PUSH1 0x40 MLOAD PUSH1 0x20 DUP2 DUP4 SUB SUB DUP2 MSTORE SWAP1 PUSH1 0x40 MSTORE DUP1 MLOAD SWAP1 PUSH1 0x20 ADD KECCAK256 SWAP1 POP SWAP1 JUMP JUMPDEST PUSH1 0x80 MSTORE POP POP ADDRESS PUSH1 0xC0 MSTORE PUSH3 0x179 CALLER PUSH3 0x164 PUSH1 0x12 PUSH1 0xA PUSH3 0x5F4 JUMP JUMPDEST PUSH3 0x173 SWAP1 PUSH3 0xF4240 PUSH3 0x60C JUMP JUMPDEST PUSH3 0x1B8 JUMP JUMPDEST PUSH3 0x6B1 JUMP JUMPDEST PUSH1 0x0 PUSH1 0x20 DUP4 MLOAD LT ISZERO PUSH3 0x19F JUMPI PUSH3 0x197 DUP4 PUSH3 0x1FA JUMP JUMPDEST SWAP1 POP PUSH3 0x1B2 JUMP JUMPDEST DUP2 PUSH3 0x1AC DUP5 DUP3 PUSH3 0x415 JUMP JUMPDEST POP PUSH1 0xFF SWAP1 POP JUMPDEST SWAP3 SWAP2 POP POP JUMP JUMPDEST PUSH1 0x1 PUSH1 0x1 PUSH1 0xA0 SHL SUB DUP3 AND PUSH3 0x1E8 JUMPI PUSH1 0x40 MLOAD PUSH4 0xEC442F05 PUSH1 0xE0 SHL DUP2 MSTORE PUSH1 0x0 PUSH1 0x4 DUP3 ADD MSTORE PUSH1 0x24 ADD JUMPDEST PUSH1 0x40 MLOAD DUP1 SWAP2 SUB SWAP1 REVERT JUMPDEST PUSH3 0x1F6 PUSH1 0x0 DUP4 DUP4 PUSH3 0x23D JUMP JUMPDEST POP POP JUMP JUMPDEST PUSH1 0x0 DUP1 DUP3 SWAP1 POP PUSH1 0x1F DUP2 MLOAD GT ISZERO PUSH3 0x228 JUMPI DUP3 PUSH1 0x40 MLOAD PUSH4 0x305A27A9 PUSH1 0xE0 SHL DUP2 MSTORE PUSH1 0x4 ADD PUSH3 0x1DF SWAP2 SWAP1 PUSH3 0x626 JUMP JUMPDEST DUP1 MLOAD PUSH3 0x235 DUP3 PUSH3 0x676 JUMP JUMPDEST OR SWAP4 SWAP3 POP POP POP JUMP JUMPDEST PUSH1 0x1 PUSH1 0x1 PUSH1 0xA0 SHL SUB DUP4 AND PUSH3 0x26C JUMPI DUP1 PUSH1 0x2 PUSH1 0x0 DUP3 DUP3 SLOAD PUSH3 0x260 SWAP2 SWAP1 PUSH3 0x69B JUMP JUMPDEST SWAP1 SWAP2 SSTORE POP PUSH3 0x2E0 SWAP1 POP JUMP JUMPDEST PUSH1 0x1 PUSH1 0x1 PUSH1 0xA0 SHL SUB DUP4 AND PUSH1 0x0 SWAP1 DUP2 MSTORE PUSH1 0x20 DUP2 SWAP1 MSTORE PUSH1 0x40 SWAP1 KECCAK256 SLOAD DUP2 DUP2 LT ISZERO PUSH3 0x2C1 JUMPI PUSH1 0x40 MLOAD PUSH4 0x391434E3 PUSH1 0xE2 SHL DUP2 MSTORE PUSH1 0x1 PUSH1 0x1 PUSH1 0xA0 SHL SUB DUP6 AND PUSH1 0x4 DUP3 ADD MSTORE PUSH1 0x24 DUP2 ADD DUP3 SWAP1 MSTORE PUSH1 0x44 DUP2 ADD DUP4 SWAP1 MSTORE PUSH1 0x64 ADD PUSH3 0x1DF JUMP JUMPDEST PUSH1 0x1 PUSH1 0x1 PUSH1 0xA0 SHL SUB DUP5 AND PUSH1 0x0 SWAP1 DUP2 MSTORE PUSH1 0x20 DUP2 SWAP1 MSTORE PUSH1 0x40 SWAP1 KECCAK256 SWAP1 DUP3 SWAP1 SUB SWAP1 SSTORE JUMPDEST PUSH1 0x1 PUSH1 0x1 PUSH1 0xA0 SHL SUB DUP3 AND PUSH3 0x2FE JUMPI PUSH1 0x2 DUP1 SLOAD DUP3 SWAP1 SUB SWAP1 SSTORE PUSH3 0x31D JUMP JUMPDEST PUSH1 0x1 PUSH1 0x1 PUSH1 0xA0 SHL SUB DUP3 AND PUSH1 0x0 SWAP1 DUP2 MSTORE PUSH1 0x20 DUP2 SWAP1 MSTORE PUSH1 0x40 SWAP1 KECCAK256 DUP1 SLOAD DUP3 ADD SWAP1 SSTORE JUMPDEST DUP2 PUSH1 0x1 PUSH1 0x1 PUSH1 0xA0 SHL SUB AND DUP4 PUSH1 0x1 PUSH1 0x1 PUSH1 0xA0 SHL SUB AND PUSH32 0xDDF252AD1BE2C89B69C2B068FC378DAA952BA7F163C4A11628F55A4DF523B3EF DUP4 PUSH1 0x40 MLOAD PUSH3 0x363 SWAP2 DUP2 MSTORE PUSH1 0x20 ADD SWAP1 JUMP JUMPDEST PUSH1 0x40 MLOAD DUP1 SWAP2 SUB SWAP1 LOG3 POP POP POP JUMP JUMPDEST PUSH4 0x4E487B71 PUSH1 0xE0 SHL PUSH1 0x0 MSTORE PUSH1 0x41 PUSH1 0x4 MSTORE PUSH1 0x24 PUSH1 0x0 REVERT JUMPDEST PUSH1 0x1 DUP2 DUP2 SHR SWAP1 DUP3 AND DUP1 PUSH3 0x39B JUMPI PUSH1 0x7F DUP3 AND SWAP2 POP JUMPDEST PUSH1 0x20 DUP3 LT DUP2 SUB PUSH3 0x3BC JUMPI PUSH4 0x4E487B71 PUSH1 0xE0 SHL PUSH1 0x0 MSTORE PUSH1 0x22 PUSH1 0x4 MSTORE PUSH1 0x24 PUSH1 0x0 REVERT JUMPDEST POP SWAP2 SWAP1 POP JUMP JUMPDEST PUSH1 0x1F DUP3 GT ISZERO PUSH3 0x410 JUMPI PUSH1 0x0 DUP2 DUP2 MSTORE PUSH1 0x20 DUP2 KECCAK256 PUSH1 0x1F DUP6 ADD PUSH1 0x5 SHR DUP2 ADD PUSH1 0x20 DUP7 LT ISZERO PUSH3 0x3EB JUMPI POP DUP1 JUMPDEST PUSH1 0x1F DUP6 ADD PUSH1 0x5 SHR DUP3 ADD SWAP2 POP JUMPDEST DUP2 DUP2 LT ISZERO PUSH3 0x40C JUMPI DUP3 DUP2 SSTORE PUSH1 0x1 ADD PUSH3 0x3F7 JUMP JUMPDEST POP POP POP JUMPDEST POP POP POP JUMP JUMPDEST DUP2 MLOAD PUSH1 0x1 PUSH1 0x1 PUSH1 0x40 SHL SUB DUP2 GT ISZERO PUSH3 0x431 JUMPI PUSH3 0x431 PUSH3 0x370 JUMP JUMPDEST PUSH3 0x449 DUP2 PUSH3 0x442 DUP5 SLOAD PUSH3 0x386 JUMP JUMPDEST DUP5 PUSH3 0x3C2 JUMP JUMPDEST PUSH1 0x20 DUP1 PUSH1 0x1F DUP4 GT PUSH1 0x1 DUP2 EQ PUSH3 0x481 JUMPI PUSH1 0x0 DUP5 ISZERO PUSH3 0x468 JUMPI POP DUP6 DUP4 ADD MLOAD JUMPDEST PUSH1 0x0 NOT PUSH1 0x3 DUP7 SWAP1 SHL SHR NOT AND PUSH1 0x1 DUP6 SWAP1 SHL OR DUP6 SSTORE PUSH3 0x40C JUMP JUMPDEST PUSH1 0x0 DUP6 DUP2 MSTORE PUSH1 0x20 DUP2 KECCAK256 PUSH1 0x1F NOT DUP7 AND SWAP2 JUMPDEST DUP3 DUP2 LT ISZERO PUSH3 0x4B2 JUMPI DUP9 DUP7 ADD MLOAD DUP3 SSTORE SWAP5 DUP5 ADD SWAP5 PUSH1 0x1 SWAP1 SWAP2 ADD SWAP1 DUP5 ADD PUSH3 0x491 JUMP JUMPDEST POP DUP6 DUP3 LT ISZERO PUSH3 0x4D1 JUMPI DUP8 DUP6 ADD MLOAD PUSH1 0x0 NOT PUSH1 0x3 DUP9 SWAP1 SHL PUSH1 0xF8 AND SHR NOT AND DUP2 SSTORE JUMPDEST POP POP POP POP POP PUSH1 0x1 SWAP1 DUP2 SHL ADD SWAP1 SSTORE POP JUMP JUMPDEST PUSH4 0x4E487B71 PUSH1 0xE0 SHL PUSH1 0x0 MSTORE PUSH1 0x11 PUSH1 0x4 MSTORE PUSH1 0x24 PUSH1 0x0 REVERT JUMPDEST PUSH1 0x1 DUP2 DUP2 JUMPDEST DUP1 DUP6 GT ISZERO PUSH3 0x538 JUMPI DUP2 PUSH1 0x0 NOT DIV DUP3 GT ISZERO PUSH3 0x51C JUMPI PUSH3 0x51C PUSH3 0x4E1 JUMP JUMPDEST DUP1 DUP6 AND ISZERO PUSH3 0x52A JUMPI SWAP2 DUP2 MUL SWAP2 JUMPDEST SWAP4 DUP5 SHR SWAP4 SWAP1 DUP1 MUL SWAP1 PUSH3 0x4FC JUMP JUMPDEST POP SWAP3 POP SWAP3 SWAP1 POP JUMP JUMPDEST PUSH1 0x0 DUP3 PUSH3 0x551 JUMPI POP PUSH1 0x1 PUSH3 0x1B2 JUMP JUMPDEST DUP2 PUSH3 0x560 JUMPI POP PUSH1 0x0 PUSH3 0x1B2 JUMP JUMPDEST DUP2 PUSH1 0x1 DUP2 EQ PUSH3 0x579 JUMPI PUSH1 0x2 DUP2 EQ PUSH3 0x584 JUMPI PUSH3 0x5A4 JUMP JUMPDEST PUSH1 0x1 SWAP2 POP POP PUSH3 0x1B2 JUMP JUMPDEST PUSH1 0xFF DUP5 GT ISZERO PUSH3 0x598 JUMPI PUSH3 0x598 PUSH3 0x4E1 JUMP JUMPDEST POP POP PUSH1 0x1 DUP3 SHL PUSH3 0x1B2 JUMP JUMPDEST POP PUSH1 0x20 DUP4 LT PUSH2 0x133 DUP4 LT AND PUSH1 0x4E DUP5 LT PUSH1 0xB DUP5 LT AND OR ISZERO PUSH3 0x5C9 JUMPI POP DUP2 DUP2 EXP PUSH3 0x1B2 JUMP JUMPDEST PUSH3 0x5D5 DUP4 DUP4 PUSH3 0x4F7 JUMP JUMPDEST DUP1 PUSH1 0x0 NOT DIV DUP3 GT ISZERO PUSH3 0x5EC JUMPI PUSH3 0x5EC PUSH3 0x4E1 JUMP JUMPDEST MUL SWAP4 SWAP3 POP POP POP JUMP JUMPDEST PUSH1 0x0 PUSH3 0x605 PUSH1 0xFF DUP5 AND DUP4 PUSH3 0x540 JUMP JUMPDEST SWAP4 SWAP3 POP POP POP JUMP JUMPDEST DUP1 DUP3 MUL DUP2 ISZERO DUP3 DUP3 DIV DUP5 EQ OR PUSH3 0x1B2 JUMPI PUSH3 0x1B2 PUSH3 0x4E1 JUMP JUMPDEST PUSH1 0x0 PUSH1 0x20 DUP1 DUP4 MSTORE DUP4 MLOAD DUP1 DUP3 DUP6 ADD MSTORE PUSH1 0x0 JUMPDEST DUP2 DUP2 LT ISZERO PUSH3 0x655 JUMPI DUP6 DUP2 ADD DUP4 ADD MLOAD DUP6 DUP3 ADD PUSH1 0x40 ADD MSTORE DUP3 ADD PUSH3 0x637 JUMP JUMPDEST POP PUSH1 0x0 PUSH1 0x40 DUP3 DUP7 ADD ADD MSTORE PUSH1 0x40 PUSH1 0x1F NOT PUSH1 0x1F DUP4 ADD AND DUP6 ADD ADD SWAP3 POP POP POP SWAP3 SWAP2 POP POP JUMP JUMPDEST DUP1 MLOAD PUSH1 0x20 DUP1 DUP4 ADD MLOAD SWAP2 SWAP1 DUP2 LT ISZERO PUSH3 0x3BC JUMPI PUSH1 0x0 NOT PUSH1 0x20 SWAP2 SWAP1 SWAP2 SUB PUSH1 0x3 SHL SHL AND SWAP2 SWAP1 POP JUMP JUMPDEST DUP1 DUP3 ADD DUP1 DUP3 GT ISZERO PUSH3 0x1B2 JUMPI PUSH3 0x1B2 PUSH3 0x4E1 JUMP JUMPDEST PUSH1 0x80 MLOAD PUSH1 0xA0 MLOAD PUSH1 0xC0 MLOAD PUSH1 0xE0 MLOAD PUSH2 0x100 MLOAD PUSH2 0x120 MLOAD PUSH2 0x140 MLOAD PUSH2 0x110B PUSH3 0x70C PUSH1 0x0 CODECOPY PUSH1 0x0 PUSH2 0x7D1 ADD MSTORE PUSH1 0x0 PUSH2 0x79F ADD MSTORE PUSH1 0x0 PUSH2 0xBD6 ADD MSTORE PUSH1 0x0 PUSH2 0xBAE ADD MSTORE PUSH1 0x0 PUSH2 0xB09 ADD MSTORE PUSH1 0x0 PUSH2 0xB33 ADD MSTORE PUSH1 0x0 PUSH2 0xB5D ADD MSTORE PUSH2 0x110B PUSH1 0x0 RETURN INVALID PUSH1 0x80 PUSH1 0x40 MSTORE CALLVALUE DUP1 ISZERO PUSH2 0x10 JUMPI PUSH1 0x0 DUP1 REVERT JUMPDEST POP PUSH1 0x4 CALLDATASIZE LT PUSH2 0xEA JUMPI PUSH1 0x0 CALLDATALOAD PUSH1 0xE0 SHR DUP1 PUSH4 0x7F2EECC3 GT PUSH2 0x8C JUMPI DUP1 PUSH4 0xA9059CBB GT PUSH2 0x66 JUMPI DUP1 PUSH4 0xA9059CBB EQ PUSH2 0x1EC JUMPI DUP1 PUSH4 0xDD62ED3E EQ PUSH2 0x1FF JUMPI DUP1 PUSH4 0xE94A0102 EQ PUSH2 0x238 JUMPI DUP1 PUSH4 0xEF55BEC6 EQ PUSH2 0x271 JUMPI PUSH1 0x0 DUP1 REVERT JUMPDEST DUP1 PUSH4 0x7F2EECC3 EQ PUSH2 0x1A2 JUMPI DUP1 PUSH4 0x84B0196E EQ PUSH2 0x1C9 JUMPI DUP1 PUSH4 0x95D89B41 EQ PUSH2 0x1E4 JUMPI PUSH1 0x0 DUP1 REVERT JUMPDEST DUP1 PUSH4 0x23B872DD GT PUSH2 0xC8 JUMPI DUP1 PUSH4 0x23B872DD EQ PUSH2 0x142 JUMPI DUP1 PUSH4 0x313CE567 EQ PUSH2 0x155 JUMPI DUP1 PUSH4 0x40C10F19 EQ PUSH2 0x164 JUMPI DUP1 PUSH4 0x70A08231 EQ PUSH2 0x179 JUMPI PUSH1 0x0 DUP1 REVERT JUMPDEST DUP1 PUSH4 0x6FDDE03 EQ PUSH2 0xEF JUMPI DUP1 PUSH4 0x95EA7B3 EQ PUSH2 0x10D JUMPI DUP1 PUSH4 0x18160DDD EQ PUSH2 0x130 JUMPI JUMPDEST PUSH1 0x0 DUP1 REVERT JUMPDEST PUSH2 0xF7 PUSH2 0x284 JUMP JUMPDEST PUSH1 0x40 MLOAD PUSH2 0x104 SWAP2 SWAP1 PUSH2 0xE5C JUMP JUMPDEST PUSH1 0x40 MLOAD DUP1 SWAP2 SUB SWAP1 RETURN JUMPDEST PUSH2 0x120 PUSH2 0x11B CALLDATASIZE PUSH1 0x4 PUSH2 0xE92 JUMP JUMPDEST PUSH2 0x316 JUMP JUMPDEST PUSH1 0x40 MLOAD SWAP1 ISZERO ISZERO DUP2 MSTORE PUSH1 0x20 ADD PUSH2 0x104 JUMP JUMPDEST PUSH1 0x2 SLOAD JUMPDEST PUSH1 0x40 MLOAD SWAP1 DUP2 MSTORE PUSH1 0x20 ADD PUSH2 0x104 JUMP JUMPDEST PUSH2 0x120 PUSH2 0x150 CALLDATASIZE PUSH1 0x4 PUSH2 0xEBC JUMP JUMPDEST PUSH2 0x330 JUMP JUMPDEST PUSH1 0x40 MLOAD PUSH1 0x12 DUP2 MSTORE PUSH1 0x20 ADD PUSH2 0x104 JUMP JUMPDEST PUSH2 0x177 PUSH2 0x172 CALLDATASIZE PUSH1 0x4 PUSH2 0xE92 JUMP JUMPDEST PUSH2 0x354 JUMP JUMPDEST STOP JUMPDEST PUSH2 0x134 PUSH2 0x187 CALLDATASIZE PUSH1 0x4 PUSH2 0xEF8 JUMP JUMPDEST PUSH1 0x1 PUSH1 0x1 PUSH1 0xA0 SHL SUB AND PUSH1 0x0 SWAP1 DUP2 MSTORE PUSH1 0x20 DUP2 SWAP1 MSTORE PUSH1 0x40 SWAP1 KECCAK256 SLOAD SWAP1 JUMP JUMPDEST PUSH2 0x134 PUSH32 0xD099CC98EF71107A616C4F0F941F04C322D8E254FE26B3C6668DB87AAE413DE8 DUP2 JUMP JUMPDEST PUSH2 0x1D1 PUSH2 0x362 JUMP JUMPDEST PUSH1 0x40 MLOAD PUSH2 0x104 SWAP8 SWAP7 SWAP6 SWAP5 SWAP4 SWAP3 SWAP2 SWAP1 PUSH2 0xF13 JUMP JUMPDEST PUSH2 0xF7 PUSH2 0x3A8 JUMP JUMPDEST PUSH2 0x120 PUSH2 0x1FA CALLDATASIZE PUSH1 0x4 PUSH2 0xE92 JUMP JUMPDEST PUSH2 0x3B7 JUMP JUMPDEST PUSH2 0x134 PUSH2 0x20D CALLDATASIZE PUSH1 0x4 PUSH2 0xFA9 JUMP JUMPDEST PUSH1 0x1 PUSH1 0x1 PUSH1 0xA0 SHL SUB SWAP2 DUP3 AND PUSH1 0x0 SWAP1 DUP2 MSTORE PUSH1 0x1 PUSH1 0x20 SWAP1 DUP2 MSTORE PUSH1 0x40 DUP1 DUP4 KECCAK256 SWAP4 SWAP1 SWAP5 AND DUP3 MSTORE SWAP2 SWAP1 SWAP2 MSTORE KECCAK256 SLOAD SWAP1 JUMP JUMPDEST PUSH2 0x120 PUSH2 0x246 CALLDATASIZE PUSH1 0x4 PUSH2 0xE92 JUMP JUMPDEST PUSH1 0x1 PUSH1 0x1 PUSH1 0xA0 SHL SUB SWAP2 SWAP1 SWAP2 AND PUSH1 0x0 SWAP1 DUP2 MSTORE PUSH1 0x7 PUSH1 0x20 SWAP1 DUP2 MSTORE PUSH1 0x40 DUP1 DUP4 KECCAK256 SWAP4 DUP4 MSTORE SWAP3 SWAP1 MSTORE KECCAK256 SLOAD PUSH1 0xFF AND SWAP1 JUMP JUMPDEST PUSH2 0x177 PUSH2 0x27F CALLDATASIZE PUSH1 0x4 PUSH2 0xFDC JUMP JUMPDEST PUSH2 0x3C5 JUMP JUMPDEST PUSH1 0x60 PUSH1 0x3 DUP1 SLOAD PUSH2 0x293 SWAP1 PUSH2 0x1064 JUMP JUMPDEST DUP1 PUSH1 0x1F ADD PUSH1 0x20 DUP1 SWAP2 DIV MUL PUSH1 0x20 ADD PUSH1 0x40 MLOAD SWAP1 DUP2 ADD PUSH1 0x40 MSTORE DUP1 SWAP3 SWAP2 SWAP1 DUP2 DUP2 MSTORE PUSH1 0x20 ADD DUP3 DUP1 SLOAD PUSH2 0x2BF SWAP1 PUSH2 0x1064 JUMP JUMPDEST DUP1 ISZERO PUSH2 0x30C JUMPI DUP1 PUSH1 0x1F LT PUSH2 0x2E1 JUMPI PUSH2 0x100 DUP1 DUP4 SLOAD DIV MUL DUP4 MSTORE SWAP2 PUSH1 0x20 ADD SWAP2 PUSH2 0x30C JUMP JUMPDEST DUP3 ADD SWAP2 SWAP1 PUSH1 0x0 MSTORE PUSH1 0x20 PUSH1 0x0 KECCAK256 SWAP1 JUMPDEST DUP2 SLOAD DUP2 MSTORE SWAP1 PUSH1 0x1 ADD SWAP1 PUSH1 0x20 ADD DUP1 DUP4 GT PUSH2 0x2EF JUMPI DUP3 SWAP1 SUB PUSH1 0x1F AND DUP3 ADD SWAP2 JUMPDEST POP POP POP POP POP SWAP1 POP SWAP1 JUMP JUMPDEST PUSH1 0x0 CALLER PUSH2 0x324 DUP2 DUP6 DUP6 PUSH2 0x672 JUMP JUMPDEST PUSH1 0x1 SWAP2 POP POP JUMPDEST SWAP3 SWAP2 POP POP JUMP JUMPDEST PUSH1 0x0 CALLER PUSH2 0x33E DUP6 DUP3 DUP6 PUSH2 0x684 JUMP JUMPDEST PUSH2 0x349 DUP6 DUP6 DUP6 PUSH2 0x703 JUMP JUMPDEST POP PUSH1 0x1 SWAP5 SWAP4 POP POP POP POP JUMP JUMPDEST PUSH2 0x35E DUP3 DUP3 PUSH2 0x762 JUMP JUMPDEST POP POP JUMP JUMPDEST PUSH1 0x0 PUSH1 0x60 DUP1 PUSH1 0x0 DUP1 PUSH1 0x0 PUSH1 0x60 PUSH2 0x376 PUSH2 0x798 JUMP JUMPDEST PUSH2 0x37E PUSH2 0x7CA JUMP JUMPDEST PUSH1 0x40 DUP1 MLOAD PUSH1 0x0 DUP1 DUP3 MSTORE PUSH1 0x20 DUP3 ADD SWAP1 SWAP3 MSTORE PUSH1 0xF PUSH1 0xF8 SHL SWAP12 SWAP4 SWAP11 POP SWAP2 SWAP9 POP CHAINID SWAP8 POP ADDRESS SWAP7 POP SWAP5 POP SWAP3 POP SWAP1 POP JUMP JUMPDEST PUSH1 0x60 PUSH1 0x4 DUP1 SLOAD PUSH2 0x293 SWAP1 PUSH2 0x1064 JUMP JUMPDEST PUSH1 0x0 CALLER PUSH2 0x324 DUP2 DUP6 DUP6 PUSH2 0x703 JUMP JUMPDEST DUP6 TIMESTAMP GT PUSH2 0x42A JUMPI PUSH1 0x40 MLOAD PUSH3 0x461BCD PUSH1 0xE5 SHL DUP2 MSTORE PUSH1 0x20 PUSH1 0x4 DUP3 ADD MSTORE PUSH1 0x28 PUSH1 0x24 DUP3 ADD MSTORE PUSH32 0x4D6F636B555344433A20617574686F72697A6174696F6E206973206E6F742079 PUSH1 0x44 DUP3 ADD MSTORE PUSH8 0x195D081D985B1A59 PUSH1 0xC2 SHL PUSH1 0x64 DUP3 ADD MSTORE PUSH1 0x84 ADD JUMPDEST PUSH1 0x40 MLOAD DUP1 SWAP2 SUB SWAP1 REVERT JUMPDEST DUP5 TIMESTAMP LT PUSH2 0x484 JUMPI PUSH1 0x40 MLOAD PUSH3 0x461BCD PUSH1 0xE5 SHL DUP2 MSTORE PUSH1 0x20 PUSH1 0x4 DUP3 ADD MSTORE PUSH1 0x22 PUSH1 0x24 DUP3 ADD MSTORE PUSH32 0x4D6F636B555344433A20617574686F72697A6174696F6E206973206578706972 PUSH1 0x44 DUP3 ADD MSTORE PUSH2 0x1959 PUSH1 0xF2 SHL PUSH1 0x64 DUP3 ADD MSTORE PUSH1 0x84 ADD PUSH2 0x421 JUMP JUMPDEST PUSH1 0x1 PUSH1 0x1 PUSH1 0xA0 SHL SUB DUP10 AND PUSH1 0x0 SWAP1 DUP2 MSTORE PUSH1 0x7 PUSH1 0x20 SWAP1 DUP2 MSTORE PUSH1 0x40 DUP1 DUP4 KECCAK256 DUP8 DUP5 MSTORE SWAP1 SWAP2 MSTORE SWAP1 KECCAK256 SLOAD PUSH1 0xFF AND ISZERO PUSH2 0x4F8 JUMPI PUSH1 0x40 MLOAD PUSH3 0x461BCD PUSH1 0xE5 SHL DUP2 MSTORE PUSH1 0x20 PUSH1 0x4 DUP3 ADD MSTORE PUSH1 0x1F PUSH1 0x24 DUP3 ADD MSTORE PUSH32 0x4D6F636B555344433A20617574686F72697A6174696F6E206973207573656400 PUSH1 0x44 DUP3 ADD MSTORE PUSH1 0x64 ADD PUSH2 0x421 JUMP JUMPDEST PUSH1 0x40 DUP1 MLOAD PUSH32 0xD099CC98EF71107A616C4F0F941F04C322D8E254FE26B3C6668DB87AAE413DE8 PUSH1 0x20 DUP1 DUP4 ADD SWAP2 SWAP1 SWAP2 MSTORE PUSH1 0x1 PUSH1 0x1 PUSH1 0xA0 SHL SUB DUP13 DUP2 AND DUP4 DUP6 ADD MSTORE DUP12 AND PUSH1 0x60 DUP4 ADD MSTORE PUSH1 0x80 DUP3 ADD DUP11 SWAP1 MSTORE PUSH1 0xA0 DUP3 ADD DUP10 SWAP1 MSTORE PUSH1 0xC0 DUP3 ADD DUP9 SWAP1 MSTORE PUSH1 0xE0 DUP1 DUP4 ADD DUP9 SWAP1 MSTORE DUP4 MLOAD DUP1 DUP5 SUB SWAP1 SWAP2 ADD DUP2 MSTORE PUSH2 0x100 SWAP1 SWAP3 ADD SWAP1 SWAP3 MSTORE DUP1 MLOAD SWAP2 ADD KECCAK256 PUSH1 0x0 PUSH2 0x57C DUP3 PUSH2 0x7F7 JUMP JUMPDEST SWAP1 POP PUSH1 0x0 PUSH2 0x58C DUP3 DUP8 DUP8 DUP8 PUSH2 0x824 JUMP JUMPDEST SWAP1 POP PUSH1 0x1 PUSH1 0x1 PUSH1 0xA0 SHL SUB DUP2 AND ISZERO DUP1 ISZERO SWAP1 PUSH2 0x5B7 JUMPI POP DUP12 PUSH1 0x1 PUSH1 0x1 PUSH1 0xA0 SHL SUB AND DUP2 PUSH1 0x1 PUSH1 0x1 PUSH1 0xA0 SHL SUB AND EQ JUMPDEST PUSH2 0x603 JUMPI PUSH1 0x40 MLOAD PUSH3 0x461BCD PUSH1 0xE5 SHL DUP2 MSTORE PUSH1 0x20 PUSH1 0x4 DUP3 ADD MSTORE PUSH1 0x1B PUSH1 0x24 DUP3 ADD MSTORE PUSH32 0x4D6F636B555344433A20696E76616C6964207369676E61747572650000000000 PUSH1 0x44 DUP3 ADD MSTORE PUSH1 0x64 ADD PUSH2 0x421 JUMP JUMPDEST PUSH1 0x1 PUSH1 0x1 PUSH1 0xA0 SHL SUB DUP13 AND PUSH1 0x0 DUP2 DUP2 MSTORE PUSH1 0x7 PUSH1 0x20 SWAP1 DUP2 MSTORE PUSH1 0x40 DUP1 DUP4 KECCAK256 DUP12 DUP5 MSTORE SWAP1 SWAP2 MSTORE DUP1 DUP3 KECCAK256 DUP1 SLOAD PUSH1 0xFF NOT AND PUSH1 0x1 OR SWAP1 SSTORE MLOAD DUP10 SWAP3 SWAP2 PUSH32 0x98DE503528EE59B575EF0C0A2576A82497BFC029A5685B209E9EC333479B10A5 SWAP2 LOG3 PUSH2 0x664 DUP13 DUP13 DUP13 PUSH2 0x703 JUMP JUMPDEST POP POP POP POP POP POP POP POP POP POP POP POP JUMP JUMPDEST PUSH2 0x67F DUP4 DUP4 DUP4 PUSH1 0x1 PUSH2 0x852 JUMP JUMPDEST POP POP POP JUMP JUMPDEST PUSH1 0x1 PUSH1 0x1 PUSH1 0xA0 SHL SUB DUP4 DUP2 AND PUSH1 0x0 SWAP1 DUP2 MSTORE PUSH1 0x1 PUSH1 0x20 SWAP1 DUP2 MSTORE PUSH1 0x40 DUP1 DUP4 KECCAK256 SWAP4 DUP7 AND DUP4 MSTORE SWAP3 SWAP1 MSTORE KECCAK256 SLOAD PUSH1 0x0 NOT DUP2 LT ISZERO PUSH2 0x6FD JUMPI DUP2 DUP2 LT ISZERO PUSH2 0x6EE JUMPI PUSH1 0x40 MLOAD PUSH4 0x7DC7A0D9 PUSH1 0xE1 SHL DUP2 MSTORE PUSH1 0x1 PUSH1 0x1 PUSH1 0xA0 SHL SUB DUP5 AND PUSH1 0x4 DUP3 ADD MSTORE PUSH1 0x24 DUP2 ADD DUP3 SWAP1 MSTORE PUSH1 0x44 DUP2 ADD DUP4 SWAP1 MSTORE PUSH1 0x64 ADD PUSH2 0x421 JUMP JUMPDEST PUSH2 0x6FD DUP5 DUP5 DUP5 DUP5 SUB PUSH1 0x0 PUSH2 0x852 JUMP JUMPDEST POP POP POP POP JUMP JUMPDEST PUSH1 0x1 PUSH1 0x1 PUSH1 0xA0 SHL SUB DUP4 AND PUSH2 0x72D JUMPI PUSH1 0x40 MLOAD PUSH4 0x4B637E8F PUSH1 0xE1 SHL DUP2 MSTORE PUSH1 0x0 PUSH1 0x4 DUP3 ADD MSTORE PUSH1 0x24 ADD PUSH2 0x421 JUMP JUMPDEST PUSH1 0x1 PUSH1 0x1 PUSH1 0xA0 SHL SUB DUP3 AND PUSH2 0x757 JUMPI PUSH1 0x40 MLOAD PUSH4 0xEC442F05 PUSH1 0xE0 SHL DUP2 MSTORE PUSH1 0x0 PUSH1 0x4 DUP3 ADD MSTORE PUSH1 0x24 ADD PUSH2 0x421 JUMP JUMPDEST PUSH2 0x67F DUP4 DUP4 DUP4 PUSH2 0x927 JUMP JUMPDEST PUSH1 0x1 PUSH1 0x1 PUSH1 0xA0 SHL SUB DUP3 AND PUSH2 0x78C JUMPI PUSH1 0x40 MLOAD PUSH4 0xEC442F05 PUSH1 0xE0 SHL DUP2 MSTORE PUSH1 0x0 PUSH1 0x4 DUP3 ADD MSTORE PUSH1 0x24 ADD PUSH2 0x421 JUMP JUMPDEST PUSH2 0x35E PUSH1 0x0 DUP4 DUP4 PUSH2 0x927 JUMP JUMPDEST PUSH1 0x60 PUSH2 0x7C5 PUSH32 0x0 PUSH1 0x5 PUSH2 0xA51 JUMP JUMPDEST SWAP1 POP SWAP1 JUMP JUMPDEST PUSH1 0x60 PUSH2 0x7C5 PUSH32 0x0 PUSH1 0x6 PUSH2 0xA51 JUMP JUMPDEST PUSH1 0x0 PUSH2 0x32A PUSH2 0x804 PUSH2 0xAFC JUMP JUMPDEST DUP4 PUSH1 0x40 MLOAD PUSH2 0x1901 PUSH1 0xF0 SHL DUP2 MSTORE PUSH1 0x2 DUP2 ADD SWAP3 SWAP1 SWAP3 MSTORE PUSH1 0x22 DUP3 ADD MSTORE PUSH1 0x42 SWAP1 KECCAK256 SWAP1 JUMP JUMPDEST PUSH1 0x0 DUP1 PUSH1 0x0 DUP1 PUSH2 0x836 DUP9 DUP9 DUP9 DUP9 PUSH2 0xC27 JUMP JUMPDEST SWAP3 POP SWAP3 POP SWAP3 POP PUSH2 0x846 DUP3 DUP3 PUSH2 0xCF6 JUMP JUMPDEST POP SWAP1 SWAP7 SWAP6 POP POP POP POP POP POP JUMP JUMPDEST PUSH1 0x1 PUSH1 0x1 PUSH1 0xA0 SHL SUB DUP5 AND PUSH2 0x87C JUMPI PUSH1 0x40 MLOAD PUSH4 0xE602DF05 PUSH1 0xE0 SHL DUP2 MSTORE PUSH1 0x0 PUSH1 0x4 DUP3 ADD MSTORE PUSH1 0x24 ADD PUSH2 0x421 JUMP JUMPDEST PUSH1 0x1 PUSH1 0x1 PUSH1 0xA0 SHL SUB DUP4 AND PUSH2 0x8A6 JUMPI PUSH1 0x40 MLOAD PUSH4 0x4A1406B1 PUSH1 0xE1 SHL DUP2 MSTORE PUSH1 0x0 PUSH1 0x4 DUP3 ADD MSTORE PUSH1 0x24 ADD PUSH2 0x421 JUMP JUMPDEST PUSH1 0x1 PUSH1 0x1 PUSH1 0xA0 SHL SUB DUP1 DUP6 AND PUSH1 0x0 SWAP1 DUP2 MSTORE PUSH1 0x1 PUSH1 0x20 SWAP1 DUP2 MSTORE PUSH1 0x40 DUP1 DUP4 KECCAK256 SWAP4 DUP8 AND DUP4 MSTORE SWAP3 SWAP1 MSTORE KECCAK256 DUP3 SWAP1 SSTORE DUP1 ISZERO PUSH2 0x6FD JUMPI DUP3 PUSH1 0x1 PUSH1 0x1 PUSH1 0xA0 SHL SUB AND DUP5 PUSH1 0x1 PUSH1 0x1 PUSH1 0xA0 SHL SUB AND PUSH32 0x8C5BE1E5EBEC7D5BD14F71427D1E84F3DD0314C0F7B2291E5B200AC8C7C3B925 DUP5 PUSH1 0x40 MLOAD PUSH2 0x919 SWAP2 DUP2 MSTORE PUSH1 0x20 ADD SWAP1 JUMP JUMPDEST PUSH1 0x40 MLOAD DUP1 SWAP2 SUB SWAP1 LOG3 POP POP POP POP JUMP JUMPDEST PUSH1 0x1 PUSH1 0x1 PUSH1 0xA0 SHL SUB DUP4 AND PUSH2 0x952 JUMPI DUP1 PUSH1 0x2 PUSH1 0x0 DUP3 DUP3 SLOAD PUSH2 0x947 SWAP2 SWAP1 PUSH2 0x109E JUMP JUMPDEST SWAP1 SWAP2 SSTORE POP PUSH2 0x9C4 SWAP1 POP JUMP JUMPDEST PUSH1 0x1 PUSH1 0x1 PUSH1 0xA0 SHL SUB DUP4 AND PUSH1 0x0 SWAP1 DUP2 MSTORE PUSH1 0x20 DUP2 SWAP1 MSTORE PUSH1 0x40 SWAP1 KECCAK256 SLOAD DUP2 DUP2 LT ISZERO PUSH2 0x9A5 JUMPI PUSH1 0x40 MLOAD PUSH4 0x391434E3 PUSH1 0xE2 SHL DUP2 MSTORE PUSH1 0x1 PUSH1 0x1 PUSH1 0xA0 SHL SUB DUP6 AND PUSH1 0x4 DUP3 ADD MSTORE PUSH1 0x24 DUP2 ADD DUP3 SWAP1 MSTORE PUSH1 0x44 DUP2 ADD DUP4 SWAP1 MSTORE PUSH1 0x64 ADD PUSH2 0x421 JUMP JUMPDEST PUSH1 0x1 PUSH1 0x1 PUSH1 0xA0 SHL SUB DUP5 AND PUSH1 0x0 SWAP1 DUP2 MSTORE PUSH1 0x20 DUP2 SWAP1 MSTORE PUSH1 0x40 SWAP1 KECCAK256 SWAP1 DUP3 SWAP1 SUB SWAP1 SSTORE JUMPDEST PUSH1 0x1 PUSH1 0x1 PUSH1 0xA0 SHL SUB DUP3 AND PUSH2 0x9E0 JUMPI PUSH1 0x2 DUP1 SLOAD DUP3 SWAP1 SUB SWAP1 SSTORE PUSH2 0x9FF JUMP JUMPDEST PUSH1 0x1 PUSH1 0x1 PUSH1 0xA0 SHL SUB DUP3 AND PUSH1 0x0 SWAP1 DUP2 MSTORE PUSH1 0x20 DUP2 SWAP1 MSTORE PUSH1 0x40 SWAP1 KECCAK256 DUP1 SLOAD DUP3 ADD SWAP1 SSTORE JUMPDEST DUP2 PUSH1 0x1 PUSH1 0x1 PUSH1 0xA0 SHL SUB AND DUP4 PUSH1 0x1 PUSH1 0x1 PUSH1 0xA0 SHL SUB AND PUSH32 0xDDF252AD1BE2C89B69C2B068FC378DAA952BA7F163C4A11628F55A4DF523B3EF DUP4 PUSH1 0x40 MLOAD PUSH2 0xA44 SWAP2 DUP2 MSTORE PUSH1 0x20 ADD SWAP1 JUMP JUMPDEST PUSH1 0x40 MLOAD DUP1 SWAP2 SUB SWAP1 LOG3 POP POP POP JUMP JUMPDEST PUSH1 0x60 PUSH1 0xFF DUP4 EQ PUSH2 0xA6B JUMPI PUSH2 0xA64 DUP4 PUSH2 0xDAF JUMP JUMPDEST SWAP1 POP PUSH2 0x32A JUMP JUMPDEST DUP2 DUP1 SLOAD PUSH2 0xA77 SWAP1 PUSH2 0x1064 JUMP JUMPDEST DUP1 PUSH1 0x1F ADD PUSH1 0x20 DUP1 SWAP2 DIV MUL PUSH1 0x20 ADD PUSH1 0x40 MLOAD SWAP1 DUP2 ADD PUSH1 0x40 MSTORE DUP1 SWAP3 SWAP2 SWAP1 DUP2 DUP2 MSTORE PUSH1 0x20 ADD DUP3 DUP1 SLOAD PUSH2 0xAA3 SWAP1 PUSH2 0x1064 JUMP JUMPDEST DUP1 ISZERO PUSH2 0xAF0 JUMPI DUP1 PUSH1 0x1F LT PUSH2 0xAC5 JUMPI PUSH2 0x100 DUP1 DUP4 SLOAD DIV MUL DUP4 MSTORE SWAP2 PUSH1 0x20 ADD SWAP2 PUSH2 0xAF0 JUMP JUMPDEST DUP3 ADD SWAP2 SWAP1 PUSH1 0x0 MSTORE PUSH1 0x20 PUSH1 0x0 KECCAK256 SWAP1 JUMPDEST DUP2 SLOAD DUP2 MSTORE SWAP1 PUSH1 0x1 ADD SWAP1 PUSH1 0x20 ADD DUP1 DUP4 GT PUSH2 0xAD3 JUMPI DUP3 SWAP1 SUB PUSH1 0x1F AND DUP3 ADD SWAP2 JUMPDEST POP POP POP POP POP SWAP1 POP PUSH2 0x32A JUMP JUMPDEST PUSH1 0x0 ADDRESS PUSH1 0x1 PUSH1 0x1 PUSH1 0xA0 SHL SUB PUSH32 0x0 AND EQ DUP1 ISZERO PUSH2 0xB55 JUMPI POP PUSH32 0x0 CHAINID EQ JUMPDEST ISZERO PUSH2 0xB7F JUMPI POP PUSH32 0x0 SWAP1 JUMP JUMPDEST PUSH2 0x7C5 PUSH1 0x40 DUP1 MLOAD PUSH32 0x8B73C3C69BB8FE3D512ECC4CF759CC79239F7B179B0FFACAA9A75D522B39400F PUSH1 0x20 DUP3 ADD MSTORE PUSH32 0x0 SWAP2 DUP2 ADD SWAP2 SWAP1 SWAP2 MSTORE PUSH32 0x0 PUSH1 0x60 DUP3 ADD MSTORE CHAINID PUSH1 0x80 DUP3 ADD MSTORE ADDRESS PUSH1 0xA0 DUP3 ADD MSTORE PUSH1 0x0 SWAP1 PUSH1 0xC0 ADD PUSH1 0x40 MLOAD PUSH1 0x20 DUP2 DUP4 SUB SUB DUP2 MSTORE SWAP1 PUSH1 0x40 MSTORE DUP1 MLOAD SWAP1 PUSH1 0x20 ADD KECCAK256 SWAP1 POP SWAP1 JUMP JUMPDEST PUSH1 0x0 DUP1 DUP1 PUSH32 0x7FFFFFFFFFFFFFFFFFFFFFFFFFFFFFFF5D576E7357A4501DDFE92F46681B20A0 DUP5 GT ISZERO PUSH2 0xC62 JUMPI POP PUSH1 0x0 SWAP2 POP PUSH1 0x3 SWAP1 POP DUP3 PUSH2 0xCEC JUMP JUMPDEST PUSH1 0x40 DUP1 MLOAD PUSH1 0x0 DUP1 DUP3 MSTORE PUSH1 0x20 DUP3 ADD DUP1 DUP5 MSTORE DUP11 SWAP1 MSTORE PUSH1 0xFF DUP10 AND SWAP3 DUP3 ADD SWAP3 SWAP1 SWAP3 MSTORE PUSH1 0x60 DUP2 ADD DUP8 SWAP1 MSTORE PUSH1 0x80 DUP2 ADD DUP7 SWAP1 MSTORE PUSH1 0x1 SWAP1 PUSH1 0xA0 ADD PUSH1 0x20 PUSH1 0x40 MLOAD PUSH1 0x20 DUP2 SUB SWAP1 DUP1 DUP5 SUB SWAP1 DUP6 GAS STATICCALL ISZERO DUP1 ISZERO PUSH2 0xCB6 JUMPI RETURNDATASIZE PUSH1 0x0 DUP1 RETURNDATACOPY RETURNDATASIZE PUSH1 0x0 REVERT JUMPDEST POP POP PUSH1 0x40 MLOAD PUSH1 0x1F NOT ADD MLOAD SWAP2 POP POP PUSH1 0x1 PUSH1 0x1 PUSH1 0xA0 SHL SUB DUP2 AND PUSH2 0xCE2 JUMPI POP PUSH1 0x0 SWAP3 POP PUSH1 0x1 SWAP2 POP DUP3 SWAP1 POP PUSH2 0xCEC JUMP JUMPDEST SWAP3 POP PUSH1 0x0 SWAP2 POP DUP2 SWAP1 POP JUMPDEST SWAP5 POP SWAP5 POP SWAP5 SWAP2 POP POP JUMP JUMPDEST PUSH1 0x0 DUP3 PUSH1 0x3 DUP2 GT ISZERO PUSH2 0xD0A JUMPI PUSH2 0xD0A PUSH2 0x10BF JUMP JUMPDEST SUB PUSH2 0xD13 JUMPI POP POP JUMP JUMPDEST PUSH1 0x1 DUP3 PUSH1 0x3 DUP2 GT ISZERO PUSH2 0xD27 JUMPI PUSH2 0xD27 PUSH2 0x10BF JUMP JUMPDEST SUB PUSH2 0xD45 JUMPI PUSH1 0x40 MLOAD PUSH4 0xF645EEDF PUSH1 0xE0 SHL DUP2 MSTORE PUSH1 0x4 ADD PUSH1 0x40 MLOAD DUP1 SWAP2 SUB SWAP1 REVERT JUMPDEST PUSH1 0x2 DUP3 PUSH1 0x3 DUP2 GT ISZERO PUSH2 0xD59 JUMPI PUSH2 0xD59 PUSH2 0x10BF JUMP JUMPDEST SUB PUSH2 0xD7A JUMPI PUSH1 0x40 MLOAD PUSH4 0xFCE698F7 PUSH1 0xE0 SHL DUP2 MSTORE PUSH1 0x4 DUP2 ADD DUP3 SWAP1 MSTORE PUSH1 0x24 ADD PUSH2 0x421 JUMP JUMPDEST PUSH1 0x3 DUP3 PUSH1 0x3 DUP2 GT ISZERO PUSH2 0xD8E JUMPI PUSH2 0xD8E PUSH2 0x10BF JUMP JUMPDEST SUB PUSH2 0x35E JUMPI PUSH1 0x40 MLOAD PUSH4 0x35E2F383 PUSH1 0xE2 SHL DUP2 MSTORE PUSH1 0x4 DUP2 ADD DUP3 SWAP1 MSTORE PUSH1 0x24 ADD PUSH2 0x421 JUMP JUMPDEST PUSH1 0x60 PUSH1 0x0 PUSH2 0xDBC DUP4 PUSH2 0xDEE JUMP JUMPDEST PUSH1 0x40 DUP1 MLOAD PUSH1 0x20 DUP1 DUP3 MSTORE DUP2 DUP4 ADD SWAP1 SWAP3 MSTORE SWAP2 SWAP3 POP PUSH1 0x0 SWAP2 SWAP1 PUSH1 0x20 DUP3 ADD DUP2 DUP1 CALLDATASIZE DUP4 CALLDATACOPY POP POP POP SWAP2 DUP3 MSTORE POP PUSH1 0x20 DUP2 ADD SWAP3 SWAP1 SWAP3 MSTORE POP SWAP1 JUMP JUMPDEST PUSH1 0x0 PUSH1 0xFF DUP3 AND PUSH1 0x1F DUP2 GT ISZERO PUSH2 0x32A JUMPI PUSH1 0x40 MLOAD PUSH4 0x2CD44AC3 PUSH1 0xE2 SHL DUP2 MSTORE PUSH1 0x4 ADD PUSH1 0x40 MLOAD DUP1 SWAP2 SUB SWAP1 REVERT JUMPDEST PUSH1 0x0 DUP2 MLOAD DUP1 DUP5 MSTORE PUSH1 0x0 JUMPDEST DUP2 DUP2 LT ISZERO PUSH2 0xE3C JUMPI PUSH1 0x20 DUP2 DUP6 ADD DUP2 ADD MLOAD DUP7 DUP4 ADD DUP3 ADD MSTORE ADD PUSH2 0xE20 JUMP JUMPDEST POP PUSH1 0x0 PUSH1 0x20 DUP3 DUP7 ADD ADD MSTORE PUSH1 0x20 PUSH1 0x1F NOT PUSH1 0x1F DUP4 ADD AND DUP6 ADD ADD SWAP2 POP POP SWAP3 SWAP2 POP POP JUMP JUMPDEST PUSH1 0x20 DUP2 MSTORE PUSH1 0x0 PUSH2 0xE6F PUSH1 0x20 DUP4 ADD DUP5 PUSH2 0xE16 JUMP JUMPDEST SWAP4 SWAP3 POP POP POP JUMP JUMPDEST DUP1 CALLDATALOAD PUSH1 0x1 PUSH1 0x1 PUSH1 0xA0 SHL SUB DUP2 AND DUP2 EQ PUSH2 0xE8D JUMPI PUSH1 0x0 DUP1 REVERT JUMPDEST SWAP2 SWAP1 POP JUMP JUMPDEST PUSH1 0x0 DUP1 PUSH1 0x40 DUP4 DUP6 SUB SLT ISZERO PUSH2 0xEA5 JUMPI PUSH1 0x0 DUP1 REVERT JUMPDEST PUSH2 0xEAE DUP4 PUSH2 0xE76 JUMP JUMPDEST SWAP5 PUSH1 0x20 SWAP4 SWAP1 SWAP4 ADD CALLDATALOAD SWAP4 POP POP POP JUMP JUMPDEST PUSH1 0x0 DUP1 PUSH1 0x0 PUSH1 0x60 DUP5 DUP7 SUB SLT ISZERO PUSH2 0xED1 JUMPI PUSH1 0x0 DUP1 REVERT JUMPDEST PUSH2 0xEDA DUP5 PUSH2 0xE76 JUMP JUMPDEST SWAP3 POP PUSH2 0xEE8 PUSH1 0x20 DUP6 ADD PUSH2 0xE76 JUMP JUMPDEST SWAP2 POP PUSH1 0x40 DUP5 ADD CALLDATALOAD SWAP1 POP SWAP3 POP SWAP3 POP SWAP3 JUMP JUMPDEST PUSH1 0x0 PUSH1 0x20 DUP3 DUP5 SUB SLT ISZERO PUSH2 0xF0A JUMPI PUSH1 0x0 DUP1 REVERT JUMPDEST PUSH2 0xE6F DUP3 PUSH2 0xE76 JUMP JUMPDEST PUSH1 0xFF PUSH1 0xF8 SHL DUP9 AND DUP2 MSTORE PUSH1 0x0 PUSH1 0x20 PUSH1 0xE0 DUP2 DUP5 ADD MSTORE PUSH2 0xF33 PUSH1 0xE0 DUP5 ADD DUP11 PUSH2 0xE16 JUMP JUMPDEST DUP4 DUP2 SUB PUSH1 0x40 DUP6 ADD MSTORE PUSH2 0xF45 DUP2 DUP11 PUSH2 0xE16 JUMP JUMPDEST PUSH1 0x60 DUP6 ADD DUP10 SWAP1 MSTORE PUSH1 0x1 PUSH1 0x1 PUSH1 0xA0 SHL SUB DUP9 AND PUSH1 0x80 DUP7 ADD MSTORE PUSH1 0xA0 DUP6 ADD DUP8 SWAP1 MSTORE DUP5 DUP2 SUB PUSH1 0xC0 DUP7 ADD MSTORE DUP6 MLOAD DUP1 DUP3 MSTORE DUP4 DUP8 ADD SWAP3 POP SWAP1 DUP4 ADD SWAP1 PUSH1 0x0 JUMPDEST DUP2 DUP2 LT ISZERO PUSH2 0xF97 JUMPI DUP4 MLOAD DUP4 MSTORE SWAP3 DUP5 ADD SWAP3 SWAP2 DUP5 ADD SWAP2 PUSH1 0x1 ADD PUSH2 0xF7B JUMP JUMPDEST POP SWAP1 SWAP13 SWAP12 POP POP POP POP POP POP POP POP POP POP POP POP JUMP JUMPDEST PUSH1 0x0 DUP1 PUSH1 0x40 DUP4 DUP6 SUB SLT ISZERO PUSH2 0xFBC JUMPI PUSH1 0x0 DUP1 REVERT JUMPDEST PUSH2 0xFC5 DUP4 PUSH2 0xE76 JUMP JUMPDEST SWAP2 POP PUSH2 0xFD3 PUSH1 0x20 DUP5 ADD PUSH2 0xE76 JUMP JUMPDEST SWAP1 POP SWAP3 POP SWAP3 SWAP1 POP JUMP JUMPDEST PUSH1 0x0 DUP1 PUSH1 0x0 DUP1 PUSH1 0x0 DUP1 PUSH1 0x0 DUP1 PUSH1 0x0 PUSH2 0x120 DUP11 DUP13 SUB SLT ISZERO PUSH2 0xFFB JUMPI PUSH1 0x0 DUP1 REVERT JUMPDEST PUSH2 0x1004 DUP11 PUSH2 0xE76 JUMP JUMPDEST SWAP9 POP PUSH2 0x1012 PUSH1 0x20 DUP12 ADD PUSH2 0xE76 JUMP JUMPDEST SWAP8 POP PUSH1 0x40 DUP11 ADD CALLDATALOAD SWAP7 POP PUSH1 0x60 DUP11 ADD CALLDATALOAD SWAP6 POP PUSH1 0x80 DUP11 ADD CALLDATALOAD SWAP5 POP PUSH1 0xA0 DUP11 ADD CALLDATALOAD SWAP4 POP PUSH1 0xC0 DUP11 ADD CALLDATALOAD PUSH1 0xFF DUP2 AND DUP2 EQ PUSH2 0x1044 JUMPI PUSH1 0x0 DUP1 REVERT JUMPDEST DUP1 SWAP4 POP POP PUSH1 0xE0 DUP11 ADD CALLDATALOAD SWAP2 POP PUSH2 0x100 DUP11 ADD CALLDATALOAD SWAP1 POP SWAP3 SWAP6 SWAP9 POP SWAP3 SWAP6 SWAP9 POP SWAP3 SWAP6 SWAP9 JUMP JUMPDEST PUSH1 0x1 DUP2 DUP2 SHR SWAP1 DUP3 AND DUP1 PUSH2 0x1078 JUMPI PUSH1 0x7F DUP3 AND SWAP2 POP JUMPDEST PUSH1 0x20 DUP3 LT DUP2 SUB PUSH2 0x1098 JUMPI PUSH4 0x4E487B71 PUSH1 0xE0 SHL PUSH1 0x0 MSTORE PUSH1 0x22 PUSH1 0x4 MSTORE PUSH1 0x24 PUSH1 0x0 REVERT JUMPDEST POP SWAP2 SWAP1 POP JUMP JUMPDEST DUP1 DUP3 ADD DUP1 DUP3 GT ISZERO PUSH2 0x32A JUMPI PUSH4 0x4E487B71 PUSH1 0xE0 SHL PUSH1 0x0 MSTORE PUSH1 0x11 PUSH1 0x4 MSTORE PUSH1 0x24 PUSH1 0x0 REVERT JUMPDEST PUSH4 0x4E487B71 PUSH1 0xE0 SHL PUSH1 0x0 MSTORE PUSH1 0x21 PUSH1 0x4 MSTORE PUSH1 0x24 PUSH1 0x0 REVERT INVALID LOG2 PUSH5 0x6970667358 0x22 SLT KECCAK256 MUL SWAP11 0xB6 0xF DUP2 JUMPDEST DUP8 0xE0 0xCE SHR 0xE7 0xC5 0xE8 SELFBALANCE REVERT GASPRICE 0xB7 PUSH27 0xE2FAE32EA701119B46235E58D96364736F6C634300081400330000 "},"methodIdentifiers":{"RECEIVE_WITH_AUTHORIZATION_TYPEHASH()":"7f2eecc3","allowance(address,address)":"dd62ed3e","approve(address,uint256)":"095ea7b3","authorizationState(address,bytes32)":"e94a0102","balanceOf(address)":"70a08231","decimals()":"313ce567","eip712Domain()":"84b0196e","mint(address,uint256)":"40c10f19","name()":"06fdde03","receiveWithAuthorization(address,address,uint256,uint256,uint256,bytes32,uint8,bytes32,bytes32)":"ef55bec6","symbol()":"95d89b41","totalSupply()":"18160ddd","transfer(address,uint256)":"a9059cbb","transferFrom(address,address,uint256)":"23b872dd"}}}}}