{"contracts/X402PaymentProcessor.sol":{"X402PaymentProcessor":{"abi":[{"inputs":[{"internalType":"address","name":"_paymentToken","type":"address"},{"internalType":"address","name":"_escrow","type":"address"},{"internalType":"address","name":"_serviceRegistry","type":"address"}],"stateMutability":"nonpayable","type":"constructor"},{"inputs":[{"internalType":"address","name":"owner","type":"address"}],"name":"OwnableInvalidOwner","type":"error"},{"inputs":[{"internalType":"address","name":"account","type":"address"}],"name":"OwnableUnauthorizedAccount","type":"error"},{"inputs":[],"name":"ReentrancyGuardReentrantCall","type":"error"},{"anonymous":false,"inputs":[{"indexed":true,"internalType":"address","name":"previousOwner","type":"address"},{"indexed":true,"internalType":"address","name":"newOwner","type":"address"}],"name":"OwnershipTransferred","type":"event"},{"anonymous":false,"inputs":[{"indexed":true,"internalType":"bytes32","name":"serviceId","type":"bytes32"},{"indexed":true,"internalType":"address","name":"payer","type":"address"},{"indexed":true,"internalType":"address","name":"provider","type":"address"},{"indexed":false,"internalType":"uint256","name":"amount","type":"uint256"},{"indexed":false,"internalType":"bytes32","name":"nonce","type":"bytes32"}],"name":"PaymentProcessed","type":"event"},{"inputs":[],"name":"escrow","outputs":[{"internalType":"contract X402Escrow","name":"","type":"address"}],"stateMutability":"view","type":"function"},{"inputs":[],"name":"owner","outputs":[{"internalType":"address","name":"","type":"address"}],"stateMutability":"view","type":"function"},{"inputs":[],"name":"paymentToken","outputs":[{"internalType":"contract IERC20Permit","name":"","type":"address"}],"stateMutability":"view","type":"function"},{"inputs":[{"internalType":"bytes32","name":"serviceId","type":"bytes32"},{"internalType":"address","name":"from","type":"address"},{"internalType":"uint256","name":"value","type":"uint256"},{"internalType":"uint256","name":"validAfter","type":"uint256"},{"internalType":"uint256","name":"validBefore","type":"uint256"},{"internalType":"bytes32","name":"nonce","type":"bytes32"},{"internalType":"uint8","name":"v","type":"uint8"},{"internalType":"bytes32","name":"r","type":"bytes32"},{"internalType":"bytes32","name":"s","type":"bytes32"}],"name":"processPayment","outputs":[],"stateMutability":"nonpayable","type":"function"},{"inputs":[],"name":"renounceOwnership","outputs":[],"stateMutability":"nonpayable","type":"function"},{"inputs":[],"name":"serviceRegistry","outputs":[{"internalType":"contract X402ServiceRegistry","name":"","type":"address"}],"stateMutability":"view","type":"function"},{"inputs":[{"internalType":"address","name":"newRegistry","type":"address"}],"name":"setServiceRegistry","outputs":[],"stateMutability":"nonpayable","type":"function"},{"inputs":[{"internalType":"address","name":"newOwner","type":"address"}],"name":"transferOwnership","outputs":[],"stateMutability":"nonpayable","type":"function"},{"inputs":[{"internalType":"bytes32","name":"","type":"bytes32"}],"name":"usedNonces","outputs":[{"internalType":"bool","name":"","type":"bool"}],"stateMutability":"view","type":"function"}],"evm":{"bytecode":{"linkReferences":{},"object":"60c060405234801561001057600080fd5b506040516109f53803806109f583398101604081905261002f916101d4565b338061005657604051631e4fbdf760e01b8152600060048201526024015b60405180910390fd5b61005f81610168565b50600180556001600160a01b0383166100aa5760405162461bcd60e51b815260206004820152600d60248201526c24b73b30b634b2103a37b5b2b760991b604482015260640161004d565b6001600160a01b0382166100f15760405162461bcd60e51b815260206004820152600e60248201526d496e76616c696420657363726f7760901b604482015260640161004d565b6001600160a01b03811661013a5760405162461bcd60e51b815260206004820152601060248201526f496e76616c696420726567697374727960801b604482015260640161004d565b6001600160a01b0392831660805290821660a052600280546001600160a01b03191691909216179055610217565b600080546001600160a01b038381166001600160a01b0319831681178455604051919092169283917f8be0079c531659141344cd1fd0a4f28419497f9722a3daafe3b4186f6b6457e09190a35050565b80516001600160a01b03811681146101cf57600080fd5b919050565b6000806000606084860312156101e957600080fd5b6101f2846101b8565b9250610200602085016101b8565b915061020e604085016101b8565b90509250925092565b60805160a0516107a5610250600039600081816101350152818161034a015261042f015260008181609d01526103a601526107a56000f3fe608060405234801561001057600080fd5b50600436106100935760003560e01c8063cbcf252a11610066578063cbcf252a1461010a578063d7071b1f1461011d578063e2fdcc1714610130578063f2fde38b14610157578063feb617241461016a57600080fd5b80633013ce2914610098578063715018a6146100dc57806380cdb8ce146100e65780638da5cb5b146100f9575b600080fd5b6100bf7f000000000000000000000000000000000000000000000000000000000000000081565b6040516001600160a01b0390911681526020015b60405180910390f35b6100e461019d565b005b6100e46100f4366004610667565b6101b1565b6000546001600160a01b03166100bf565b6002546100bf906001600160a01b031681565b6100e461012b3660046106ea565b6104fb565b6100bf7f000000000000000000000000000000000000000000000000000000000000000081565b6100e46101653660046106ea565b61056d565b61018d61017836600461070e565b60036020526000908152604090205460ff1681565b60405190151581526020016100d3565b6101a56105ab565b6101af60006105d8565b565b6101b9610628565b60008481526003602052604090205460ff16156102125760405162461bcd60e51b8152602060048201526012602482015271139bdb98d948185b1c9958591e481d5cd95960721b60448201526064015b60405180910390fd5b600084815260036020526040808220805460ff191660011790556002549051636d23ec2b60e11b8152600481018c9052829182916001600160a01b039091169063da47d85690602401606060405180830381865afa158015610278573d6000803e3d6000fd5b505050506040513d601f19601f8201168201806040525081019061029c9190610727565b925092509250806102e45760405162461bcd60e51b815260206004820152601260248201527153657276696365206e6f742061637469766560701b6044820152606401610209565b818a101561032b5760405162461bcd60e51b8152602060048201526014602482015273125b9cdd59999a58da595b9d081c185e5b595b9d60621b6044820152606401610209565b6040516377aadf6360e11b81526001600160a01b038c811660048301527f000000000000000000000000000000000000000000000000000000000000000081166024830152604482018c9052606482018b9052608482018a905260a4820189905260ff881660c483015260e4820187905261010482018690527f0000000000000000000000000000000000000000000000000000000000000000169063ef55bec69061012401600060405180830381600087803b1580156103eb57600080fd5b505af11580156103ff573d6000803e3d6000fd5b505060405163745ca77f60e11b81526001600160a01b0386811660048301528e81166024830152604482018e90527f000000000000000000000000000000000000000000000000000000000000000016925063e8b94efe9150606401600060405180830381600087803b15801561047557600080fd5b505af1158015610489573d6000803e3d6000fd5b50505050826001600160a01b03168b6001600160a01b03168d7f78176f5a67d9234e2a7cf31dd41eafe1b12917ae1dbd099c402c682405a238258d8b6040516104dc929190918252602082015260400190565b60405180910390a45050506104f060018055565b505050505050505050565b6105036105ab565b6001600160a01b03811661054b5760405162461bcd60e51b815260206004820152600f60248201526e496e76616c6964206164647265737360881b6044820152606401610209565b600280546001600160a01b0319166001600160a01b0392909216919091179055565b6105756105ab565b6001600160a01b03811661059f57604051631e4fbdf760e01b815260006004820152602401610209565b6105a8816105d8565b50565b6000546001600160a01b031633146101af5760405163118cdaa760e01b8152336004820152602401610209565b600080546001600160a01b038381166001600160a01b0319831681178455604051919092169283917f8be0079c531659141344cd1fd0a4f28419497f9722a3daafe3b4186f6b6457e09190a35050565b60026001540361064b57604051633ee5aeb560e01b815260040160405180910390fd5b6002600155565b6001600160a01b03811681146105a857600080fd5b60008060008060008060008060006101208a8c03121561068657600080fd5b8935985060208a013561069881610652565b975060408a0135965060608a0135955060808a0135945060a08a0135935060c08a013560ff811681146106ca57600080fd5b8093505060e08a013591506101008a013590509295985092959850929598565b6000602082840312156106fc57600080fd5b813561070781610652565b9392505050565b60006020828403121561072057600080fd5b5035919050565b60008060006060848603121561073c57600080fd5b835161074781610652565b602085015160408601519194509250801515811461076457600080fd5b80915050925092509256fea26469706673582212200693be37e6c9b05c5034792a28919fd2dd7fc29130c8137e582587d949cb5b1664736f6c63430008140033","opcodes":"PUSH1 0xC0 PUSH1 0x40 MSTORE CALLVALUE DUP1 ISZERO PUSH2 0x10 JUMPI PUSH1 0x0 DUP1 REVERT JUMPDEST POP PUSH1 0x40 MLOAD PUSH2 0x9F5 CODESIZE SUB DUP1 PUSH2 0x9F5 DUP4 CODECOPY DUP2 ADD PUSH1 0x40 DUP2 SWAP1 MSTORE PUSH2 0x2F SWAP2 PUSH2 0x1D4 JUMP JUMPDEST CALLER DUP1 PUSH2 0x56 JUMPI PUSH1 0x40 MLOAD PUSH4 0x1E4FBDF7 PUSH1 0xE0 SHL DUP2 MSTORE PUSH1 0x0 PUSH1 0x4 DUP3 ADD MSTORE PUSH1 0x24 ADD JUMPDEST PUSH1 0x40 MLOAD DUP1 SWAP2 SUB SWAP1 REVERT JUMPDEST PUSH2 0x5F DUP2 PUSH2 0x168 JUMP JUMPDEST POP PUSH1 0x1 DUP1 SSTORE PUSH1 0x1 PUSH1 0x1 PUSH1 0xA0 SHL SUB DUP4 AND PUSH2 0xAA JUMPI PUSH1 0x40 MLOAD PUSH3 0x461BCD PUSH1 0xE5 SHL DUP2 MSTORE PUSH1 0x20 PUSH1 0x4 DUP3 ADD MSTORE PUSH1 0xD PUSH1 0x24 DUP3 ADD MSTORE PUSH13 0x24B73B30B634B2103A37B5B2B7 PUSH1 0x99 SHL PUSH1 0x44 DUP3 ADD MSTORE PUSH1 0x64 ADD PUSH2 0x4D JUMP JUMPDEST PUSH1 0x1 PUSH1 0x1 PUSH1 0xA0 SHL SUB DUP3 AND PUSH2 0xF1 JUMPI PUSH1 0x40 MLOAD PUSH3 0x461BCD PUSH1 0xE5 SHL DUP2 MSTORE PUSH1 0x20 PUSH1 0x4 DUP3 ADD MSTORE PUSH1 0xE PUSH1 0x24 DUP3 ADD MSTORE PUSH14 0x496E76616C696420657363726F77 PUSH1 0x90 SHL PUSH1 0x44 DUP3 ADD MSTORE PUSH1 0x64 ADD PUSH2 0x4D JUMP JUMPDEST PUSH1 0x1 PUSH1 0x1 PUSH1 0xA0 SHL SUB DUP2 AND PUSH2 0x13A JUMPI PUSH1 0x40 MLOAD PUSH3 0x461BCD PUSH1 0xE5 SHL DUP2 MSTORE PUSH1 0x20 PUSH1 0x4 DUP3 ADD MSTORE PUSH1 0x10 PUSH1 0x24 DUP3 ADD MSTORE PUSH16 0x496E76616C6964207265676973747279 PUSH1 0x80 SHL PUSH1 0x44 DUP3 ADD MSTORE PUSH1 0x64 ADD PUSH2 0x4D JUMP JUMPDEST PUSH1 0x1 PUSH1 0x1 PUSH1 0xA0 SHL SUB SWAP3 DUP4 AND PUSH1 0x80 MSTORE SWAP1 DUP3 AND PUSH1 0xA0 MSTORE PUSH1 0x2 DUP1 SLOAD PUSH1 0x1 PUSH1 0x1 PUSH1 0xA0 SHL SUB NOT AND SWAP2 SWAP1 SWAP3 AND OR SWAP1 SSTORE PUSH2 0x217 JUMP JUMPDEST PUSH1 0x0 DUP1 SLOAD PUSH1 0x1 PUSH1 0x1 PUSH1 0xA0 SHL SUB DUP4 DUP2 AND PUSH1 0x1 PUSH1 0x1 PUSH1 0xA0 SHL SUB NOT DUP4 AND DUP2 OR DUP5 SSTORE PUSH1 0x40 MLOAD SWAP2 SWAP1 SWAP3 AND SWAP3 DUP4 SWAP2 PUSH32 0x8BE0079C531659141344CD1FD0A4F28419497F9722A3DAAFE3B4186F6B6457E0 SWAP2 SWAP1 LOG3 POP POP JUMP JUMPDEST DUP1 MLOAD PUSH1 0x1 PUSH1 0x1 PUSH1 0xA0 SHL SUB DUP2 AND DUP2 EQ PUSH2 0x1CF JUMPI PUSH1 0x0 DUP1 REVERT JUMPDEST SWAP2 SWAP1 POP JUMP JUMPDEST PUSH1 0x0 DUP1 PUSH1 0x0 PUSH1 0x60 DUP5 DUP7 SUB SLT ISZERO PUSH2 0x1E9 JUMPI PUSH1 0x0 DUP1 REVERT JUMPDEST PUSH2 0x1F2 DUP5 PUSH2 0x1B8 JUMP JUMPDEST SWAP3 POP PUSH2 0x200 PUSH1 0x20 DUP6 ADD PUSH2 0x1B8 JUMP JUMPDEST SWAP2 POP PUSH2 0x20E PUSH1 0x40 DUP6 ADD PUSH2 0x1B8 JUMP JUMPDEST SWAP1 POP SWAP3 POP SWAP3 POP SWAP3 JUMP JUMPDEST PUSH1 0x80 MLOAD PUSH1 0xA0 MLOAD PUSH2 0x7A5 PUSH2 0x250 PUSH1 0x0 CODECOPY PUSH1 0x0 DUP2 DUP2 PUSH2 0x135 ADD MSTORE DUP2 DUP2 PUSH2 0x34A ADD MSTORE PUSH2 0x42F ADD MSTORE PUSH1 0x0 DUP2 DUP2 PUSH1 0x9D ADD MSTORE PUSH2 0x3A6 ADD MSTORE PUSH2 0x7A5 PUSH1 0x0 RETURN INVALID PUSH1 0x80 PUSH1 0x40 MSTORE CALLVALUE DUP1 ISZERO PUSH2 0x10 JUMPI PUSH1 0x0 DUP1 REVERT JUMPDEST POP PUSH1 0x4 CALLDATASIZE LT PUSH2 0x93 JUMPI PUSH1 0x0 CALLDATALOAD PUSH1 0xE0 SHR DUP1 PUSH4 0xCBCF252A GT PUSH2 0x66 JUMPI DUP1 PUSH4 0xCBCF252A EQ PUSH2 0x10A JUMPI DUP1 PUSH4 0xD7071B1F EQ PUSH2 0x11D JUMPI DUP1 PUSH4 0xE2FDCC17 EQ PUSH2 0x130 JUMPI DUP1 PUSH4 0xF2FDE38B EQ PUSH2 0x157 JUMPI DUP1 PUSH4 0xFEB61724 EQ PUSH2 0x16A JUMPI PUSH1 0x0 DUP1 REVERT JUMPDEST DUP1 PUSH4 0x3013CE29 EQ PUSH2 0x98 JUMPI DUP1 PUSH4 0x715018A6 EQ PUSH2 0xDC JUMPI DUP1 PUSH4 0x80CDB8CE EQ PUSH2 0xE6 JUMPI DUP1 PUSH4 0x8DA5CB5B EQ PUSH2 0xF9 JUMPI JUMPDEST PUSH1 0x0 DUP1 REVERT JUMPDEST PUSH2 0xBF PUSH32 0x0 DUP2 JUMP JUMPDEST PUSH1 0x40 MLOAD PUSH1 0x1 PUSH1 0x1 PUSH1 0xA0 SHL SUB SWAP1 SWAP2 AND DUP2 MSTORE PUSH1 0x20 ADD JUMPDEST PUSH1 0x40 MLOAD DUP1 SWAP2 SUB SWAP1 RETURN JUMPDEST PUSH2 0xE4 PUSH2 0x19D JUMP JUMPDEST STOP JUMPDEST PUSH2 0xE4 PUSH2 0xF4 CALLDATASIZE PUSH1 0x4 PUSH2 0x667 JUMP JUMPDEST PUSH2 0x1B1 JUMP JUMPDEST PUSH1 0x0 SLOAD PUSH1 0x1 PUSH1 0x1 PUSH1 0xA0 SHL SUB AND PUSH2 0xBF JUMP JUMPDEST PUSH1 0x2 SLOAD PUSH2 0xBF SWAP1 PUSH1 0x1 PUSH1 0x1 PUSH1 0xA0 SHL SUB AND DUP2 JUMP JUMPDEST PUSH2 0xE4 PUSH2 0x12B CALLDATASIZE PUSH1 0x4 PUSH2 0x6EA JUMP JUMPDEST PUSH2 0x4FB JUMP JUMPDEST PUSH2 0xBF PUSH32 0x0 DUP2 JUMP JUMPDEST PUSH2 0xE4 PUSH2 0x165 CALLDATASIZE PUSH1 0x4 PUSH2 0x6EA JUMP JUMPDEST PUSH2 0x56D JUMP JUMPDEST PUSH2 0x18D PUSH2 0x178 CALLDATASIZE PUSH1 0x4 PUSH2 0x70E JUMP JUMPDEST PUSH1 0x3 PUSH1 0x20 MSTORE PUSH1 0x0 SWAP1 DUP2 MSTORE PUSH1 0x40 SWAP1 KECCAK256 SLOAD PUSH1 0xFF AND DUP2 JUMP JUMPDEST PUSH1 0x40 MLOAD SWAP1 ISZERO ISZERO DUP2 MSTORE PUSH1 0x20 ADD PUSH2 0xD3 JUMP JUMPDEST PUSH2 0x1A5 PUSH2 0x5AB JUMP JUMPDEST PUSH2 0x1AF PUSH1 0x0 PUSH2 0x5D8 JUMP JUMPDEST JUMP JUMPDEST PUSH2 0x1B9 PUSH2 0x628 JUMP JUMPDEST PUSH1 0x0 DUP5 DUP2 MSTORE PUSH1 0x3 PUSH1 0x20 MSTORE PUSH1 0x40 SWAP1 KECCAK256 SLOAD PUSH1 0xFF AND ISZERO PUSH2 0x212 JUMPI PUSH1 0x40 MLOAD PUSH3 0x461BCD PUSH1 0xE5 SHL DUP2 MSTORE PUSH1 0x20 PUSH1 0x4 DUP3 ADD MSTORE PUSH1 0x12 PUSH1 0x24 DUP3 ADD MSTORE PUSH18 0x139BDB98D948185B1C9958591E481D5CD959 PUSH1 0x72 SHL PUSH1 0x44 DUP3 ADD MSTORE PUSH1 0x64 ADD JUMPDEST PUSH1 0x40 MLOAD DUP1 SWAP2 SUB SWAP1 REVERT JUMPDEST PUSH1 0x0 DUP5 DUP2 MSTORE PUSH1 0x3 PUSH1 0x20 MSTORE PUSH1 0x40 DUP1 DUP3 KECCAK256 DUP1 SLOAD PUSH1 0xFF NOT AND PUSH1 0x1 OR SWAP1 SSTORE PUSH1 0x2 SLOAD SWAP1 MLOAD PUSH4 0x6D23EC2B PUSH1 0xE1 SHL DUP2 MSTORE PUSH1 0x4 DUP2 ADD DUP13 SWAP1 MSTORE DUP3 SWAP2 DUP3 SWAP2 PUSH1 0x1 PUSH1 0x1 PUSH1 0xA0 SHL SUB SWAP1 SWAP2 AND SWAP1 PUSH4 0xDA47D856 SWAP1 PUSH1 0x24 ADD PUSH1 0x60 PUSH1 0x40 MLOAD DUP1 DUP4 SUB DUP2 DUP7 GAS STATICCALL ISZERO DUP1 ISZERO PUSH2 0x278 JUMPI RETURNDATASIZE PUSH1 0x0 DUP1 RETURNDATACOPY RETURNDATASIZE PUSH1 0x0 REVERT JUMPDEST POP POP POP POP PUSH1 0x40 MLOAD RETURNDATASIZE PUSH1 0x1F NOT PUSH1 0x1F DUP3 ADD AND DUP3 ADD DUP1 PUSH1 0x40 MSTORE POP DUP2 ADD SWAP1 PUSH2 0x29C SWAP2 SWAP1 PUSH2 0x727 JUMP JUMPDEST SWAP3 POP SWAP3 POP SWAP3 POP DUP1 PUSH2 0x2E4 JUMPI PUSH1 0x40 MLOAD PUSH3 0x461BCD PUSH1 0xE5 SHL DUP2 MSTORE PUSH1 0x20 PUSH1 0x4 DUP3 ADD MSTORE PUSH1 0x12 PUSH1 0x24 DUP3 ADD MSTORE PUSH18 0x53657276696365206E6F7420616374697665 PUSH1 0x70 SHL PUSH1 0x44 DUP3 ADD MSTORE PUSH1 0x64 ADD PUSH2 0x209 JUMP JUMPDEST DUP2 DUP11 LT ISZERO PUSH2 0x32B JUMPI PUSH1 0x40 MLOAD PUSH3 0x461BCD PUSH1 0xE5 SHL DUP2 MSTORE PUSH1 0x20 PUSH1 0x4 DUP3 ADD MSTORE PUSH1 0x14 PUSH1 0x24 DUP3 ADD MSTORE PUSH20 0x125B9CDD59999A58DA595B9D081C185E5B595B9D PUSH1 0x62 SHL PUSH1 0x44 DUP3 ADD MSTORE PUSH1 0x64 ADD PUSH2 0x209 JUMP JUMPDEST PUSH1 0x40 MLOAD PUSH4 0x77AADF63 PUSH1 0xE1 SHL DUP2 MSTORE PUSH1 0x1 PUSH1 0x1 PUSH1 0xA0 SHL SUB DUP13 DUP2 AND PUSH1 0x4 DUP4 ADD MSTORE PUSH32 0x0 DUP2 AND PUSH1 0x24 DUP4 ADD MSTORE PUSH1 0x44 DUP3 ADD DUP13 SWAP1 MSTORE PUSH1 0x64 DUP3 ADD DUP12 SWAP1 MSTORE PUSH1 0x84 DUP3 ADD DUP11 SWAP1 MSTORE PUSH1 0xA4 DUP3 ADD DUP10 SWAP1 MSTORE PUSH1 0xFF DUP9 AND PUSH1 0xC4 DUP4 ADD MSTORE PUSH1 0xE4 DUP3 ADD DUP8 SWAP1 MSTORE PUSH2 0x104 DUP3 ADD DUP7 SWAP1 MSTORE PUSH32 0x0 AND SWAP1 PUSH4 0xEF55BEC6 SWAP1 PUSH2 0x124 ADD PUSH1 0x0 PUSH1 0x40 MLOAD DUP1 DUP4 SUB DUP2 PUSH1 0x0 DUP8 DUP1 EXTCODESIZE ISZERO DUP1 ISZERO PUSH2 0x3EB JUMPI PUSH1 0x0 DUP1 REVERT JUMPDEST POP GAS CALL ISZERO DUP1 ISZERO PUSH2 0x3FF JUMPI RETURNDATASIZE PUSH1 0x0 DUP1 RETURNDATACOPY RETURNDATASIZE PUSH1 0x0 REVERT JUMPDEST POP POP PUSH1 0x40 MLOAD PUSH4 0x745CA77F PUSH1 0xE1 SHL DUP2 MSTORE PUSH1 0x1 PUSH1 0x1 PUSH1 0xA0 SHL SUB DUP7 DUP2 AND PUSH1 0x4 DUP4 ADD MSTORE DUP15 DUP2 AND PUSH1 0x24 DUP4 ADD MSTORE PUSH1 0x44 DUP3 ADD DUP15 SWAP1 MSTORE PUSH32 0x0 AND SWAP3 POP PUSH4 0xE8B94EFE SWAP2 POP PUSH1 0x64 ADD PUSH1 0x0 PUSH1 0x40 MLOAD DUP1 DUP4 SUB DUP2 PUSH1 0x0 DUP8 DUP1 EXTCODESIZE ISZERO DUP1 ISZERO PUSH2 0x475 JUMPI PUSH1 0x0 DUP1 REVERT JUMPDEST POP GAS CALL ISZERO DUP1 ISZERO PUSH2 0x489 JUMPI RETURNDATASIZE PUSH1 0x0 DUP1 RETURNDATACOPY RETURNDATASIZE PUSH1 0x0 REVERT JUMPDEST POP POP POP POP DUP3 PUSH1 0x1 PUSH1 0x1 PUSH1 0xA0 SHL SUB AND DUP12 PUSH1 0x1 PUSH1 0x1 PUSH1 0xA0 SHL SUB AND DUP14 PUSH32 0x78176F5A67D9234E2A7CF31DD41EAFE1B12917AE1DBD099C402C682405A23825 DUP14 DUP12 PUSH1 0x40 MLOAD PUSH2 0x4DC SWAP3 SWAP2 SWAP1 SWAP2 DUP3 MSTORE PUSH1 0x20 DUP3 ADD MSTORE PUSH1 0x40 ADD SWAP1 JUMP JUMPDEST PUSH1 0x40 MLOAD DUP1 SWAP2 SUB SWAP1 LOG4 POP POP POP PUSH2 0x4F0 PUSH1 0x1 DUP1 SSTORE JUMP JUMPDEST POP POP POP POP POP POP POP POP POP JUMP JUMPDEST PUSH2 0x503 PUSH2 0x5AB JUMP JUMPDEST PUSH1 0x1 PUSH1 0x1 PUSH1 0xA0 SHL SUB DUP2 AND PUSH2 0x54B JUMPI PUSH1 0x40 MLOAD PUSH3 0x461BCD PUSH1 0xE5 SHL DUP2 MSTORE PUSH1 0x20 PUSH1 0x4 DUP3 ADD MSTORE PUSH1 0xF PUSH1 0x24 DUP3 ADD MSTORE PUSH15 0x496E76616C69642061646472657373 PUSH1 0x88 SHL PUSH1 0x44 DUP3 ADD MSTORE PUSH1 0x64 ADD PUSH2 0x209 JUMP JUMPDEST PUSH1 0x2 DUP1 SLOAD PUSH1 0x1 PUSH1 0x1 PUSH1 0xA0 SHL SUB NOT AND PUSH1 0x1 PUSH1 0x1 PUSH1 0xA0 SHL SUB SWAP3 SWAP1 SWAP3 AND SWAP2 SWAP1 SWAP2 OR SWAP1 SSTORE JUMP JUMPDEST PUSH2 0x575 PUSH2 0x5AB JUMP JUMPDEST PUSH1 0x1 PUSH1 0x1 PUSH1 0xA0 SHL SUB DUP2 AND PUSH2 0x59F JUMPI PUSH1 0x40 MLOAD PUSH4 0x1E4FBDF7 PUSH1 0xE0 SHL DUP2 MSTORE PUSH1 0x0 PUSH1 0x4 DUP3 ADD MSTORE PUSH1 0x24 ADD PUSH2 0x209 JUMP JUMPDEST PUSH2 0x5A8 DUP2 PUSH2 0x5D8 JUMP JUMPDEST POP JUMP JUMPDEST PUSH1 0x0 SLOAD PUSH1 0x1 PUSH1 0x1 PUSH1 0xA0 SHL SUB AND CALLER EQ PUSH2 0x1AF JUMPI PUSH1 0x40 MLOAD PUSH4 0x118CDAA7 PUSH1 0xE0 SHL DUP2 MSTORE CALLER PUSH1 0x4 DUP3 ADD MSTORE PUSH1 0x24 ADD PUSH2 0x209 JUMP JUMPDEST PUSH1 0x0 DUP1 SLOAD PUSH1 0x1 PUSH1 0x1 PUSH1 0xA0 SHL SUB DUP4 DUP2 AND PUSH1 0x1 PUSH1 0x1 PUSH1 0xA0 SHL SUB NOT DUP4 AND DUP2 OR DUP5 SSTORE PUSH1 0x40 MLOAD SWAP2 SWAP1 SWAP3 AND SWAP3 DUP4 SWAP2 PUSH32 0x8BE0079C531659141344CD1FD0A4F28419497F9722A3DAAFE3B4186F6B6457E0 SWAP2 SWAP1 LOG3 POP POP JUMP JUMPDEST PUSH1 0x2 PUSH1 0x1 SLOAD SUB PUSH2 0x64B JUMPI PUSH1 0x40 MLOAD PUSH4 0x3EE5AEB5 PUSH1 0xE0 SHL DUP2 MSTORE PUSH1 0x4 ADD PUSH1 0x40 MLOAD DUP1 SWAP2 SUB SWAP1 REVERT JUMPDEST PUSH1 0x2 PUSH1 0x1 SSTORE JUMP JUMPDEST PUSH1 0x1 PUSH1 0x1 PUSH1 0xA0 SHL SUB DUP2 AND DUP2 EQ PUSH2 0x5A8 JUMPI PUSH1 0x0 DUP1 REVERT JUMPDEST PUSH1 0x0 DUP1 PUSH1 0x0 DUP1 PUSH1 0x0 DUP1 PUSH1 0x0 DUP1 PUSH1 0x0 PUSH2 0x120 DUP11 DUP13 SUB SLT ISZERO PUSH2 0x686 JUMPI PUSH1 0x0 DUP1 REVERT JUMPDEST DUP10 CALLDATALOAD SWAP9 POP PUSH1 0x20 DUP11 ADD CALLDATALOAD PUSH2 0x698 DUP2 PUSH2 0x652 JUMP JUMPDEST SWAP8 POP PUSH1 0x40 DUP11 ADD CALLDATALOAD SWAP7 POP PUSH1 0x60 DUP11 ADD CALLDATALOAD SWAP6 POP PUSH1 0x80 DUP11 ADD CALLDATALOAD SWAP5 POP PUSH1 0xA0 DUP11 ADD CALLDATALOAD SWAP4 POP PUSH1 0xC0 DUP11 ADD CALLDATALOAD PUSH1 0xFF DUP2 AND DUP2 EQ PUSH2 0x6CA JUMPI PUSH1 0x0 DUP1 REVERT JUMPDEST DUP1 SWAP4 POP POP PUSH1 0xE0 DUP11 ADD CALLDATALOAD SWAP2 POP PUSH2 0x100 DUP11 ADD CALLDATALOAD SWAP1 POP SWAP3 SWAP6 SWAP9 POP SWAP3 SWAP6 SWAP9 POP SWAP3 SWAP6 SWAP9 JUMP JUMPDEST PUSH1 0x0 PUSH1 0x20 DUP3 DUP5 SUB SLT ISZERO PUSH2 0x6FC JUMPI PUSH1 0x0 DUP1 REVERT JUMPDEST DUP2 CALLDATALOAD PUSH2 0x707 DUP2 PUSH2 0x652 JUMP JUMPDEST SWAP4 SWAP3 POP POP POP JUMP JUMPDEST PUSH1 0x0 PUSH1 0x20 DUP3 DUP5 SUB SLT ISZERO PUSH2 0x720 JUMPI PUSH1 0x0 DUP1 REVERT JUMPDEST POP CALLDATALOAD SWAP2 SWAP1 POP JUMP JUMPDEST PUSH1 0x0 DUP1 PUSH1 0x0 PUSH1 0x60 DUP5 DUP7 SUB SLT ISZERO PUSH2 0x73C JUMPI PUSH1 0x0 DUP1 REVERT JUMPDEST DUP4 MLOAD PUSH2 0x747 DUP2 PUSH2 0x652 JUMP JUMPDEST PUSH1 0x20 DUP6 ADD MLOAD PUSH1 0x40 DUP7 ADD MLOAD SWAP2 SWAP5 POP SWAP3 POP DUP1 ISZERO ISZERO DUP2 EQ PUSH2 0x764 JUMPI PUSH1 0x0 DUP1 REVERT JUMPDEST DUP1 SWAP2 POP POP SWAP3 POP SWAP3 POP SWAP3 JUMP INVALID LOG2 PUSH5 0x6970667358 0x22 SLT KECCAK256 MOD SWAP4 0xBE CALLDATACOPY 0xE6 0xC9 0xB0 0x5C POP CALLVALUE PUSH26 0x2A28919FD2DD7FC29130C8137E582587D949CB5B1664736F6C63 NUMBER STOP ADDMOD EQ STOP CALLER "},"methodIdentifiers":{"escrow()":"e2fdcc17","owner()":"8da5cb5b","paymentToken()":"3013ce29","processPayment(bytes32,address,uint256,uint256,uint256,bytes32,uint8,bytes32,bytes32)":"80cdb8ce","renounceOwnership()":"715018a6","serviceRegistry()":"cbcf252a","setServiceRegistry(address)":"d7071b1f","transferOwnership(address)":"f2fde38b","usedNonces(bytes32)":"feb61724"}}}}}