{"contracts/X402ServiceRegistry.sol":{"X402ServiceRegistry":{"abi":[{"inputs":[],"stateMutability":"nonpayable","type":"constructor"},{"inputs":[{"internalType":"address","name":"owner","type":"address"}],"name":"OwnableInvalidOwner","type":"error"},{"inputs":[{"internalType":"address","name":"account","type":"address"}],"name":"OwnableUnauthorizedAccount","type":"error"},{"anonymous":false,"inputs":[{"indexed":true,"internalType":"address","name":"previousOwner","type":"address"},{"indexed":true,"internalType":"address","name":"newOwner","type":"address"}],"name":"OwnershipTransferred","type":"event"},{"anonymous":false,"inputs":[{"indexed":true,"internalType":"bytes32","name":"id","type":"bytes32"}],"name":"ServiceDeactivated","type":"event"},{"anonymous":false,"inputs":[{"indexed":true,"internalType":"bytes32","name":"id","type":"bytes32"}],"name":"ServiceReactivated","type":"event"},{"anonymous":false,"inputs":[{"indexed":true,"internalType":"bytes32","name":"id","type":"bytes32"},{"indexed":true,"internalType":"address","name":"provider","type":"address"},{"indexed":false,"internalType":"uint256","name":"price","type":"uint256"},{"indexed":false,"internalType":"string","name":"name","type":"string"}],"name":"ServiceRegistered","type":"event"},{"anonymous":false,"inputs":[{"indexed":true,"internalType":"bytes32","name":"id","type":"bytes32"},{"indexed":false,"internalType":"uint256","name":"newPrice","type":"uint256"}],"name":"ServiceUpdated","type":"event"},{"inputs":[{"internalType":"uint256","name":"","type":"uint256"}],"name":"allServiceIds","outputs":[{"internalType":"bytes32","name":"","type":"bytes32"}],"stateMutability":"view","type":"function"},{"inputs":[{"internalType":"bytes32","name":"id","type":"bytes32"}],"name":"deactivateService","outputs":[],"stateMutability":"nonpayable","type":"function"},{"inputs":[],"name":"getAllServiceIds","outputs":[{"internalType":"bytes32[]","name":"","type":"bytes32[]"}],"stateMutability":"view","type":"function"},{"inputs":[{"internalType":"address","name":"provider","type":"address"}],"name":"getProviderServices","outputs":[{"internalType":"bytes32[]","name":"","type":"bytes32[]"}],"stateMutability":"view","type":"function"},{"inputs":[{"internalType":"bytes32","name":"id","type":"bytes32"}],"name":"getService","outputs":[{"internalType":"address","name":"provider","type":"address"},{"internalType":"uint256","name":"price","type":"uint256"},{"internalType":"bool","name":"isActive","type":"bool"}],"stateMutability":"view","type":"function"},{"inputs":[],"name":"getServiceCount","outputs":[{"internalType":"uint256","name":"","type":"uint256"}],"stateMutability":"view","type":"function"},{"inputs":[{"internalType":"bytes32","name":"id","type":"bytes32"}],"name":"getServiceInfo","outputs":[{"components":[{"internalType":"bytes32","name":"id","type":"bytes32"},{"internalType":"address","name":"provider","type":"address"},{"internalType":"uint256","name":"price","type":"uint256"},{"internalType":"string","name":"name","type":"string"},{"internalType":"string","name":"endpoint","type":"string"},{"internalType":"bool","name":"isActive","type":"bool"},{"internalType":"uint256","name":"createdAt","type":"uint256"}],"internalType":"struct X402ServiceRegistry.Service","name":"","type":"tuple"}],"stateMutability":"view","type":"function"},{"inputs":[],"name":"owner","outputs":[{"internalType":"address","name":"","type":"address"}],"stateMutability":"view","type":"function"},{"inputs":[{"internalType":"address","name":"","type":"address"},{"internalType":"uint256","name":"","type":"uint256"}],"name":"providerServices","outputs":[{"internalType":"bytes32","name":"","type":"bytes32"}],"stateMutability":"view","type":"function"},{"inputs":[{"internalType":"bytes32","name":"id","type":"bytes32"}],"name":"reactivateService","outputs":[],"stateMutability":"nonpayable","type":"function"},{"inputs":[{"internalType":"bytes32","name":"id","type":"bytes32"},{"internalType":"address","name":"provider","type":"address"},{"internalType":"uint256","name":"price","type":"uint256"},{"internalType":"string","name":"name","type":"string"},{"internalType":"string","name":"endpoint","type":"string"}],"name":"registerService","outputs":[],"stateMutability":"nonpayable","type":"function"},{"inputs":[],"name":"renounceOwnership","outputs":[],"stateMutability":"nonpayable","type":"function"},{"inputs":[{"internalType":"bytes32","name":"","type":"bytes32"}],"name":"services","outputs":[{"internalType":"bytes32","name":"id","type":"bytes32"},{"internalType":"address","name":"provider","type":"address"},{"internalType":"uint256","name":"price","type":"uint256"},{"internalType":"string","name":"name","type":"string"},{"internalType":"string","name":"endpoint","type":"string"},{"internalType":"bool","name":"isActive","type":"bool"},{"internalType":"uint256","name":"createdAt","type":"uint256"}],"stateMutability":"view","type":"function"},{"inputs":[{"internalType":"address","name":"newOwner","type":"address"}],"name":"transferOwnership","outputs":[],"stateMutability":"nonpayable","type":"function"},{"inputs":[{"internalType":"bytes32","name":"id","type":"bytes32"},{"internalType":"uint256","name":"newPrice","type":"uint256"}],"name":"updatePrice","outputs":[],"stateMutability":"nonpayable","type":"function"}],"evm":{"bytecode":{"linkReferences":{},"object":"608060405234801561001057600080fd5b50338061003757604051631e4fbdf760e01b81526000600482015260240160405180910390fd5b61004081610046565b50610096565b600080546001600160a01b038381166001600160a01b0319831681178455604051919092169283917f8be0079c531659141344cd1fd0a4f28419497f9722a3daafe3b4186f6b6457e09190a35050565b611247806100a56000396000f3fe608060405234801561001057600080fd5b50600436106100f55760003560e01c80639747ac5f11610097578063c4007b5611610066578063c4007b56146101f2578063da47d85614610212578063f2fde38b1461024c578063f7262afc1461025f57600080fd5b80639747ac5f14610199578063a94b68ab146101b9578063bd2abf5d146101cc578063beebd682146101df57600080fd5b80635f704f3e116100d35780635f704f3e1461014e5780636d0abe4114610163578063715018a6146101765780638da5cb5b1461017e57600080fd5b806303731b9e146100fa5780630a790eb7146101205780633672404e14610146575b600080fd5b61010d610108366004610d62565b610267565b6040519081526020015b60405180910390f35b61013361012e366004610d8c565b610298565b6040516101179796959493929190610deb565b60035461010d565b61016161015c366004610e41565b6103f2565b005b610161610171366004610d8c565b6104fb565b6101616105b4565b6000546040516001600160a01b039091168152602001610117565b6101ac6101a7366004610e63565b6105c8565b6040516101179190610e85565b6101616101c7366004610f12565b610634565b61010d6101da366004610d8c565b6108fc565b6101616101ed366004610d8c565b61091d565b610205610200366004610d8c565b6109d3565b6040516101179190610fa6565b610225610220366004610d8c565b610bcd565b604080516001600160a01b0390941684526020840192909252151590820152606001610117565b61016161025a366004610e63565b610c33565b6101ac610c71565b6002602052816000526040600020818154811061028357600080fd5b90600052602060002001600091509150505481565b600160208190526000918252604090912080549181015460028201546003830180546001600160a01b039093169391926102d190611029565b80601f01602080910402602001604051908101604052809291908181526020018280546102fd90611029565b801561034a5780601f1061031f5761010080835404028352916020019161034a565b820191906000526020600020905b81548152906001019060200180831161032d57829003601f168201915b50505050509080600401805461035f90611029565b80601f016020809104026020016040519081016040528092919081815260200182805461038b90611029565b80156103d85780601f106103ad576101008083540402835291602001916103d8565b820191906000526020600020905b8154815290600101906020018083116103bb57829003601f168201915b505050506005830154600690930154919260ff1691905087565b6000828152600160208190526040909120908101546001600160a01b03166104355760405162461bcd60e51b815260040161042c90611063565b60405180910390fd5b60018101546001600160a01b031633148061045a57506000546001600160a01b031633145b6104765760405162461bcd60e51b815260040161042c9061108e565b600082116104ba5760405162461bcd60e51b815260206004820152601160248201527005072696365206d757374206265203e203607c1b604482015260640161042c565b6002810182905560405182815283907f91f3032e12ea641981d1a8f1cc09b87bd6bfc5c8a5dd827ac1642ecf8a34d5839060200160405180910390a2505050565b6000818152600160208190526040909120908101546001600160a01b03166105355760405162461bcd60e51b815260040161042c90611063565b60018101546001600160a01b031633148061055a57506000546001600160a01b031633145b6105765760405162461bcd60e51b815260040161042c9061108e565b60058101805460ff1916600117905560405182907fbbc3c8f61b0b6d7bfa530e9d5cd15cee903a103a5060ed848ae78a00825b6e1790600090a25050565b6105bc610cc9565b6105c66000610cf6565b565b6001600160a01b03811660009081526002602090815260409182902080548351818402810184019094528084526060939283018282801561062857602002820191906000526020600020905b815481526020019060010190808311610614575b50505050509050919050565b61063c610cc9565b600087815260016020819052604090912001546001600160a01b0316156106965760405162461bcd60e51b815260206004820152600e60248201526d536572766963652065786973747360901b604482015260640161042c565b6001600160a01b0386166106df5760405162461bcd60e51b815260206004820152601060248201526f24b73b30b634b210383937bb34b232b960811b604482015260640161042c565b600085116107235760405162461bcd60e51b815260206004820152601160248201527005072696365206d757374206265203e203607c1b604482015260640161042c565b6040518060e00160405280888152602001876001600160a01b0316815260200186815260200185858080601f016020809104026020016040519081016040528093929190818152602001838380828437600092019190915250505090825250604080516020601f8601819004810282018101909252848152918101919085908590819084018382808284376000920182905250938552505060016020808501829052426040958601528c845281815292849020855181559285015190830180546001600160a01b0319166001600160a01b03909216919091179055509082015160028201556060820151600382019061081c908261111b565b5060808201516004820190610831908261111b565b5060a082015160058201805460ff191691151591909117905560c0909101516006909101556001600160a01b03861660008181526002602090815260408083208054600181810183559185529284209092018b90556003805492830181559092527fc2575a0e9e593c00f959f8c92f12db2869c3395a3b0502d05e2516446f71f85b018990555188907fda06cb3ba202cfd33a4fd168891cdc4d39d07b5cc5b69984b208cd3fd4bf6bd7906108eb908990899089906111db565b60405180910390a350505050505050565b6003818154811061090c57600080fd5b600091825260209091200154905081565b6000818152600160208190526040909120908101546001600160a01b03166109575760405162461bcd60e51b815260040161042c90611063565b60018101546001600160a01b031633148061097c57506000546001600160a01b031633145b6109985760405162461bcd60e51b815260040161042c9061108e565b60058101805460ff1916905560405182907fcb459e8e5f125c69a7f91d3ed819e639fbc1de69a266eb168473a5cfad4c011d90600090a25050565b6040805160e0810182526000808252602082018190529181018290526060808201819052608082015260a0810182905260c0810191909152600082815260016020819052604090912001546001600160a01b0316610a435760405162461bcd60e51b815260040161042c90611063565b600082815260016020818152604092839020835160e08101855281548152928101546001600160a01b031691830191909152600281015492820192909252600382018054919291606084019190610a9990611029565b80601f0160208091040260200160405190810160405280929190818152602001828054610ac590611029565b8015610b125780601f10610ae757610100808354040283529160200191610b12565b820191906000526020600020905b815481529060010190602001808311610af557829003601f168201915b50505050508152602001600482018054610b2b90611029565b80601f0160208091040260200160405190810160405280929190818152602001828054610b5790611029565b8015610ba45780601f10610b7957610100808354040283529160200191610ba4565b820191906000526020600020905b815481529060010190602001808311610b8757829003601f168201915b5050509183525050600582015460ff161515602082015260069091015460409091015292915050565b6000818152600160208190526040822090810154829182916001600160a01b0316610c0a5760405162461bcd60e51b815260040161042c90611063565b600181015460028201546005909201546001600160a01b039091169691955060ff169350915050565b610c3b610cc9565b6001600160a01b038116610c6557604051631e4fbdf760e01b81526000600482015260240161042c565b610c6e81610cf6565b50565b60606003805480602002602001604051908101604052809291908181526020018280548015610cbf57602002820191906000526020600020905b815481526020019060010190808311610cab575b5050505050905090565b6000546001600160a01b031633146105c65760405163118cdaa760e01b815233600482015260240161042c565b600080546001600160a01b038381166001600160a01b0319831681178455604051919092169283917f8be0079c531659141344cd1fd0a4f28419497f9722a3daafe3b4186f6b6457e09190a35050565b80356001600160a01b0381168114610d5d57600080fd5b919050565b60008060408385031215610d7557600080fd5b610d7e83610d46565b946020939093013593505050565b600060208284031215610d9e57600080fd5b5035919050565b6000815180845260005b81811015610dcb57602081850181015186830182015201610daf565b506000602082860101526020601f19601f83011685010191505092915050565b87815260018060a01b038716602082015285604082015260e060608201526000610e1860e0830187610da5565b8281036080840152610e2a8187610da5565b94151560a0840152505060c0015295945050505050565b60008060408385031215610e5457600080fd5b50508035926020909101359150565b600060208284031215610e7557600080fd5b610e7e82610d46565b9392505050565b6020808252825182820181905260009190848201906040850190845b81811015610ebd57835183529284019291840191600101610ea1565b50909695505050505050565b60008083601f840112610edb57600080fd5b50813567ffffffffffffffff811115610ef357600080fd5b602083019150836020828501011115610f0b57600080fd5b9250929050565b600080600080600080600060a0888a031215610f2d57600080fd5b87359650610f3d60208901610d46565b955060408801359450606088013567ffffffffffffffff80821115610f6157600080fd5b610f6d8b838c01610ec9565b909650945060808a0135915080821115610f8657600080fd5b50610f938a828b01610ec9565b989b979a50959850939692959293505050565b602081528151602082015260018060a01b036020830151166040820152604082015160608201526000606083015160e06080840152610fe9610100840182610da5565b90506080840151601f198483030160a08501526110068282610da5565b91505060a0840151151560c084015260c084015160e08401528091505092915050565b600181811c9082168061103d57607f821691505b60208210810361105d57634e487b7160e01b600052602260045260246000fd5b50919050565b60208082526011908201527014d95c9d9a58d9481b9bdd08199bdd5b99607a1b604082015260600190565b6020808252600e908201526d139bdd08185d5d1a1bdc9a5e995960921b604082015260600190565b634e487b7160e01b600052604160045260246000fd5b601f82111561111657600081815260208120601f850160051c810160208610156110f35750805b601f850160051c820191505b81811015611112578281556001016110ff565b5050505b505050565b815167ffffffffffffffff811115611135576111356110b6565b611149816111438454611029565b846110cc565b602080601f83116001811461117e57600084156111665750858301515b600019600386901b1c1916600185901b178555611112565b600085815260208120601f198616915b828110156111ad5788860151825594840194600190910190840161118e565b50858210156111cb5787850151600019600388901b60f8161c191681555b5050505050600190811b01905550565b83815260406020820152816040820152818360608301376000818301606090810191909152601f909201601f191601019291505056fea26469706673582212207aeb5b20f456746aaa380fc66ac1b36c19ae9622b1173214ab4163b5803b561364736f6c63430008140033","opcodes":"PUSH1 0x80 PUSH1 0x40 MSTORE CALLVALUE DUP1 ISZERO PUSH2 0x10 JUMPI PUSH1 0x0 DUP1 REVERT JUMPDEST POP CALLER DUP1 PUSH2 0x37 JUMPI PUSH1 0x40 MLOAD PUSH4 0x1E4FBDF7 PUSH1 0xE0 SHL DUP2 MSTORE PUSH1 0x0 PUSH1 0x4 DUP3 ADD MSTORE PUSH1 0x24 ADD PUSH1 0x40 MLOAD DUP1 SWAP2 SUB SWAP1 REVERT JUMPDEST PUSH2 0x40 DUP2 PUSH2 0x46 JUMP JUMPDEST POP PUSH2 0x96 JUMP JUMPDEST PUSH1 0x0 DUP1 SLOAD PUSH1 0x1 PUSH1 0x1 PUSH1 0xA0 SHL SUB DUP4 DUP2 AND PUSH1 0x1 PUSH1 0x1 PUSH1 0xA0 SHL SUB NOT DUP4 AND DUP2 OR DUP5 SSTORE PUSH1 0x40 MLOAD SWAP2 SWAP1 SWAP3 AND SWAP3 DUP4 SWAP2 PUSH32 0x8BE0079C531659141344CD1FD0A4F28419497F9722A3DAAFE3B4186F6B6457E0 SWAP2 SWAP1 LOG3 POP POP JUMP JUMPDEST PUSH2 0x1247 DUP1 PUSH2 0xA5 PUSH1 0x0 CODECOPY PUSH1 0x0 RETURN INVALID PUSH1 0x80 PUSH1 0x40 MSTORE CALLVALUE DUP1 ISZERO PUSH2 0x10 JUMPI PUSH1 0x0 DUP1 REVERT JUMPDEST POP PUSH1 0x4 CALLDATASIZE LT PUSH2 0xF5 JUMPI PUSH1 0x0 CALLDATALOAD PUSH1 0xE0 SHR DUP1 PUSH4 0x9747AC5F GT PUSH2 0x97 JUMPI DUP1 PUSH4 0xC4007B56 GT PUSH2 0x66 JUMPI DUP1 PUSH4 0xC4007B56 EQ PUSH2 0x1F2 JUMPI DUP1 PUSH4 0xDA47D856 EQ PUSH2 0x212 JUMPI DUP1 PUSH4 0xF2FDE38B EQ PUSH2 0x24C JUMPI DUP1 PUSH4 0xF7262AFC EQ PUSH2 0x25F JUMPI PUSH1 0x0 DUP1 REVERT JUMPDEST DUP1 PUSH4 0x9747AC5F EQ PUSH2 0x199 JUMPI DUP1 PUSH4 0xA94B68AB EQ PUSH2 0x1B9 JUMPI DUP1 PUSH4 0xBD2ABF5D EQ PUSH2 0x1CC JUMPI DUP1 PUSH4 0xBEEBD682 EQ PUSH2 0x1DF JUMPI PUSH1 0x0 DUP1 REVERT JUMPDEST DUP1 PUSH4 0x5F704F3E GT PUSH2 0xD3 JUMPI DUP1 PUSH4 0x5F704F3E EQ PUSH2 0x14E JUMPI DUP1 PUSH4 0x6D0ABE41 EQ PUSH2 0x163 JUMPI DUP1 PUSH4 0x715018A6 EQ PUSH2 0x176 JUMPI DUP1 PUSH4 0x8DA5CB5B EQ PUSH2 0x17E JUMPI PUSH1 0x0 DUP1 REVERT JUMPDEST DUP1 PUSH4 0x3731B9E EQ PUSH2 0xFA JUMPI DUP1 PUSH4 0xA790EB7 EQ PUSH2 0x120 JUMPI DUP1 PUSH4 0x3672404E EQ PUSH2 0x146 JUMPI JUMPDEST PUSH1 0x0 DUP1 REVERT JUMPDEST PUSH2 0x10D PUSH2 0x108 CALLDATASIZE PUSH1 0x4 PUSH2 0xD62 JUMP JUMPDEST PUSH2 0x267 JUMP JUMPDEST PUSH1 0x40 MLOAD SWAP1 DUP2 MSTORE PUSH1 0x20 ADD JUMPDEST PUSH1 0x40 MLOAD DUP1 SWAP2 SUB SWAP1 RETURN JUMPDEST PUSH2 0x133 PUSH2 0x12E CALLDATASIZE PUSH1 0x4 PUSH2 0xD8C JUMP JUMPDEST PUSH2 0x298 JUMP JUMPDEST PUSH1 0x40 MLOAD PUSH2 0x117 SWAP8 SWAP7 SWAP6 SWAP5 SWAP4 SWAP3 SWAP2 SWAP1 PUSH2 0xDEB JUMP JUMPDEST PUSH1 0x3 SLOAD PUSH2 0x10D JUMP JUMPDEST PUSH2 0x161 PUSH2 0x15C CALLDATASIZE PUSH1 0x4 PUSH2 0xE41 JUMP JUMPDEST PUSH2 0x3F2 JUMP JUMPDEST STOP JUMPDEST PUSH2 0x161 PUSH2 0x171 CALLDATASIZE PUSH1 0x4 PUSH2 0xD8C JUMP JUMPDEST PUSH2 0x4FB JUMP JUMPDEST PUSH2 0x161 PUSH2 0x5B4 JUMP JUMPDEST PUSH1 0x0 SLOAD PUSH1 0x40 MLOAD PUSH1 0x1 PUSH1 0x1 PUSH1 0xA0 SHL SUB SWAP1 SWAP2 AND DUP2 MSTORE PUSH1 0x20 ADD PUSH2 0x117 JUMP JUMPDEST PUSH2 0x1AC PUSH2 0x1A7 CALLDATASIZE PUSH1 0x4 PUSH2 0xE63 JUMP JUMPDEST PUSH2 0x5C8 JUMP JUMPDEST PUSH1 0x40 MLOAD PUSH2 0x117 SWAP2 SWAP1 PUSH2 0xE85 JUMP JUMPDEST PUSH2 0x161 PUSH2 0x1C7 CALLDATASIZE PUSH1 0x4 PUSH2 0xF12 JUMP JUMPDEST PUSH2 0x634 JUMP JUMPDEST PUSH2 0x10D PUSH2 0x1DA CALLDATASIZE PUSH1 0x4 PUSH2 0xD8C JUMP JUMPDEST PUSH2 0x8FC JUMP JUMPDEST PUSH2 0x161 PUSH2 0x1ED CALLDATASIZE PUSH1 0x4 PUSH2 0xD8C JUMP JUMPDEST PUSH2 0x91D JUMP JUMPDEST PUSH2 0x205 PUSH2 0x200 CALLDATASIZE PUSH1 0x4 PUSH2 0xD8C JUMP JUMPDEST PUSH2 0x9D3 JUMP JUMPDEST PUSH1 0x40 MLOAD PUSH2 0x117 SWAP2 SWAP1 PUSH2 0xFA6 JUMP JUMPDEST PUSH2 0x225 PUSH2 0x220 CALLDATASIZE PUSH1 0x4 PUSH2 0xD8C JUMP JUMPDEST PUSH2 0xBCD JUMP JUMPDEST PUSH1 0x40 DUP1 MLOAD PUSH1 0x1 PUSH1 0x1 PUSH1 0xA0 SHL SUB SWAP1 SWAP5 AND DUP5 MSTORE PUSH1 0x20 DUP5 ADD SWAP3 SWAP1 SWAP3 MSTORE ISZERO ISZERO SWAP1 DUP3 ADD MSTORE PUSH1 0x60 ADD PUSH2 0x117 JUMP JUMPDEST PUSH2 0x161 PUSH2 0x25A CALLDATASIZE PUSH1 0x4 PUSH2 0xE63 JUMP JUMPDEST PUSH2 0xC33 JUMP JUMPDEST PUSH2 0x1AC PUSH2 0xC71 JUMP JUMPDEST PUSH1 0x2 PUSH1 0x20 MSTORE DUP2 PUSH1 0x0 MSTORE PUSH1 0x40 PUSH1 0x0 KECCAK256 DUP2 DUP2 SLOAD DUP2 LT PUSH2 0x283 JUMPI PUSH1 0x0 DUP1 REVERT JUMPDEST SWAP1 PUSH1 0x0 MSTORE PUSH1 0x20 PUSH1 0x0 KECCAK256 ADD PUSH1 0x0 SWAP2 POP SWAP2 POP POP SLOAD DUP2 JUMP JUMPDEST PUSH1 0x1 PUSH1 0x20 DUP2 SWAP1 MSTORE PUSH1 0x0 SWAP2 DUP3 MSTORE PUSH1 0x40 SWAP1 SWAP2 KECCAK256 DUP1 SLOAD SWAP2 DUP2 ADD SLOAD PUSH1 0x2 DUP3 ADD SLOAD PUSH1 0x3 DUP4 ADD DUP1 SLOAD PUSH1 0x1 PUSH1 0x1 PUSH1 0xA0 SHL SUB SWAP1 SWAP4 AND SWAP4 SWAP2 SWAP3 PUSH2 0x2D1 SWAP1 PUSH2 0x1029 JUMP JUMPDEST DUP1 PUSH1 0x1F ADD PUSH1 0x20 DUP1 SWAP2 DIV MUL PUSH1 0x20 ADD PUSH1 0x40 MLOAD SWAP1 DUP2 ADD PUSH1 0x40 MSTORE DUP1 SWAP3 SWAP2 SWAP1 DUP2 DUP2 MSTORE PUSH1 0x20 ADD DUP3 DUP1 SLOAD PUSH2 0x2FD SWAP1 PUSH2 0x1029 JUMP JUMPDEST DUP1 ISZERO PUSH2 0x34A JUMPI DUP1 PUSH1 0x1F LT PUSH2 0x31F JUMPI PUSH2 0x100 DUP1 DUP4 SLOAD DIV MUL DUP4 MSTORE SWAP2 PUSH1 0x20 ADD SWAP2 PUSH2 0x34A JUMP JUMPDEST DUP3 ADD SWAP2 SWAP1 PUSH1 0x0 MSTORE PUSH1 0x20 PUSH1 0x0 KECCAK256 SWAP1 JUMPDEST DUP2 SLOAD DUP2 MSTORE SWAP1 PUSH1 0x1 ADD SWAP1 PUSH1 0x20 ADD DUP1 DUP4 GT PUSH2 0x32D JUMPI DUP3 SWAP1 SUB PUSH1 0x1F AND DUP3 ADD SWAP2 JUMPDEST POP POP POP POP POP SWAP1 DUP1 PUSH1 0x4 ADD DUP1 SLOAD PUSH2 0x35F SWAP1 PUSH2 0x1029 JUMP JUMPDEST DUP1 PUSH1 0x1F ADD PUSH1 0x20 DUP1 SWAP2 DIV MUL PUSH1 0x20 ADD PUSH1 0x40 MLOAD SWAP1 DUP2 ADD PUSH1 0x40 MSTORE DUP1 SWAP3 SWAP2 SWAP1 DUP2 DUP2 MSTORE PUSH1 0x20 ADD DUP3 DUP1 SLOAD PUSH2 0x38B SWAP1 PUSH2 0x1029 JUMP JUMPDEST DUP1 ISZERO PUSH2 0x3D8 JUMPI DUP1 PUSH1 0x1F LT PUSH2 0x3AD JUMPI PUSH2 0x100 DUP1 DUP4 SLOAD DIV MUL DUP4 MSTORE SWAP2 PUSH1 0x20 ADD SWAP2 PUSH2 0x3D8 JUMP JUMPDEST DUP3 ADD SWAP2 SWAP1 PUSH1 0x0 MSTORE PUSH1 0x20 PUSH1 0x0 KECCAK256 SWAP1 JUMPDEST DUP2 SLOAD DUP2 MSTORE SWAP1 PUSH1 0x1 ADD SWAP1 PUSH1 0x20 ADD DUP1 DUP4 GT PUSH2 0x3BB JUMPI DUP3 SWAP1 SUB PUSH1 0x1F AND DUP3 ADD SWAP2 JUMPDEST POP POP POP POP PUSH1 0x5 DUP4 ADD SLOAD PUSH1 0x6 SWAP1 SWAP4 ADD SLOAD SWAP2 SWAP3 PUSH1 0xFF AND SWAP2 SWAP1 POP DUP8 JUMP JUMPDEST PUSH1 0x0 DUP3 DUP2 MSTORE PUSH1 0x1 PUSH1 0x20 DUP2 SWAP1 MSTORE PUSH1 0x40 SWAP1 SWAP2 KECCAK256 SWAP1 DUP2 ADD SLOAD PUSH1 0x1 PUSH1 0x1 PUSH1 0xA0 SHL SUB AND PUSH2 0x435 JUMPI PUSH1 0x40 MLOAD PUSH3 0x461BCD PUSH1 0xE5 SHL DUP2 MSTORE PUSH1 0x4 ADD PUSH2 0x42C SWAP1 PUSH2 0x1063 JUMP JUMPDEST PUSH1 0x40 MLOAD DUP1 SWAP2 SUB SWAP1 REVERT JUMPDEST PUSH1 0x1 DUP2 ADD SLOAD PUSH1 0x1 PUSH1 0x1 PUSH1 0xA0 SHL SUB AND CALLER EQ DUP1 PUSH2 0x45A JUMPI POP PUSH1 0x0 SLOAD PUSH1 0x1 PUSH1 0x1 PUSH1 0xA0 SHL SUB AND CALLER EQ JUMPDEST PUSH2 0x476 JUMPI PUSH1 0x40 MLOAD PUSH3 0x461BCD PUSH1 0xE5 SHL DUP2 MSTORE PUSH1 0x4 ADD PUSH2 0x42C SWAP1 PUSH2 0x108E JUMP JUMPDEST PUSH1 0x0 DUP3 GT PUSH2 0x4BA JUMPI PUSH1 0x40 MLOAD PUSH3 0x461BCD PUSH1 0xE5 SHL DUP2 MSTORE PUSH1 0x20 PUSH1 0x4 DUP3 ADD MSTORE PUSH1 0x11 PUSH1 0x24 DUP3 ADD MSTORE PUSH17 0x5072696365206D757374206265203E203 PUSH1 0x7C SHL PUSH1 0x44 DUP3 ADD MSTORE PUSH1 0x64 ADD PUSH2 0x42C JUMP JUMPDEST PUSH1 0x2 DUP2 ADD DUP3 SWAP1 SSTORE PUSH1 0x40 MLOAD DUP3 DUP2 MSTORE DUP4 SWAP1 PUSH32 0x91F3032E12EA641981D1A8F1CC09B87BD6BFC5C8A5DD827AC1642ECF8A34D583 SWAP1 PUSH1 0x20 ADD PUSH1 0x40 MLOAD DUP1 SWAP2 SUB SWAP1 LOG2 POP POP POP JUMP JUMPDEST PUSH1 0x0 DUP2 DUP2 MSTORE PUSH1 0x1 PUSH1 0x20 DUP2 SWAP1 MSTORE PUSH1 0x40 SWAP1 SWAP2 KECCAK256 SWAP1 DUP2 ADD SLOAD PUSH1 0x1 PUSH1 0x1 PUSH1 0xA0 SHL SUB AND PUSH2 0x535 JUMPI PUSH1 0x40 MLOAD PUSH3 0x461BCD PUSH1 0xE5 SHL DUP2 MSTORE PUSH1 0x4 ADD PUSH2 0x42C SWAP1 PUSH2 0x1063 JUMP JUMPDEST PUSH1 0x1 DUP2 ADD SLOAD PUSH1 0x1 PUSH1 0x1 PUSH1 0xA0 SHL SUB AND CALLER EQ DUP1 PUSH2 0x55A JUMPI POP PUSH1 0x0 SLOAD PUSH1 0x1 PUSH1 0x1 PUSH1 0xA0 SHL SUB AND CALLER EQ JUMPDEST PUSH2 0x576 JUMPI PUSH1 0x40 MLOAD PUSH3 0x461BCD PUSH1 0xE5 SHL DUP2 MSTORE PUSH1 0x4 ADD PUSH2 0x42C SWAP1 PUSH2 0x108E JUMP JUMPDEST PUSH1 0x5 DUP2 ADD DUP1 SLOAD PUSH1 0xFF NOT AND PUSH1 0x1 OR SWAP1 SSTORE PUSH1 0x40 MLOAD DUP3 SWAP1 PUSH32 0xBBC3C8F61B0B6D7BFA530E9D5CD15CEE903A103A5060ED848AE78A00825B6E17 SWAP1 PUSH1 0x0 SWAP1 LOG2 POP POP JUMP JUMPDEST PUSH2 0x5BC PUSH2 0xCC9 JUMP JUMPDEST PUSH2 0x5C6 PUSH1 0x0 PUSH2 0xCF6 JUMP JUMPDEST JUMP JUMPDEST PUSH1 0x1 PUSH1 0x1 PUSH1 0xA0 SHL SUB DUP2 AND PUSH1 0x0 SWAP1 DUP2 MSTORE PUSH1 0x2 PUSH1 0x20 SWAP1 DUP2 MSTORE PUSH1 0x40 SWAP2 DUP3 SWAP1 KECCAK256 DUP1 SLOAD DUP4 MLOAD DUP2 DUP5 MUL DUP2 ADD DUP5 ADD SWAP1 SWAP5 MSTORE DUP1 DUP5 MSTORE PUSH1 0x60 SWAP4 SWAP3 DUP4 ADD DUP3 DUP3 DUP1 ISZERO PUSH2 0x628 JUMPI PUSH1 0x20 MUL DUP3 ADD SWAP2 SWAP1 PUSH1 0x0 MSTORE PUSH1 0x20 PUSH1 0x0 KECCAK256 SWAP1 JUMPDEST DUP2 SLOAD DUP2 MSTORE PUSH1 0x20 ADD SWAP1 PUSH1 0x1 ADD SWAP1 DUP1 DUP4 GT PUSH2 0x614 JUMPI JUMPDEST POP POP POP POP POP SWAP1 POP SWAP2 SWAP1 POP JUMP JUMPDEST PUSH2 0x63C PUSH2 0xCC9 JUMP JUMPDEST PUSH1 0x0 DUP8 DUP2 MSTORE PUSH1 0x1 PUSH1 0x20 DUP2 SWAP1 MSTORE PUSH1 0x40 SWAP1 SWAP2 KECCAK256 ADD SLOAD PUSH1 0x1 PUSH1 0x1 PUSH1 0xA0 SHL SUB AND ISZERO PUSH2 0x696 JUMPI PUSH1 0x40 MLOAD PUSH3 0x461BCD PUSH1 0xE5 SHL DUP2 MSTORE PUSH1 0x20 PUSH1 0x4 DUP3 ADD MSTORE PUSH1 0xE PUSH1 0x24 DUP3 ADD MSTORE PUSH14 0x5365727669636520657869737473 PUSH1 0x90 SHL PUSH1 0x44 DUP3 ADD MSTORE PUSH1 0x64 ADD PUSH2 0x42C JUMP JUMPDEST PUSH1 0x1 PUSH1 0x1 PUSH1 0xA0 SHL SUB DUP7 AND PUSH2 0x6DF JUMPI PUSH1 0x40 MLOAD PUSH3 0x461BCD PUSH1 0xE5 SHL DUP2 MSTORE PUSH1 0x20 PUSH1 0x4 DUP3 ADD MSTORE PUSH1 0x10 PUSH1 0x24 DUP3 ADD MSTORE PUSH16 0x24B73B30B634B210383937BB34B232B9 PUSH1 0x81 SHL PUSH1 0x44 DUP3 ADD MSTORE PUSH1 0x64 ADD PUSH2 0x42C JUMP JUMPDEST PUSH1 0x0 DUP6 GT PUSH2 0x723 JUMPI PUSH1 0x40 MLOAD PUSH3 0x461BCD PUSH1 0xE5 SHL DUP2 MSTORE PUSH1 0x20 PUSH1 0x4 DUP3 ADD MSTORE PUSH1 0x11 PUSH1 0x24 DUP3 ADD MSTORE PUSH17 0x5072696365206D757374206265203E203 PUSH1 0x7C SHL PUSH1 0x44 DUP3 ADD MSTORE PUSH1 0x64 ADD PUSH2 0x42C JUMP JUMPDEST PUSH1 0x40 MLOAD DUP1 PUSH1 0xE0 ADD PUSH1 0x40 MSTORE DUP1 DUP9 DUP2 MSTORE PUSH1 0x20 ADD DUP8 PUSH1 0x1 PUSH1 0x1 PUSH1 0xA0 SHL SUB AND DUP2 MSTORE PUSH1 0x20 ADD DUP7 DUP2 MSTORE PUSH1 0x20 ADD DUP6 DUP6 DUP1 DUP1 PUSH1 0x1F ADD PUSH1 0x20 DUP1 SWAP2 DIV MUL PUSH1 0x20 ADD PUSH1 0x40 MLOAD SWAP1 DUP2 ADD PUSH1 0x40 MSTORE DUP1 SWAP4 SWAP3 SWAP2 SWAP1 DUP2 DUP2 MSTORE PUSH1 0x20 ADD DUP4 DUP4 DUP1 DUP3 DUP5 CALLDATACOPY PUSH1 0x0 SWAP3 ADD SWAP2 SWAP1 SWAP2 MSTORE POP POP POP SWAP1 DUP3 MSTORE POP PUSH1 0x40 DUP1 MLOAD PUSH1 0x20 PUSH1 0x1F DUP7 ADD DUP2 SWAP1 DIV DUP2 MUL DUP3 ADD DUP2 ADD SWAP1 SWAP3 MSTORE DUP5 DUP2 MSTORE SWAP2 DUP2 ADD SWAP2 SWAP1 DUP6 SWAP1 DUP6 SWAP1 DUP2 SWAP1 DUP5 ADD DUP4 DUP3 DUP1 DUP3 DUP5 CALLDATACOPY PUSH1 0x0 SWAP3 ADD DUP3 SWAP1 MSTORE POP SWAP4 DUP6 MSTORE POP POP PUSH1 0x1 PUSH1 0x20 DUP1 DUP6 ADD DUP3 SWAP1 MSTORE TIMESTAMP PUSH1 0x40 SWAP6 DUP7 ADD MSTORE DUP13 DUP5 MSTORE DUP2 DUP2 MSTORE SWAP3 DUP5 SWAP1 KECCAK256 DUP6 MLOAD DUP2 SSTORE SWAP3 DUP6 ADD MLOAD SWAP1 DUP4 ADD DUP1 SLOAD PUSH1 0x1 PUSH1 0x1 PUSH1 0xA0 SHL SUB NOT AND PUSH1 0x1 PUSH1 0x1 PUSH1 0xA0 SHL SUB SWAP1 SWAP3 AND SWAP2 SWAP1 SWAP2 OR SWAP1 SSTORE POP SWAP1 DUP3 ADD MLOAD PUSH1 0x2 DUP3 ADD SSTORE PUSH1 0x60 DUP3 ADD MLOAD PUSH1 0x3 DUP3 ADD SWAP1 PUSH2 0x81C SWAP1 DUP3 PUSH2 0x111B JUMP JUMPDEST POP PUSH1 0x80 DUP3 ADD MLOAD PUSH1 0x4 DUP3 ADD SWAP1 PUSH2 0x831 SWAP1 DUP3 PUSH2 0x111B JUMP JUMPDEST POP PUSH1 0xA0 DUP3 ADD MLOAD PUSH1 0x5 DUP3 ADD DUP1 SLOAD PUSH1 0xFF NOT AND SWAP2 ISZERO ISZERO SWAP2 SWAP1 SWAP2 OR SWAP1 SSTORE PUSH1 0xC0 SWAP1 SWAP2 ADD MLOAD PUSH1 0x6 SWAP1 SWAP2 ADD SSTORE PUSH1 0x1 PUSH1 0x1 PUSH1 0xA0 SHL SUB DUP7 AND PUSH1 0x0 DUP2 DUP2 MSTORE PUSH1 0x2 PUSH1 0x20 SWAP1 DUP2 MSTORE PUSH1 0x40 DUP1 DUP4 KECCAK256 DUP1 SLOAD PUSH1 0x1 DUP2 DUP2 ADD DUP4 SSTORE SWAP2 DUP6 MSTORE SWAP3 DUP5 KECCAK256 SWAP1 SWAP3 ADD DUP12 SWAP1 SSTORE PUSH1 0x3 DUP1 SLOAD SWAP3 DUP4 ADD DUP2 SSTORE SWAP1 SWAP3 MSTORE PUSH32 0xC2575A0E9E593C00F959F8C92F12DB2869C3395A3B0502D05E2516446F71F85B ADD DUP10 SWAP1 SSTORE MLOAD DUP9 SWAP1 PUSH32 0xDA06CB3BA202CFD33A4FD168891CDC4D39D07B5CC5B69984B208CD3FD4BF6BD7 SWAP1 PUSH2 0x8EB SWAP1 DUP10 SWAP1 DUP10 SWAP1 DUP10 SWAP1 PUSH2 0x11DB JUMP JUMPDEST PUSH1 0x40 MLOAD DUP1 SWAP2 SUB SWAP1 LOG3 POP POP POP POP POP POP POP JUMP JUMPDEST PUSH1 0x3 DUP2 DUP2 SLOAD DUP2 LT PUSH2 0x90C JUMPI PUSH1 0x0 DUP1 REVERT JUMPDEST PUSH1 0x0 SWAP2 DUP3 MSTORE PUSH1 0x20 SWAP1 SWAP2 KECCAK256 ADD SLOAD SWAP1 POP DUP2 JUMP JUMPDEST PUSH1 0x0 DUP2 DUP2 MSTORE PUSH1 0x1 PUSH1 0x20 DUP2 SWAP1 MSTORE PUSH1 0x40 SWAP1 SWAP2 KECCAK256 SWAP1 DUP2 ADD SLOAD PUSH1 0x1 PUSH1 0x1 PUSH1 0xA0 SHL SUB AND PUSH2 0x957 JUMPI PUSH1 0x40 MLOAD PUSH3 0x461BCD PUSH1 0xE5 SHL DUP2 MSTORE PUSH1 0x4 ADD PUSH2 0x42C SWAP1 PUSH2 0x1063 JUMP JUMPDEST PUSH1 0x1 DUP2 ADD SLOAD PUSH1 0x1 PUSH1 0x1 PUSH1 0xA0 SHL SUB AND CALLER EQ DUP1 PUSH2 0x97C JUMPI POP PUSH1 0x0 SLOAD PUSH1 0x1 PUSH1 0x1 PUSH1 0xA0 SHL SUB AND CALLER EQ JUMPDEST PUSH2 0x998 JUMPI PUSH1 0x40 MLOAD PUSH3 0x461BCD PUSH1 0xE5 SHL DUP2 MSTORE PUSH1 0x4 ADD PUSH2 0x42C SWAP1 PUSH2 0x108E JUMP JUMPDEST PUSH1 0x5 DUP2 ADD DUP1 SLOAD PUSH1 0xFF NOT AND SWAP1 SSTORE PUSH1 0x40 MLOAD DUP3 SWAP1 PUSH32 0xCB459E8E5F125C69A7F91D3ED819E639FBC1DE69A266EB168473A5CFAD4C011D SWAP1 PUSH1 0x0 SWAP1 LOG2 POP POP JUMP JUMPDEST PUSH1 0x40 DUP1 MLOAD PUSH1 0xE0 DUP2 ADD DUP3 MSTORE PUSH1 0x0 DUP1 DUP3 MSTORE PUSH1 0x20 DUP3 ADD DUP2 SWAP1 MSTORE SWAP2 DUP2 ADD DUP3 SWAP1 MSTORE PUSH1 0x60 DUP1 DUP3 ADD DUP2 SWAP1 MSTORE PUSH1 0x80 DUP3 ADD MSTORE PUSH1 0xA0 DUP2 ADD DUP3 SWAP1 MSTORE PUSH1 0xC0 DUP2 ADD SWAP2 SWAP1 SWAP2 MSTORE PUSH1 0x0 DUP3 DUP2 MSTORE PUSH1 0x1 PUSH1 0x20 DUP2 SWAP1 MSTORE PUSH1 0x40 SWAP1 SWAP2 KECCAK256 ADD SLOAD PUSH1 0x1 PUSH1 0x1 PUSH1 0xA0 SHL SUB AND PUSH2 0xA43 JUMPI PUSH1 0x40 MLOAD PUSH3 0x461BCD PUSH1 0xE5 SHL DUP2 MSTORE PUSH1 0x4 ADD PUSH2 0x42C SWAP1 PUSH2 0x1063 JUMP JUMPDEST PUSH1 0x0 DUP3 DUP2 MSTORE PUSH1 0x1 PUSH1 0x20 DUP2 DUP2 MSTORE PUSH1 0x40 SWAP3 DUP4 SWAP1 KECCAK256 DUP4 MLOAD PUSH1 0xE0 DUP2 ADD DUP6 MSTORE DUP2 SLOAD DUP2 MSTORE SWAP3 DUP2 ADD SLOAD PUSH1 0x1 PUSH1 0x1 PUSH1 0xA0 SHL SUB AND SWAP2 DUP4 ADD SWAP2 SWAP1 SWAP2 MSTORE PUSH1 0x2 DUP2 ADD SLOAD SWAP3 DUP3 ADD SWAP3 SWAP1 SWAP3 MSTORE PUSH1 0x3 DUP3 ADD DUP1 SLOAD SWAP2 SWAP3 SWAP2 PUSH1 0x60 DUP5 ADD SWAP2 SWAP1 PUSH2 0xA99 SWAP1 PUSH2 0x1029 JUMP JUMPDEST DUP1 PUSH1 0x1F ADD PUSH1 0x20 DUP1 SWAP2 DIV MUL PUSH1 0x20 ADD PUSH1 0x40 MLOAD SWAP1 DUP2 ADD PUSH1 0x40 MSTORE DUP1 SWAP3 SWAP2 SWAP1 DUP2 DUP2 MSTORE PUSH1 0x20 ADD DUP3 DUP1 SLOAD PUSH2 0xAC5 SWAP1 PUSH2 0x1029 JUMP JUMPDEST DUP1 ISZERO PUSH2 0xB12 JUMPI DUP1 PUSH1 0x1F LT PUSH2 0xAE7 JUMPI PUSH2 0x100 DUP1 DUP4 SLOAD DIV MUL DUP4 MSTORE SWAP2 PUSH1 0x20 ADD SWAP2 PUSH2 0xB12 JUMP JUMPDEST DUP3 ADD SWAP2 SWAP1 PUSH1 0x0 MSTORE PUSH1 0x20 PUSH1 0x0 KECCAK256 SWAP1 JUMPDEST DUP2 SLOAD DUP2 MSTORE SWAP1 PUSH1 0x1 ADD SWAP1 PUSH1 0x20 ADD DUP1 DUP4 GT PUSH2 0xAF5 JUMPI DUP3 SWAP1 SUB PUSH1 0x1F AND DUP3 ADD SWAP2 JUMPDEST POP POP POP POP POP DUP2 MSTORE PUSH1 0x20 ADD PUSH1 0x4 DUP3 ADD DUP1 SLOAD PUSH2 0xB2B SWAP1 PUSH2 0x1029 JUMP JUMPDEST DUP1 PUSH1 0x1F ADD PUSH1 0x20 DUP1 SWAP2 DIV MUL PUSH1 0x20 ADD PUSH1 0x40 MLOAD SWAP1 DUP2 ADD PUSH1 0x40 MSTORE DUP1 SWAP3 SWAP2 SWAP1 DUP2 DUP2 MSTORE PUSH1 0x20 ADD DUP3 DUP1 SLOAD PUSH2 0xB57 SWAP1 PUSH2 0x1029 JUMP JUMPDEST DUP1 ISZERO PUSH2 0xBA4 JUMPI DUP1 PUSH1 0x1F LT PUSH2 0xB79 JUMPI PUSH2 0x100 DUP1 DUP4 SLOAD DIV MUL DUP4 MSTORE SWAP2 PUSH1 0x20 ADD SWAP2 PUSH2 0xBA4 JUMP JUMPDEST DUP3 ADD SWAP2 SWAP1 PUSH1 0x0 MSTORE PUSH1 0x20 PUSH1 0x0 KECCAK256 SWAP1 JUMPDEST DUP2 SLOAD DUP2 MSTORE SWAP1 PUSH1 0x1 ADD SWAP1 PUSH1 0x20 ADD DUP1 DUP4 GT PUSH2 0xB87 JUMPI DUP3 SWAP1 SUB PUSH1 0x1F AND DUP3 ADD SWAP2 JUMPDEST POP POP POP SWAP2 DUP4 MSTORE POP POP PUSH1 0x5 DUP3 ADD SLOAD PUSH1 0xFF AND ISZERO ISZERO PUSH1 0x20 DUP3 ADD MSTORE PUSH1 0x6 SWAP1 SWAP2 ADD SLOAD PUSH1 0x40 SWAP1 SWAP2 ADD MSTORE SWAP3 SWAP2 POP POP JUMP JUMPDEST PUSH1 0x0 DUP2 DUP2 MSTORE PUSH1 0x1 PUSH1 0x20 DUP2 SWAP1 MSTORE PUSH1 0x40 DUP3 KECCAK256 SWAP1 DUP2 ADD SLOAD DUP3 SWAP2 DUP3 SWAP2 PUSH1 0x1 PUSH1 0x1 PUSH1 0xA0 SHL SUB AND PUSH2 0xC0A JUMPI PUSH1 0x40 MLOAD PUSH3 0x461BCD PUSH1 0xE5 SHL DUP2 MSTORE PUSH1 0x4 ADD PUSH2 0x42C SWAP1 PUSH2 0x1063 JUMP JUMPDEST PUSH1 0x1 DUP2 ADD SLOAD PUSH1 0x2 DUP3 ADD SLOAD PUSH1 0x5 SWAP1 SWAP3 ADD SLOAD PUSH1 0x1 PUSH1 0x1 PUSH1 0xA0 SHL SUB SWAP1 SWAP2 AND SWAP7 SWAP2 SWAP6 POP PUSH1 0xFF AND SWAP4 POP SWAP2 POP POP JUMP JUMPDEST PUSH2 0xC3B PUSH2 0xCC9 JUMP JUMPDEST PUSH1 0x1 PUSH1 0x1 PUSH1 0xA0 SHL SUB DUP2 AND PUSH2 0xC65 JUMPI PUSH1 0x40 MLOAD PUSH4 0x1E4FBDF7 PUSH1 0xE0 SHL DUP2 MSTORE PUSH1 0x0 PUSH1 0x4 DUP3 ADD MSTORE PUSH1 0x24 ADD PUSH2 0x42C JUMP JUMPDEST PUSH2 0xC6E DUP2 PUSH2 0xCF6 JUMP JUMPDEST POP JUMP JUMPDEST PUSH1 0x60 PUSH1 0x3 DUP1 SLOAD DUP1 PUSH1 0x20 MUL PUSH1 0x20 ADD PUSH1 0x40 MLOAD SWAP1 DUP2 ADD PUSH1 0x40 MSTORE DUP1 SWAP3 SWAP2 SWAP1 DUP2 DUP2 MSTORE PUSH1 0x20 ADD DUP3 DUP1 SLOAD DUP1 ISZERO PUSH2 0xCBF JUMPI PUSH1 0x20 MUL DUP3 ADD SWAP2 SWAP1 PUSH1 0x0 MSTORE PUSH1 0x20 PUSH1 0x0 KECCAK256 SWAP1 JUMPDEST DUP2 SLOAD DUP2 MSTORE PUSH1 0x20 ADD SWAP1 PUSH1 0x1 ADD SWAP1 DUP1 DUP4 GT PUSH2 0xCAB JUMPI JUMPDEST POP POP POP POP POP SWAP1 POP SWAP1 JUMP JUMPDEST PUSH1 0x0 SLOAD PUSH1 0x1 PUSH1 0x1 PUSH1 0xA0 SHL SUB AND CALLER EQ PUSH2 0x5C6 JUMPI PUSH1 0x40 MLOAD PUSH4 0x118CDAA7 PUSH1 0xE0 SHL DUP2 MSTORE CALLER PUSH1 0x4 DUP3 ADD MSTORE PUSH1 0x24 ADD PUSH2 0x42C JUMP JUMPDEST PUSH1 0x0 DUP1 SLOAD PUSH1 0x1 PUSH1 0x1 PUSH1 0xA0 SHL SUB DUP4 DUP2 AND PUSH1 0x1 PUSH1 0x1 PUSH1 0xA0 SHL SUB NOT DUP4 AND DUP2 OR DUP5 SSTORE PUSH1 0x40 MLOAD SWAP2 SWAP1 SWAP3 AND SWAP3 DUP4 SWAP2 PUSH32 0x8BE0079C531659141344CD1FD0A4F28419497F9722A3DAAFE3B4186F6B6457E0 SWAP2 SWAP1 LOG3 POP POP JUMP JUMPDEST DUP1 CALLDATALOAD PUSH1 0x1 PUSH1 0x1 PUSH1 0xA0 SHL SUB DUP2 AND DUP2 EQ PUSH2 0xD5D JUMPI PUSH1 0x0 DUP1 REVERT JUMPDEST SWAP2 SWAP1 POP JUMP JUMPDEST PUSH1 0x0 DUP1 PUSH1 0x40 DUP4 DUP6 SUB SLT ISZERO PUSH2 0xD75 JUMPI PUSH1 0x0 DUP1 REVERT JUMPDEST PUSH2 0xD7E DUP4 PUSH2 0xD46 JUMP JUMPDEST SWAP5 PUSH1 0x20 SWAP4 SWAP1 SWAP4 ADD CALLDATALOAD SWAP4 POP POP POP JUMP JUMPDEST PUSH1 0x0 PUSH1 0x20 DUP3 DUP5 SUB SLT ISZERO PUSH2 0xD9E JUMPI PUSH1 0x0 DUP1 REVERT JUMPDEST POP CALLDATALOAD SWAP2 SWAP1 POP JUMP JUMPDEST PUSH1 0x0 DUP2 MLOAD DUP1 DUP5 MSTORE PUSH1 0x0 JUMPDEST DUP2 DUP2 LT ISZERO PUSH2 0xDCB JUMPI PUSH1 0x20 DUP2 DUP6 ADD DUP2 ADD MLOAD DUP7 DUP4 ADD DUP3 ADD MSTORE ADD PUSH2 0xDAF JUMP JUMPDEST POP PUSH1 0x0 PUSH1 0x20 DUP3 DUP7 ADD ADD MSTORE PUSH1 0x20 PUSH1 0x1F NOT PUSH1 0x1F DUP4 ADD AND DUP6 ADD ADD SWAP2 POP POP SWAP3 SWAP2 POP POP JUMP JUMPDEST DUP8 DUP2 MSTORE PUSH1 0x1 DUP1 PUSH1 0xA0 SHL SUB DUP8 AND PUSH1 0x20 DUP3 ADD MSTORE DUP6 PUSH1 0x40 DUP3 ADD MSTORE PUSH1 0xE0 PUSH1 0x60 DUP3 ADD MSTORE PUSH1 0x0 PUSH2 0xE18 PUSH1 0xE0 DUP4 ADD DUP8 PUSH2 0xDA5 JUMP JUMPDEST DUP3 DUP2 SUB PUSH1 0x80 DUP5 ADD MSTORE PUSH2 0xE2A DUP2 DUP8 PUSH2 0xDA5 JUMP JUMPDEST SWAP5 ISZERO ISZERO PUSH1 0xA0 DUP5 ADD MSTORE POP POP PUSH1 0xC0 ADD MSTORE SWAP6 SWAP5 POP POP POP POP POP JUMP JUMPDEST PUSH1 0x0 DUP1 PUSH1 0x40 DUP4 DUP6 SUB SLT ISZERO PUSH2 0xE54 JUMPI PUSH1 0x0 DUP1 REVERT JUMPDEST POP POP DUP1 CALLDATALOAD SWAP3 PUSH1 0x20 SWAP1 SWAP2 ADD CALLDATALOAD SWAP2 POP JUMP JUMPDEST PUSH1 0x0 PUSH1 0x20 DUP3 DUP5 SUB SLT ISZERO PUSH2 0xE75 JUMPI PUSH1 0x0 DUP1 REVERT JUMPDEST PUSH2 0xE7E DUP3 PUSH2 0xD46 JUMP JUMPDEST SWAP4 SWAP3 POP POP POP JUMP JUMPDEST PUSH1 0x20 DUP1 DUP3 MSTORE DUP3 MLOAD DUP3 DUP3 ADD DUP2 SWAP1 MSTORE PUSH1 0x0 SWAP2 SWAP1 DUP5 DUP3 ADD SWAP1 PUSH1 0x40 DUP6 ADD SWAP1 DUP5 JUMPDEST DUP2 DUP2 LT ISZERO PUSH2 0xEBD JUMPI DUP4 MLOAD DUP4 MSTORE SWAP3 DUP5 ADD SWAP3 SWAP2 DUP5 ADD SWAP2 PUSH1 0x1 ADD PUSH2 0xEA1 JUMP JUMPDEST POP SWAP1 SWAP7 SWAP6 POP POP POP POP POP POP JUMP JUMPDEST PUSH1 0x0 DUP1 DUP4 PUSH1 0x1F DUP5 ADD SLT PUSH2 0xEDB JUMPI PUSH1 0x0 DUP1 REVERT JUMPDEST POP DUP2 CALLDATALOAD PUSH8 0xFFFFFFFFFFFFFFFF DUP2 GT ISZERO PUSH2 0xEF3 JUMPI PUSH1 0x0 DUP1 REVERT JUMPDEST PUSH1 0x20 DUP4 ADD SWAP2 POP DUP4 PUSH1 0x20 DUP3 DUP6 ADD ADD GT ISZERO PUSH2 0xF0B JUMPI PUSH1 0x0 DUP1 REVERT JUMPDEST SWAP3 POP SWAP3 SWAP1 POP JUMP JUMPDEST PUSH1 0x0 DUP1 PUSH1 0x0 DUP1 PUSH1 0x0 DUP1 PUSH1 0x0 PUSH1 0xA0 DUP9 DUP11 SUB SLT ISZERO PUSH2 0xF2D JUMPI PUSH1 0x0 DUP1 REVERT JUMPDEST DUP8 CALLDATALOAD SWAP7 POP PUSH2 0xF3D PUSH1 0x20 DUP10 ADD PUSH2 0xD46 JUMP JUMPDEST SWAP6 POP PUSH1 0x40 DUP9 ADD CALLDATALOAD SWAP5 POP PUSH1 0x60 DUP9 ADD CALLDATALOAD PUSH8 0xFFFFFFFFFFFFFFFF DUP1 DUP3 GT ISZERO PUSH2 0xF61 JUMPI PUSH1 0x0 DUP1 REVERT JUMPDEST PUSH2 0xF6D DUP12 DUP4 DUP13 ADD PUSH2 0xEC9 JUMP JUMPDEST SWAP1 SWAP7 POP SWAP5 POP PUSH1 0x80 DUP11 ADD CALLDATALOAD SWAP2 POP DUP1 DUP3 GT ISZERO PUSH2 0xF86 JUMPI PUSH1 0x0 DUP1 REVERT JUMPDEST POP PUSH2 0xF93 DUP11 DUP3 DUP12 ADD PUSH2 0xEC9 JUMP JUMPDEST SWAP9 SWAP12 SWAP8 SWAP11 POP SWAP6 SWAP9 POP SWAP4 SWAP7 SWAP3 SWAP6 SWAP3 SWAP4 POP POP POP JUMP JUMPDEST PUSH1 0x20 DUP2 MSTORE DUP2 MLOAD PUSH1 0x20 DUP3 ADD MSTORE PUSH1 0x1 DUP1 PUSH1 0xA0 SHL SUB PUSH1 0x20 DUP4 ADD MLOAD AND PUSH1 0x40 DUP3 ADD MSTORE PUSH1 0x40 DUP3 ADD MLOAD PUSH1 0x60 DUP3 ADD MSTORE PUSH1 0x0 PUSH1 0x60 DUP4 ADD MLOAD PUSH1 0xE0 PUSH1 0x80 DUP5 ADD MSTORE PUSH2 0xFE9 PUSH2 0x100 DUP5 ADD DUP3 PUSH2 0xDA5 JUMP JUMPDEST SWAP1 POP PUSH1 0x80 DUP5 ADD MLOAD PUSH1 0x1F NOT DUP5 DUP4 SUB ADD PUSH1 0xA0 DUP6 ADD MSTORE PUSH2 0x1006 DUP3 DUP3 PUSH2 0xDA5 JUMP JUMPDEST SWAP2 POP POP PUSH1 0xA0 DUP5 ADD MLOAD ISZERO ISZERO PUSH1 0xC0 DUP5 ADD MSTORE PUSH1 0xC0 DUP5 ADD MLOAD PUSH1 0xE0 DUP5 ADD MSTORE DUP1 SWAP2 POP POP SWAP3 SWAP2 POP POP JUMP JUMPDEST PUSH1 0x1 DUP2 DUP2 SHR SWAP1 DUP3 AND DUP1 PUSH2 0x103D JUMPI PUSH1 0x7F DUP3 AND SWAP2 POP JUMPDEST PUSH1 0x20 DUP3 LT DUP2 SUB PUSH2 0x105D JUMPI PUSH4 0x4E487B71 PUSH1 0xE0 SHL PUSH1 0x0 MSTORE PUSH1 0x22 PUSH1 0x4 MSTORE PUSH1 0x24 PUSH1 0x0 REVERT JUMPDEST POP SWAP2 SWAP1 POP JUMP JUMPDEST PUSH1 0x20 DUP1 DUP3 MSTORE PUSH1 0x11 SWAP1 DUP3 ADD MSTORE PUSH17 0x14D95C9D9A58D9481B9BDD08199BDD5B99 PUSH1 0x7A SHL PUSH1 0x40 DUP3 ADD MSTORE PUSH1 0x60 ADD SWAP1 JUMP JUMPDEST PUSH1 0x20 DUP1 DUP3 MSTORE PUSH1 0xE SWAP1 DUP3 ADD MSTORE PUSH14 0x139BDD08185D5D1A1BDC9A5E9959 PUSH1 0x92 SHL PUSH1 0x40 DUP3 ADD MSTORE PUSH1 0x60 ADD SWAP1 JUMP JUMPDEST PUSH4 0x4E487B71 PUSH1 0xE0 SHL PUSH1 0x0 MSTORE PUSH1 0x41 PUSH1 0x4 MSTORE PUSH1 0x24 PUSH1 0x0 REVERT JUMPDEST PUSH1 0x1F DUP3 GT ISZERO PUSH2 0x1116 JUMPI PUSH1 0x0 DUP2 DUP2 MSTORE PUSH1 0x20 DUP2 KECCAK256 PUSH1 0x1F DUP6 ADD PUSH1 0x5 SHR DUP2 ADD PUSH1 0x20 DUP7 LT ISZERO PUSH2 0x10F3 JUMPI POP DUP1 JUMPDEST PUSH1 0x1F DUP6 ADD PUSH1 0x5 SHR DUP3 ADD SWAP2 POP JUMPDEST DUP2 DUP2 LT ISZERO PUSH2 0x1112 JUMPI DUP3 DUP2 SSTORE PUSH1 0x1 ADD PUSH2 0x10FF JUMP JUMPDEST POP POP POP JUMPDEST POP POP POP JUMP JUMPDEST DUP2 MLOAD PUSH8 0xFFFFFFFFFFFFFFFF DUP2 GT ISZERO PUSH2 0x1135 JUMPI PUSH2 0x1135 PUSH2 0x10B6 JUMP JUMPDEST PUSH2 0x1149 DUP2 PUSH2 0x1143 DUP5 SLOAD PUSH2 0x1029 JUMP JUMPDEST DUP5 PUSH2 0x10CC JUMP JUMPDEST PUSH1 0x20 DUP1 PUSH1 0x1F DUP4 GT PUSH1 0x1 DUP2 EQ PUSH2 0x117E JUMPI PUSH1 0x0 DUP5 ISZERO PUSH2 0x1166 JUMPI POP DUP6 DUP4 ADD MLOAD JUMPDEST PUSH1 0x0 NOT PUSH1 0x3 DUP7 SWAP1 SHL SHR NOT AND PUSH1 0x1 DUP6 SWAP1 SHL OR DUP6 SSTORE PUSH2 0x1112 JUMP JUMPDEST PUSH1 0x0 DUP6 DUP2 MSTORE PUSH1 0x20 DUP2 KECCAK256 PUSH1 0x1F NOT DUP7 AND SWAP2 JUMPDEST DUP3 DUP2 LT ISZERO PUSH2 0x11AD JUMPI DUP9 DUP7 ADD MLOAD DUP3 SSTORE SWAP5 DUP5 ADD SWAP5 PUSH1 0x1 SWAP1 SWAP2 ADD SWAP1 DUP5 ADD PUSH2 0x118E JUMP JUMPDEST POP DUP6 DUP3 LT ISZERO PUSH2 0x11CB JUMPI DUP8 DUP6 ADD MLOAD PUSH1 0x0 NOT PUSH1 0x3 DUP9 SWAP1 SHL PUSH1 0xF8 AND SHR NOT AND DUP2 SSTORE JUMPDEST POP POP POP POP POP PUSH1 0x1 SWAP1 DUP2 SHL ADD SWAP1 SSTORE POP JUMP JUMPDEST DUP4 DUP2 MSTORE PUSH1 0x40 PUSH1 0x20 DUP3 ADD MSTORE DUP2 PUSH1 0x40 DUP3 ADD MSTORE DUP2 DUP4 PUSH1 0x60 DUP4 ADD CALLDATACOPY PUSH1 0x0 DUP2 DUP4 ADD PUSH1 0x60 SWAP1 DUP2 ADD SWAP2 SWAP1 SWAP2 MSTORE PUSH1 0x1F SWAP1 SWAP3 ADD PUSH1 0x1F NOT AND ADD ADD SWAP3 SWAP2 POP POP JUMP INVALID LOG2 PUSH5 0x6970667358 0x22 SLT KECCAK256 PUSH27 0xEB5B20F456746AAA380FC66AC1B36C19AE9622B1173214AB4163B5 DUP1 EXTCODESIZE JUMP SGT PUSH5 0x736F6C6343 STOP ADDMOD EQ STOP CALLER "},"methodIdentifiers":{"allServiceIds(uint256)":"bd2abf5d","deactivateService(bytes32)":"beebd682","getAllServiceIds()":"f7262afc","getProviderServices(address)":"9747ac5f","getService(bytes32)":"da47d856","getServiceCount()":"3672404e","getServiceInfo(bytes32)":"c4007b56","owner()":"8da5cb5b","providerServices(address,uint256)":"03731b9e","reactivateService(bytes32)":"6d0abe41","registerService(bytes32,address,uint256,string,string)":"a94b68ab","renounceOwnership()":"715018a6","services(bytes32)":"0a790eb7","transferOwnership(address)":"f2fde38b","updatePrice(bytes32,uint256)":"5f704f3e"}}}}}