{
  "_format": "hh-sol-artifact-1",
  "contractName": "X402ServiceRegistry",
  "sourceName": "contracts/X402ServiceRegistry.sol",
  "abi": [
    {
      "inputs": [],
      "stateMutability": "nonpayable",
      "type": "constructor"
    },
    {
      "inputs": [
        {
          "internalType": "address",
          "name": "owner",
          "type": "address"
        }
      ],
      "name": "OwnableInvalidOwner",
      "type": "error"
    },
    {
      "inputs": [
        {
          "internalType": "address",
          "name": "account",
          "type": "address"
        }
      ],
      "name": "OwnableUnauthorizedAccount",
      "type": "error"
    },
    {
      "anonymous": false,
      "inputs": [
        {
          "indexed": true,
          "internalType": "address",
          "name": "previousOwner",
          "type": "address"
        },
        {
          "indexed": true,
          "internalType": "address",
          "name": "newOwner",
          "type": "address"
        }
      ],
      "name": "OwnershipTransferred",
      "type": "event"
    },
    {
      "anonymous": false,
      "inputs": [
        {
          "indexed": true,
          "internalType": "bytes32",
          "name": "id",
          "type": "bytes32"
        }
      ],
      "name": "ServiceDeactivated",
      "type": "event"
    },
    {
      "anonymous": false,
      "inputs": [
        {
          "indexed": true,
          "internalType": "bytes32",
          "name": "id",
          "type": "bytes32"
        }
      ],
      "name": "ServiceReactivated",
      "type": "event"
    },
    {
      "anonymous": false,
      "inputs": [
        {
          "indexed": true,
          "internalType": "bytes32",
          "name": "id",
          "type": "bytes32"
        },
        {
          "indexed": true,
          "internalType": "address",
          "name": "provider",
          "type": "address"
        },
        {
          "indexed": false,
          "internalType": "uint256",
          "name": "price",
          "type": "uint256"
        },
        {
          "indexed": false,
          "internalType": "string",
          "name": "name",
          "type": "string"
        }
      ],
      "name": "ServiceRegistered",
      "type": "event"
    },
    {
      "anonymous": false,
      "inputs": [
        {
          "indexed": true,
          "internalType": "bytes32",
          "name": "id",
          "type": "bytes32"
        },
        {
          "indexed": false,
          "internalType": "uint256",
          "name": "newPrice",
          "type": "uint256"
        }
      ],
      "name": "ServiceUpdated",
      "type": "event"
    },
    {
      "inputs": [
        {
          "internalType": "uint256",
          "name": "",
          "type": "uint256"
        }
      ],
      "name": "allServiceIds",
      "outputs": [
        {
          "internalType": "bytes32",
          "name": "",
          "type": "bytes32"
        }
      ],
      "stateMutability": "view",
      "type": "function"
    },
    {
      "inputs": [
        {
          "internalType": "bytes32",
          "name": "id",
          "type": "bytes32"
        }
      ],
      "name": "deactivateService",
      "outputs": [],
      "stateMutability": "nonpayable",
      "type": "function"
    },
    {
      "inputs": [],
      "name": "getAllServiceIds",
      "outputs": [
        {
          "internalType": "bytes32[]",
          "name": "",
          "type": "bytes32[]"
        }
      ],
      "stateMutability": "view",
      "type": "function"
    },
    {
      "inputs": [
        {
          "internalType": "address",
          "name": "provider",
          "type": "address"
        }
      ],
      "name": "getProviderServices",
      "outputs": [
        {
          "internalType": "bytes32[]",
          "name": "",
          "type": "bytes32[]"
        }
      ],
      "stateMutability": "view",
      "type": "function"
    },
    {
      "inputs": [
        {
          "internalType": "bytes32",
          "name": "id",
          "type": "bytes32"
        }
      ],
      "name": "getService",
      "outputs": [
        {
          "internalType": "address",
          "name": "provider",
          "type": "address"
        },
        {
          "internalType": "uint256",
          "name": "price",
          "type": "uint256"
        },
        {
          "internalType": "bool",
          "name": "isActive",
          "type": "bool"
        }
      ],
      "stateMutability": "view",
      "type": "function"
    },
    {
      "inputs": [],
      "name": "getServiceCount",
      "outputs": [
        {
          "internalType": "uint256",
          "name": "",
          "type": "uint256"
        }
      ],
      "stateMutability": "view",
      "type": "function"
    },
    {
      "inputs": [
        {
          "internalType": "bytes32",
          "name": "id",
          "type": "bytes32"
        }
      ],
      "name": "getServiceInfo",
      "outputs": [
        {
          "components": [
            {
              "internalType": "bytes32",
              "name": "id",
              "type": "bytes32"
            },
            {
              "internalType": "address",
              "name": "provider",
              "type": "address"
            },
            {
              "internalType": "uint256",
              "name": "price",
              "type": "uint256"
            },
            {
              "internalType": "string",
              "name": "name",
              "type": "string"
            },
            {
              "internalType": "string",
              "name": "endpoint",
              "type": "string"
            },
            {
              "internalType": "bool",
              "name": "isActive",
              "type": "bool"
            },
            {
              "internalType": "uint256",
              "name": "createdAt",
              "type": "uint256"
            }
          ],
          "internalType": "struct X402ServiceRegistry.Service",
          "name": "",
          "type": "tuple"
        }
      ],
      "stateMutability": "view",
      "type": "function"
    },
    {
      "inputs": [],
      "name": "owner",
      "outputs": [
        {
          "internalType": "address",
          "name": "",
          "type": "address"
        }
      ],
      "stateMutability": "view",
      "type": "function"
    },
    {
      "inputs": [
        {
          "internalType": "address",
          "name": "",
          "type": "address"
        },
        {
          "internalType": "uint256",
          "name": "",
          "type": "uint256"
        }
      ],
      "name": "providerServices",
      "outputs": [
        {
          "internalType": "bytes32",
          "name": "",
          "type": "bytes32"
        }
      ],
      "stateMutability": "view",
      "type": "function"
    },
    {
      "inputs": [
        {
          "internalType": "bytes32",
          "name": "id",
          "type": "bytes32"
        }
      ],
      "name": "reactivateService",
      "outputs": [],
      "stateMutability": "nonpayable",
      "type": "function"
    },
    {
      "inputs": [
        {
          "internalType": "bytes32",
          "name": "id",
          "type": "bytes32"
        },
        {
          "internalType": "address",
          "name": "provider",
          "type": "address"
        },
        {
          "internalType": "uint256",
          "name": "price",
          "type": "uint256"
        },
        {
          "internalType": "string",
          "name": "name",
          "type": "string"
        },
        {
          "internalType": "string",
          "name": "endpoint",
          "type": "string"
        }
      ],
      "name": "registerService",
      "outputs": [],
      "stateMutability": "nonpayable",
      "type": "function"
    },
    {
      "inputs": [],
      "name": "renounceOwnership",
      "outputs": [],
      "stateMutability": "nonpayable",
      "type": "function"
    },
    {
      "inputs": [
        {
          "internalType": "bytes32",
          "name": "",
          "type": "bytes32"
        }
      ],
      "name": "services",
      "outputs": [
        {
          "internalType": "bytes32",
          "name": "id",
          "type": "bytes32"
        },
        {
          "internalType": "address",
          "name": "provider",
          "type": "address"
        },
        {
          "internalType": "uint256",
          "name": "price",
          "type": "uint256"
        },
        {
          "internalType": "string",
          "name": "name",
          "type": "string"
        },
        {
          "internalType": "string",
          "name": "endpoint",
          "type": "string"
        },
        {
          "internalType": "bool",
          "name": "isActive",
          "type": "bool"
        },
        {
          "internalType": "uint256",
          "name": "createdAt",
          "type": "uint256"
        }
      ],
      "stateMutability": "view",
      "type": "function"
    },
    {
      "inputs": [
        {
          "internalType": "address",
          "name": "newOwner",
          "type": "address"
        }
      ],
      "name": "transferOwnership",
      "outputs": [],
      "stateMutability": "nonpayable",
      "type": "function"
    },
    {
      "inputs": [
        {
          "internalType": "bytes32",
          "name": "id",
          "type": "bytes32"
        },
        {
          "internalType": "uint256",
          "name": "newPrice",
          "type": "uint256"
        }
      ],
      "name": "updatePrice",
      "outputs": [],
      "stateMutability": "nonpayable",
      "type": "function"
    }
  ],
  "bytecode": "0x608060405234801561001057600080fd5b50338061003757604051631e4fbdf760e01b81526000600482015260240160405180910390fd5b61004081610046565b50610096565b600080546001600160a01b038381166001600160a01b0319831681178455604051919092169283917f8be0079c531659141344cd1fd0a4f28419497f9722a3daafe3b4186f6b6457e09190a35050565b611247806100a56000396000f3fe608060405234801561001057600080fd5b50600436106100f55760003560e01c80639747ac5f11610097578063c4007b5611610066578063c4007b56146101f2578063da47d85614610212578063f2fde38b1461024c578063f7262afc1461025f57600080fd5b80639747ac5f14610199578063a94b68ab146101b9578063bd2abf5d146101cc578063beebd682146101df57600080fd5b80635f704f3e116100d35780635f704f3e1461014e5780636d0abe4114610163578063715018a6146101765780638da5cb5b1461017e57600080fd5b806303731b9e146100fa5780630a790eb7146101205780633672404e14610146575b600080fd5b61010d610108366004610d62565b610267565b6040519081526020015b60405180910390f35b61013361012e366004610d8c565b610298565b6040516101179796959493929190610deb565b60035461010d565b61016161015c366004610e41565b6103f2565b005b610161610171366004610d8c565b6104fb565b6101616105b4565b6000546040516001600160a01b039091168152602001610117565b6101ac6101a7366004610e63565b6105c8565b6040516101179190610e85565b6101616101c7366004610f12565b610634565b61010d6101da366004610d8c565b6108fc565b6101616101ed366004610d8c565b61091d565b610205610200366004610d8c565b6109d3565b6040516101179190610fa6565b610225610220366004610d8c565b610bcd565b604080516001600160a01b0390941684526020840192909252151590820152606001610117565b61016161025a366004610e63565b610c33565b6101ac610c71565b6002602052816000526040600020818154811061028357600080fd5b90600052602060002001600091509150505481565b600160208190526000918252604090912080549181015460028201546003830180546001600160a01b039093169391926102d190611029565b80601f01602080910402602001604051908101604052809291908181526020018280546102fd90611029565b801561034a5780601f1061031f5761010080835404028352916020019161034a565b820191906000526020600020905b81548152906001019060200180831161032d57829003601f168201915b50505050509080600401805461035f90611029565b80601f016020809104026020016040519081016040528092919081815260200182805461038b90611029565b80156103d85780601f106103ad576101008083540402835291602001916103d8565b820191906000526020600020905b8154815290600101906020018083116103bb57829003601f168201915b505050506005830154600690930154919260ff1691905087565b6000828152600160208190526040909120908101546001600160a01b03166104355760405162461bcd60e51b815260040161042c90611063565b60405180910390fd5b60018101546001600160a01b031633148061045a57506000546001600160a01b031633145b6104765760405162461bcd60e51b815260040161042c9061108e565b600082116104ba5760405162461bcd60e51b815260206004820152601160248201527005072696365206d757374206265203e203607c1b604482015260640161042c565b6002810182905560405182815283907f91f3032e12ea641981d1a8f1cc09b87bd6bfc5c8a5dd827ac1642ecf8a34d5839060200160405180910390a2505050565b6000818152600160208190526040909120908101546001600160a01b03166105355760405162461bcd60e51b815260040161042c90611063565b60018101546001600160a01b031633148061055a57506000546001600160a01b031633145b6105765760405162461bcd60e51b815260040161042c9061108e565b60058101805460ff1916600117905560405182907fbbc3c8f61b0b6d7bfa530e9d5cd15cee903a103a5060ed848ae78a00825b6e1790600090a25050565b6105bc610cc9565b6105c66000610cf6565b565b6001600160a01b03811660009081526002602090815260409182902080548351818402810184019094528084526060939283018282801561062857602002820191906000526020600020905b815481526020019060010190808311610614575b50505050509050919050565b61063c610cc9565b600087815260016020819052604090912001546001600160a01b0316156106965760405162461bcd60e51b815260206004820152600e60248201526d536572766963652065786973747360901b604482015260640161042c565b6001600160a01b0386166106df5760405162461bcd60e51b815260206004820152601060248201526f24b73b30b634b210383937bb34b232b960811b604482015260640161042c565b600085116107235760405162461bcd60e51b815260206004820152601160248201527005072696365206d757374206265203e203607c1b604482015260640161042c565b6040518060e00160405280888152602001876001600160a01b0316815260200186815260200185858080601f016020809104026020016040519081016040528093929190818152602001838380828437600092019190915250505090825250604080516020601f8601819004810282018101909252848152918101919085908590819084018382808284376000920182905250938552505060016020808501829052426040958601528c845281815292849020855181559285015190830180546001600160a01b0319166001600160a01b03909216919091179055509082015160028201556060820151600382019061081c908261111b565b5060808201516004820190610831908261111b565b5060a082015160058201805460ff191691151591909117905560c0909101516006909101556001600160a01b03861660008181526002602090815260408083208054600181810183559185529284209092018b90556003805492830181559092527fc2575a0e9e593c00f959f8c92f12db2869c3395a3b0502d05e2516446f71f85b018990555188907fda06cb3ba202cfd33a4fd168891cdc4d39d07b5cc5b69984b208cd3fd4bf6bd7906108eb908990899089906111db565b60405180910390a350505050505050565b6003818154811061090c57600080fd5b600091825260209091200154905081565b6000818152600160208190526040909120908101546001600160a01b03166109575760405162461bcd60e51b815260040161042c90611063565b60018101546001600160a01b031633148061097c57506000546001600160a01b031633145b6109985760405162461bcd60e51b815260040161042c9061108e565b60058101805460ff1916905560405182907fcb459e8e5f125c69a7f91d3ed819e639fbc1de69a266eb168473a5cfad4c011d90600090a25050565b6040805160e0810182526000808252602082018190529181018290526060808201819052608082015260a0810182905260c0810191909152600082815260016020819052604090912001546001600160a01b0316610a435760405162461bcd60e51b815260040161042c90611063565b600082815260016020818152604092839020835160e08101855281548152928101546001600160a01b031691830191909152600281015492820192909252600382018054919291606084019190610a9990611029565b80601f0160208091040260200160405190810160405280929190818152602001828054610ac590611029565b8015610b125780601f10610ae757610100808354040283529160200191610b12565b820191906000526020600020905b815481529060010190602001808311610af557829003601f168201915b50505050508152602001600482018054610b2b90611029565b80601f0160208091040260200160405190810160405280929190818152602001828054610b5790611029565b8015610ba45780601f10610b7957610100808354040283529160200191610ba4565b820191906000526020600020905b815481529060010190602001808311610b8757829003601f168201915b5050509183525050600582015460ff161515602082015260069091015460409091015292915050565b6000818152600160208190526040822090810154829182916001600160a01b0316610c0a5760405162461bcd60e51b815260040161042c90611063565b600181015460028201546005909201546001600160a01b039091169691955060ff169350915050565b610c3b610cc9565b6001600160a01b038116610c6557604051631e4fbdf760e01b81526000600482015260240161042c565b610c6e81610cf6565b50565b60606003805480602002602001604051908101604052809291908181526020018280548015610cbf57602002820191906000526020600020905b815481526020019060010190808311610cab575b5050505050905090565b6000546001600160a01b031633146105c65760405163118cdaa760e01b815233600482015260240161042c565b600080546001600160a01b038381166001600160a01b0319831681178455604051919092169283917f8be0079c531659141344cd1fd0a4f28419497f9722a3daafe3b4186f6b6457e09190a35050565b80356001600160a01b0381168114610d5d57600080fd5b919050565b60008060408385031215610d7557600080fd5b610d7e83610d46565b946020939093013593505050565b600060208284031215610d9e57600080fd5b5035919050565b6000815180845260005b81811015610dcb57602081850181015186830182015201610daf565b506000602082860101526020601f19601f83011685010191505092915050565b87815260018060a01b038716602082015285604082015260e060608201526000610e1860e0830187610da5565b8281036080840152610e2a8187610da5565b94151560a0840152505060c0015295945050505050565b60008060408385031215610e5457600080fd5b50508035926020909101359150565b600060208284031215610e7557600080fd5b610e7e82610d46565b9392505050565b6020808252825182820181905260009190848201906040850190845b81811015610ebd57835183529284019291840191600101610ea1565b50909695505050505050565b60008083601f840112610edb57600080fd5b50813567ffffffffffffffff811115610ef357600080fd5b602083019150836020828501011115610f0b57600080fd5b9250929050565b600080600080600080600060a0888a031215610f2d57600080fd5b87359650610f3d60208901610d46565b955060408801359450606088013567ffffffffffffffff80821115610f6157600080fd5b610f6d8b838c01610ec9565b909650945060808a0135915080821115610f8657600080fd5b50610f938a828b01610ec9565b989b979a50959850939692959293505050565b602081528151602082015260018060a01b036020830151166040820152604082015160608201526000606083015160e06080840152610fe9610100840182610da5565b90506080840151601f198483030160a08501526110068282610da5565b91505060a0840151151560c084015260c084015160e08401528091505092915050565b600181811c9082168061103d57607f821691505b60208210810361105d57634e487b7160e01b600052602260045260246000fd5b50919050565b60208082526011908201527014d95c9d9a58d9481b9bdd08199bdd5b99607a1b604082015260600190565b6020808252600e908201526d139bdd08185d5d1a1bdc9a5e995960921b604082015260600190565b634e487b7160e01b600052604160045260246000fd5b601f82111561111657600081815260208120601f850160051c810160208610156110f35750805b601f850160051c820191505b81811015611112578281556001016110ff565b5050505b505050565b815167ffffffffffffffff811115611135576111356110b6565b611149816111438454611029565b846110cc565b602080601f83116001811461117e57600084156111665750858301515b600019600386901b1c1916600185901b178555611112565b600085815260208120601f198616915b828110156111ad5788860151825594840194600190910190840161118e565b50858210156111cb5787850151600019600388901b60f8161c191681555b5050505050600190811b01905550565b83815260406020820152816040820152818360608301376000818301606090810191909152601f909201601f191601019291505056fea26469706673582212207aeb5b20f456746aaa380fc66ac1b36c19ae9622b1173214ab4163b5803b561364736f6c63430008140033",
  "linkReferences": {},
  "deployedLinkReferences": {}
}