{
  "_format": "hh-sol-artifact-1",
  "contractName": "X402Escrow",
  "sourceName": "contracts/X402Escrow.sol",
  "abi": [
    {
      "inputs": [
        {
          "internalType": "address",
          "name": "_paymentToken",
          "type": "address"
        },
        {
          "internalType": "address",
          "name": "_platformTreasury",
          "type": "address"
        },
        {
          "internalType": "address",
          "name": "_relayer",
          "type": "address"
        }
      ],
      "stateMutability": "nonpayable",
      "type": "constructor"
    },
    {
      "inputs": [
        {
          "internalType": "address",
          "name": "owner",
          "type": "address"
        }
      ],
      "name": "OwnableInvalidOwner",
      "type": "error"
    },
    {
      "inputs": [
        {
          "internalType": "address",
          "name": "account",
          "type": "address"
        }
      ],
      "name": "OwnableUnauthorizedAccount",
      "type": "error"
    },
    {
      "inputs": [],
      "name": "ReentrancyGuardReentrantCall",
      "type": "error"
    },
    {
      "anonymous": false,
      "inputs": [
        {
          "indexed": true,
          "internalType": "address",
          "name": "provider",
          "type": "address"
        },
        {
          "indexed": false,
          "internalType": "uint256",
          "name": "amount",
          "type": "uint256"
        }
      ],
      "name": "Claimed",
      "type": "event"
    },
    {
      "anonymous": false,
      "inputs": [
        {
          "indexed": true,
          "internalType": "address",
          "name": "previousOwner",
          "type": "address"
        },
        {
          "indexed": true,
          "internalType": "address",
          "name": "newOwner",
          "type": "address"
        }
      ],
      "name": "OwnershipTransferred",
      "type": "event"
    },
    {
      "anonymous": false,
      "inputs": [
        {
          "indexed": true,
          "internalType": "address",
          "name": "provider",
          "type": "address"
        },
        {
          "indexed": true,
          "internalType": "address",
          "name": "payer",
          "type": "address"
        },
        {
          "indexed": false,
          "internalType": "uint256",
          "name": "amount",
          "type": "uint256"
        },
        {
          "indexed": false,
          "internalType": "uint256",
          "name": "platformFee",
          "type": "uint256"
        },
        {
          "indexed": false,
          "internalType": "uint256",
          "name": "providerShare",
          "type": "uint256"
        }
      ],
      "name": "PaymentReceived",
      "type": "event"
    },
    {
      "anonymous": false,
      "inputs": [
        {
          "indexed": false,
          "internalType": "uint256",
          "name": "newFee",
          "type": "uint256"
        }
      ],
      "name": "PlatformFeeUpdated",
      "type": "event"
    },
    {
      "anonymous": false,
      "inputs": [
        {
          "indexed": false,
          "internalType": "address",
          "name": "newTreasury",
          "type": "address"
        }
      ],
      "name": "TreasuryUpdated",
      "type": "event"
    },
    {
      "inputs": [],
      "name": "claim",
      "outputs": [],
      "stateMutability": "nonpayable",
      "type": "function"
    },
    {
      "inputs": [
        {
          "internalType": "address",
          "name": "provider",
          "type": "address"
        }
      ],
      "name": "getProviderInfo",
      "outputs": [
        {
          "internalType": "uint256",
          "name": "balance",
          "type": "uint256"
        },
        {
          "internalType": "uint256",
          "name": "earned",
          "type": "uint256"
        },
        {
          "internalType": "uint256",
          "name": "claimed",
          "type": "uint256"
        }
      ],
      "stateMutability": "view",
      "type": "function"
    },
    {
      "inputs": [],
      "name": "owner",
      "outputs": [
        {
          "internalType": "address",
          "name": "",
          "type": "address"
        }
      ],
      "stateMutability": "view",
      "type": "function"
    },
    {
      "inputs": [],
      "name": "paymentToken",
      "outputs": [
        {
          "internalType": "contract IERC20",
          "name": "",
          "type": "address"
        }
      ],
      "stateMutability": "view",
      "type": "function"
    },
    {
      "inputs": [],
      "name": "platformFeePercent",
      "outputs": [
        {
          "internalType": "uint256",
          "name": "",
          "type": "uint256"
        }
      ],
      "stateMutability": "view",
      "type": "function"
    },
    {
      "inputs": [],
      "name": "platformTreasury",
      "outputs": [
        {
          "internalType": "address",
          "name": "",
          "type": "address"
        }
      ],
      "stateMutability": "view",
      "type": "function"
    },
    {
      "inputs": [
        {
          "internalType": "address",
          "name": "",
          "type": "address"
        }
      ],
      "name": "providerBalances",
      "outputs": [
        {
          "internalType": "uint256",
          "name": "",
          "type": "uint256"
        }
      ],
      "stateMutability": "view",
      "type": "function"
    },
    {
      "inputs": [
        {
          "internalType": "address",
          "name": "provider",
          "type": "address"
        },
        {
          "internalType": "address",
          "name": "payer",
          "type": "address"
        },
        {
          "internalType": "uint256",
          "name": "amount",
          "type": "uint256"
        }
      ],
      "name": "receivePayment",
      "outputs": [],
      "stateMutability": "nonpayable",
      "type": "function"
    },
    {
      "inputs": [],
      "name": "relayer",
      "outputs": [
        {
          "internalType": "address",
          "name": "",
          "type": "address"
        }
      ],
      "stateMutability": "view",
      "type": "function"
    },
    {
      "inputs": [],
      "name": "renounceOwnership",
      "outputs": [],
      "stateMutability": "nonpayable",
      "type": "function"
    },
    {
      "inputs": [
        {
          "internalType": "uint256",
          "name": "newFee",
          "type": "uint256"
        }
      ],
      "name": "setPlatformFee",
      "outputs": [],
      "stateMutability": "nonpayable",
      "type": "function"
    },
    {
      "inputs": [
        {
          "internalType": "address",
          "name": "newTreasury",
          "type": "address"
        }
      ],
      "name": "setTreasury",
      "outputs": [],
      "stateMutability": "nonpayable",
      "type": "function"
    },
    {
      "inputs": [
        {
          "internalType": "address",
          "name": "",
          "type": "address"
        }
      ],
      "name": "totalClaimed",
      "outputs": [
        {
          "internalType": "uint256",
          "name": "",
          "type": "uint256"
        }
      ],
      "stateMutability": "view",
      "type": "function"
    },
    {
      "inputs": [
        {
          "internalType": "address",
          "name": "",
          "type": "address"
        }
      ],
      "name": "totalEarned",
      "outputs": [
        {
          "internalType": "uint256",
          "name": "",
          "type": "uint256"
        }
      ],
      "stateMutability": "view",
      "type": "function"
    },
    {
      "inputs": [
        {
          "internalType": "address",
          "name": "newOwner",
          "type": "address"
        }
      ],
      "name": "transferOwnership",
      "outputs": [],
      "stateMutability": "nonpayable",
      "type": "function"
    },
    {
      "inputs": [
        {
          "internalType": "address",
          "name": "provider",
          "type": "address"
        },
        {
          "internalType": "uint256",
          "name": "amount",
          "type": "uint256"
        }
      ],
      "name": "withdraw",
      "outputs": [],
      "stateMutability": "nonpayable",
      "type": "function"
    }
  ],
  "bytecode": "0x60a060405260056004553480156200001657600080fd5b5060405162000f8c38038062000f8c8339810160408190526200003991620001a8565b33806200006157604051631e4fbdf760e01b8152600060048201526024015b60405180910390fd5b6200006c816200013b565b50600180556001600160a01b038316620000b95760405162461bcd60e51b815260206004820152600d60248201526c24b73b30b634b2103a37b5b2b760991b604482015260640162000058565b6001600160a01b038216620001045760405162461bcd60e51b815260206004820152601060248201526f496e76616c696420747265617375727960801b604482015260640162000058565b6001600160a01b03928316608052600280549284166001600160a01b031993841617905560038054919093169116179055620001f2565b600080546001600160a01b038381166001600160a01b0319831681178455604051919092169283917f8be0079c531659141344cd1fd0a4f28419497f9722a3daafe3b4186f6b6457e09190a35050565b80516001600160a01b0381168114620001a357600080fd5b919050565b600080600060608486031215620001be57600080fd5b620001c9846200018b565b9250620001d9602085016200018b565b9150620001e9604085016200018b565b90509250925092565b608051610d696200022360003960008181610152015281816103fd015281816106020152610a290152610d696000f3fe608060405234801561001057600080fd5b50600436106101005760003560e01c80638c639a8511610097578063ef5d9ae811610066578063ef5d9ae81461026a578063f0f442601461028a578063f2fde38b1461029d578063f3fef3a3146102b057600080fd5b80638c639a851461022a5780638da5cb5b14610233578063e138818c14610244578063e8b94efe1461025757600080fd5b8063649aca4a116100d3578063649aca4a14610194578063715018a6146101b45780637583902f146101bc5780638406c0791461021757600080fd5b806312e8e2c31461010557806328ac7f2c1461011a5780633013ce291461014d5780634e71d92d1461018c575b600080fd5b610118610113366004610bd9565b6102c3565b005b61013a610128366004610c0e565b60056020526000908152604090205481565b6040519081526020015b60405180910390f35b6101747f000000000000000000000000000000000000000000000000000000000000000081565b6040516001600160a01b039091168152602001610144565b610118610355565b61013a6101a2366004610c0e565b60066020526000908152604090205481565b6101186104f7565b6101fc6101ca366004610c0e565b6001600160a01b0316600090815260056020908152604080832054600683528184205460079093529220549192909190565b60408051938452602084019290925290820152606001610144565b600354610174906001600160a01b031681565b61013a60045481565b6000546001600160a01b0316610174565b600254610174906001600160a01b031681565b610118610265366004610c30565b610509565b61013a610278366004610c0e565b60076020526000908152604090205481565b610118610298366004610c0e565b610778565b6101186102ab366004610c0e565b610816565b6101186102be366004610c6c565b610854565b6102cb610b32565b60148111156103195760405162461bcd60e51b81526020600482015260156024820152744665652063616e6e6f74206578636565642032302560581b60448201526064015b60405180910390fd5b60048190556040518181527f45610d581145924dd7090a5017e5f2b1d6f42213bb2e95707ff86846bbfcb1ca906020015b60405180910390a150565b61035d610b5f565b33600090815260056020526040902054806103b05760405162461bcd60e51b81526020600482015260136024820152724e6f2062616c616e636520746f20636c61696d60681b6044820152606401610310565b3360009081526005602090815260408083208390556007909152812080548392906103dc908490610cac565b909155505060405163a9059cbb60e01b8152336004820152602481018290527f00000000000000000000000000000000000000000000000000000000000000006001600160a01b03169063a9059cbb906044016020604051808303816000875af115801561044e573d6000803e3d6000fd5b505050506040513d601f19601f820116820180604052508101906104729190610cc5565b6104b65760405162461bcd60e51b815260206004820152601560248201527410db185a5b481d1c985b9cd9995c8819985a5b1959605a1b6044820152606401610310565b60405181815233907fd8138f8a3f377c5259ca548e70e4c2de94f129f5a11036a15b69513cba2b426a9060200160405180910390a2506104f560018055565b565b6104ff610b32565b6104f56000610b89565b610511610b32565b610519610b5f565b6001600160a01b0383166105625760405162461bcd60e51b815260206004820152601060248201526f24b73b30b634b210383937bb34b232b960811b6044820152606401610310565b600081116105a75760405162461bcd60e51b81526020600482015260126024820152710416d6f756e74206d757374206265203e20360741b6044820152606401610310565b60006064600454836105b99190610ce7565b6105c39190610cfe565b905060006105d18284610d20565b905081156106bd5760025460405163a9059cbb60e01b81526001600160a01b039182166004820152602481018490527f00000000000000000000000000000000000000000000000000000000000000009091169063a9059cbb906044016020604051808303816000875af115801561064d573d6000803e3d6000fd5b505050506040513d601f19601f820116820180604052508101906106719190610cc5565b6106bd5760405162461bcd60e51b815260206004820152601c60248201527f506c6174666f726d20666565207472616e73666572206661696c6564000000006044820152606401610310565b6001600160a01b038516600090815260056020526040812080548392906106e5908490610cac565b90915550506001600160a01b03851660009081526006602052604081208054839290610712908490610cac565b909155505060408051848152602081018490529081018290526001600160a01b0380861691908716907fc7b46480d33c7777f384469a19809970cd36d96f3f1fc921e4b6a304e4b761f99060600160405180910390a3505061077360018055565b505050565b610780610b32565b6001600160a01b0381166107c85760405162461bcd60e51b815260206004820152600f60248201526e496e76616c6964206164647265737360881b6044820152606401610310565b600280546001600160a01b0319166001600160a01b0383169081179091556040519081527f7dae230f18360d76a040c81f050aa14eb9d6dc7901b20fc5d855e2a20fe814d19060200161034a565b61081e610b32565b6001600160a01b03811661084857604051631e4fbdf760e01b815260006004820152602401610310565b61085181610b89565b50565b6000546001600160a01b031633148061087757506003546001600160a01b031633145b6108b45760405162461bcd60e51b815260206004820152600e60248201526d139bdd08185d5d1a1bdc9a5e995960921b6044820152606401610310565b6108bc610b5f565b6001600160a01b0382166109055760405162461bcd60e51b815260206004820152601060248201526f24b73b30b634b210383937bb34b232b960811b6044820152606401610310565b6000811161094a5760405162461bcd60e51b81526020600482015260126024820152710416d6f756e74206d757374206265203e20360741b6044820152606401610310565b6001600160a01b0382166000908152600560205260409020548111156109a95760405162461bcd60e51b8152602060048201526014602482015273496e73756666696369656e742062616c616e636560601b6044820152606401610310565b6001600160a01b038216600090815260056020526040812080548392906109d1908490610d20565b90915550506001600160a01b038216600090815260076020526040812080548392906109fe908490610cac565b909155505060405163a9059cbb60e01b81526001600160a01b038381166004830152602482018390527f0000000000000000000000000000000000000000000000000000000000000000169063a9059cbb906044016020604051808303816000875af1158015610a72573d6000803e3d6000fd5b505050506040513d601f19601f82011682018060405250810190610a969190610cc5565b610ae25760405162461bcd60e51b815260206004820152601860248201527f5769746864726177207472616e73666572206661696c656400000000000000006044820152606401610310565b816001600160a01b03167fd8138f8a3f377c5259ca548e70e4c2de94f129f5a11036a15b69513cba2b426a82604051610b1d91815260200190565b60405180910390a2610b2e60018055565b5050565b6000546001600160a01b031633146104f55760405163118cdaa760e01b8152336004820152602401610310565b600260015403610b8257604051633ee5aeb560e01b815260040160405180910390fd5b6002600155565b600080546001600160a01b038381166001600160a01b0319831681178455604051919092169283917f8be0079c531659141344cd1fd0a4f28419497f9722a3daafe3b4186f6b6457e09190a35050565b600060208284031215610beb57600080fd5b5035919050565b80356001600160a01b0381168114610c0957600080fd5b919050565b600060208284031215610c2057600080fd5b610c2982610bf2565b9392505050565b600080600060608486031215610c4557600080fd5b610c4e84610bf2565b9250610c5c60208501610bf2565b9150604084013590509250925092565b60008060408385031215610c7f57600080fd5b610c8883610bf2565b946020939093013593505050565b634e487b7160e01b600052601160045260246000fd5b80820180821115610cbf57610cbf610c96565b92915050565b600060208284031215610cd757600080fd5b81518015158114610c2957600080fd5b8082028115828204841417610cbf57610cbf610c96565b600082610d1b57634e487b7160e01b600052601260045260246000fd5b500490565b81810381811115610cbf57610cbf610c9656fea264697066735822122086e7f2942a9c0be52dcc1af823d7e5fbec8b51c255e88708670997a4fa6fbd2c64736f6c63430008140033",
  "linkReferences": {},
  "deployedLinkReferences": {}
}