{
  "_format": "hh-sol-artifact-1",
  "contractName": "MockUSDC",
  "sourceName": "contracts/MockUSDC.sol",
  "abi": [
    {
      "inputs": [],
      "stateMutability": "nonpayable",
      "type": "constructor"
    },
    {
      "inputs": [],
      "name": "ECDSAInvalidSignature",
      "type": "error"
    },
    {
      "inputs": [
        {
          "internalType": "uint256",
          "name": "length",
          "type": "uint256"
        }
      ],
      "name": "ECDSAInvalidSignatureLength",
      "type": "error"
    },
    {
      "inputs": [
        {
          "internalType": "bytes32",
          "name": "s",
          "type": "bytes32"
        }
      ],
      "name": "ECDSAInvalidSignatureS",
      "type": "error"
    },
    {
      "inputs": [
        {
          "internalType": "address",
          "name": "spender",
          "type": "address"
        },
        {
          "internalType": "uint256",
          "name": "allowance",
          "type": "uint256"
        },
        {
          "internalType": "uint256",
          "name": "needed",
          "type": "uint256"
        }
      ],
      "name": "ERC20InsufficientAllowance",
      "type": "error"
    },
    {
      "inputs": [
        {
          "internalType": "address",
          "name": "sender",
          "type": "address"
        },
        {
          "internalType": "uint256",
          "name": "balance",
          "type": "uint256"
        },
        {
          "internalType": "uint256",
          "name": "needed",
          "type": "uint256"
        }
      ],
      "name": "ERC20InsufficientBalance",
      "type": "error"
    },
    {
      "inputs": [
        {
          "internalType": "address",
          "name": "approver",
          "type": "address"
        }
      ],
      "name": "ERC20InvalidApprover",
      "type": "error"
    },
    {
      "inputs": [
        {
          "internalType": "address",
          "name": "receiver",
          "type": "address"
        }
      ],
      "name": "ERC20InvalidReceiver",
      "type": "error"
    },
    {
      "inputs": [
        {
          "internalType": "address",
          "name": "sender",
          "type": "address"
        }
      ],
      "name": "ERC20InvalidSender",
      "type": "error"
    },
    {
      "inputs": [
        {
          "internalType": "address",
          "name": "spender",
          "type": "address"
        }
      ],
      "name": "ERC20InvalidSpender",
      "type": "error"
    },
    {
      "inputs": [],
      "name": "InvalidShortString",
      "type": "error"
    },
    {
      "inputs": [
        {
          "internalType": "string",
          "name": "str",
          "type": "string"
        }
      ],
      "name": "StringTooLong",
      "type": "error"
    },
    {
      "anonymous": false,
      "inputs": [
        {
          "indexed": true,
          "internalType": "address",
          "name": "owner",
          "type": "address"
        },
        {
          "indexed": true,
          "internalType": "address",
          "name": "spender",
          "type": "address"
        },
        {
          "indexed": false,
          "internalType": "uint256",
          "name": "value",
          "type": "uint256"
        }
      ],
      "name": "Approval",
      "type": "event"
    },
    {
      "anonymous": false,
      "inputs": [
        {
          "indexed": true,
          "internalType": "address",
          "name": "authorizer",
          "type": "address"
        },
        {
          "indexed": true,
          "internalType": "bytes32",
          "name": "nonce",
          "type": "bytes32"
        }
      ],
      "name": "AuthorizationUsed",
      "type": "event"
    },
    {
      "anonymous": false,
      "inputs": [],
      "name": "EIP712DomainChanged",
      "type": "event"
    },
    {
      "anonymous": false,
      "inputs": [
        {
          "indexed": true,
          "internalType": "address",
          "name": "from",
          "type": "address"
        },
        {
          "indexed": true,
          "internalType": "address",
          "name": "to",
          "type": "address"
        },
        {
          "indexed": false,
          "internalType": "uint256",
          "name": "value",
          "type": "uint256"
        }
      ],
      "name": "Transfer",
      "type": "event"
    },
    {
      "inputs": [],
      "name": "RECEIVE_WITH_AUTHORIZATION_TYPEHASH",
      "outputs": [
        {
          "internalType": "bytes32",
          "name": "",
          "type": "bytes32"
        }
      ],
      "stateMutability": "view",
      "type": "function"
    },
    {
      "inputs": [
        {
          "internalType": "address",
          "name": "owner",
          "type": "address"
        },
        {
          "internalType": "address",
          "name": "spender",
          "type": "address"
        }
      ],
      "name": "allowance",
      "outputs": [
        {
          "internalType": "uint256",
          "name": "",
          "type": "uint256"
        }
      ],
      "stateMutability": "view",
      "type": "function"
    },
    {
      "inputs": [
        {
          "internalType": "address",
          "name": "spender",
          "type": "address"
        },
        {
          "internalType": "uint256",
          "name": "value",
          "type": "uint256"
        }
      ],
      "name": "approve",
      "outputs": [
        {
          "internalType": "bool",
          "name": "",
          "type": "bool"
        }
      ],
      "stateMutability": "nonpayable",
      "type": "function"
    },
    {
      "inputs": [
        {
          "internalType": "address",
          "name": "authorizer",
          "type": "address"
        },
        {
          "internalType": "bytes32",
          "name": "nonce",
          "type": "bytes32"
        }
      ],
      "name": "authorizationState",
      "outputs": [
        {
          "internalType": "bool",
          "name": "",
          "type": "bool"
        }
      ],
      "stateMutability": "view",
      "type": "function"
    },
    {
      "inputs": [
        {
          "internalType": "address",
          "name": "account",
          "type": "address"
        }
      ],
      "name": "balanceOf",
      "outputs": [
        {
          "internalType": "uint256",
          "name": "",
          "type": "uint256"
        }
      ],
      "stateMutability": "view",
      "type": "function"
    },
    {
      "inputs": [],
      "name": "decimals",
      "outputs": [
        {
          "internalType": "uint8",
          "name": "",
          "type": "uint8"
        }
      ],
      "stateMutability": "view",
      "type": "function"
    },
    {
      "inputs": [],
      "name": "eip712Domain",
      "outputs": [
        {
          "internalType": "bytes1",
          "name": "fields",
          "type": "bytes1"
        },
        {
          "internalType": "string",
          "name": "name",
          "type": "string"
        },
        {
          "internalType": "string",
          "name": "version",
          "type": "string"
        },
        {
          "internalType": "uint256",
          "name": "chainId",
          "type": "uint256"
        },
        {
          "internalType": "address",
          "name": "verifyingContract",
          "type": "address"
        },
        {
          "internalType": "bytes32",
          "name": "salt",
          "type": "bytes32"
        },
        {
          "internalType": "uint256[]",
          "name": "extensions",
          "type": "uint256[]"
        }
      ],
      "stateMutability": "view",
      "type": "function"
    },
    {
      "inputs": [
        {
          "internalType": "address",
          "name": "to",
          "type": "address"
        },
        {
          "internalType": "uint256",
          "name": "amount",
          "type": "uint256"
        }
      ],
      "name": "mint",
      "outputs": [],
      "stateMutability": "nonpayable",
      "type": "function"
    },
    {
      "inputs": [],
      "name": "name",
      "outputs": [
        {
          "internalType": "string",
          "name": "",
          "type": "string"
        }
      ],
      "stateMutability": "view",
      "type": "function"
    },
    {
      "inputs": [
        {
          "internalType": "address",
          "name": "from",
          "type": "address"
        },
        {
          "internalType": "address",
          "name": "to",
          "type": "address"
        },
        {
          "internalType": "uint256",
          "name": "value",
          "type": "uint256"
        },
        {
          "internalType": "uint256",
          "name": "validAfter",
          "type": "uint256"
        },
        {
          "internalType": "uint256",
          "name": "validBefore",
          "type": "uint256"
        },
        {
          "internalType": "bytes32",
          "name": "nonce",
          "type": "bytes32"
        },
        {
          "internalType": "uint8",
          "name": "v",
          "type": "uint8"
        },
        {
          "internalType": "bytes32",
          "name": "r",
          "type": "bytes32"
        },
        {
          "internalType": "bytes32",
          "name": "s",
          "type": "bytes32"
        }
      ],
      "name": "receiveWithAuthorization",
      "outputs": [],
      "stateMutability": "nonpayable",
      "type": "function"
    },
    {
      "inputs": [],
      "name": "symbol",
      "outputs": [
        {
          "internalType": "string",
          "name": "",
          "type": "string"
        }
      ],
      "stateMutability": "view",
      "type": "function"
    },
    {
      "inputs": [],
      "name": "totalSupply",
      "outputs": [
        {
          "internalType": "uint256",
          "name": "",
          "type": "uint256"
        }
      ],
      "stateMutability": "view",
      "type": "function"
    },
    {
      "inputs": [
        {
          "internalType": "address",
          "name": "to",
          "type": "address"
        },
        {
          "internalType": "uint256",
          "name": "value",
          "type": "uint256"
        }
      ],
      "name": "transfer",
      "outputs": [
        {
          "internalType": "bool",
          "name": "",
          "type": "bool"
        }
      ],
      "stateMutability": "nonpayable",
      "type": "function"
    },
    {
      "inputs": [
        {
          "internalType": "address",
          "name": "from",
          "type": "address"
        },
        {
          "internalType": "address",
          "name": "to",
          "type": "address"
        },
        {
          "internalType": "uint256",
          "name": "value",
          "type": "uint256"
        }
      ],
      "name": "transferFrom",
      "outputs": [
        {
          "internalType": "bool",
          "name": "",
          "type": "bool"
        }
      ],
      "stateMutability": "nonpayable",
      "type": "function"
    }
  ],
  "bytecode": "0x6101606040523480156200001257600080fd5b50604080518082018252600d8082526c26b7b1b5902aa9a21021b7b4b760991b60208084018290528451808601865260018152603160f81b818301528551808701875293845283820192909252845180860190955260058552646d5553444360d81b908501529192600362000088838262000415565b50600462000097828262000415565b50620000a9915083905060056200017f565b61012052620000ba8160066200017f565b61014052815160208084019190912060e052815190820120610100524660a0526200014860e05161010051604080517f8b73c3c69bb8fe3d512ecc4cf759cc79239f7b179b0ffacaa9a75d522b39400f60208201529081019290925260608201524660808201523060a082015260009060c00160405160208183030381529060405280519060200120905090565b60805250503060c0526200017933620001646012600a620005f4565b6200017390620f42406200060c565b620001b8565b620006b1565b60006020835110156200019f576200019783620001fa565b9050620001b2565b81620001ac848262000415565b5060ff90505b92915050565b6001600160a01b038216620001e85760405163ec442f0560e01b8152600060048201526024015b60405180910390fd5b620001f6600083836200023d565b5050565b600080829050601f8151111562000228578260405163305a27a960e01b8152600401620001df919062000626565b8051620002358262000676565b179392505050565b6001600160a01b0383166200026c5780600260008282546200026091906200069b565b90915550620002e09050565b6001600160a01b03831660009081526020819052604090205481811015620002c15760405163391434e360e21b81526001600160a01b03851660048201526024810182905260448101839052606401620001df565b6001600160a01b03841660009081526020819052604090209082900390555b6001600160a01b038216620002fe576002805482900390556200031d565b6001600160a01b03821660009081526020819052604090208054820190555b816001600160a01b0316836001600160a01b03167fddf252ad1be2c89b69c2b068fc378daa952ba7f163c4a11628f55a4df523b3ef836040516200036391815260200190565b60405180910390a3505050565b634e487b7160e01b600052604160045260246000fd5b600181811c908216806200039b57607f821691505b602082108103620003bc57634e487b7160e01b600052602260045260246000fd5b50919050565b601f8211156200041057600081815260208120601f850160051c81016020861015620003eb5750805b601f850160051c820191505b818110156200040c57828155600101620003f7565b5050505b505050565b81516001600160401b0381111562000431576200043162000370565b620004498162000442845462000386565b84620003c2565b602080601f831160018114620004815760008415620004685750858301515b600019600386901b1c1916600185901b1785556200040c565b600085815260208120601f198616915b82811015620004b25788860151825594840194600190910190840162000491565b5085821015620004d15787850151600019600388901b60f8161c191681555b5050505050600190811b01905550565b634e487b7160e01b600052601160045260246000fd5b600181815b80851115620005385781600019048211156200051c576200051c620004e1565b808516156200052a57918102915b93841c9390800290620004fc565b509250929050565b6000826200055157506001620001b2565b816200056057506000620001b2565b81600181146200057957600281146200058457620005a4565b6001915050620001b2565b60ff841115620005985762000598620004e1565b50506001821b620001b2565b5060208310610133831016604e8410600b8410161715620005c9575081810a620001b2565b620005d58383620004f7565b8060001904821115620005ec57620005ec620004e1565b029392505050565b60006200060560ff84168362000540565b9392505050565b8082028115828204841417620001b257620001b2620004e1565b600060208083528351808285015260005b81811015620006555785810183015185820160400152820162000637565b506000604082860101526040601f19601f8301168501019250505092915050565b80516020808301519190811015620003bc5760001960209190910360031b1b16919050565b80820180821115620001b257620001b2620004e1565b60805160a05160c05160e05161010051610120516101405161110b6200070c60003960006107d10152600061079f01526000610bd601526000610bae01526000610b0901526000610b3301526000610b5d015261110b6000f3fe608060405234801561001057600080fd5b50600436106100ea5760003560e01c80637f2eecc31161008c578063a9059cbb11610066578063a9059cbb146101ec578063dd62ed3e146101ff578063e94a010214610238578063ef55bec61461027157600080fd5b80637f2eecc3146101a257806384b0196e146101c957806395d89b41146101e457600080fd5b806323b872dd116100c857806323b872dd14610142578063313ce5671461015557806340c10f191461016457806370a082311461017957600080fd5b806306fdde03146100ef578063095ea7b31461010d57806318160ddd14610130575b600080fd5b6100f7610284565b6040516101049190610e5c565b60405180910390f35b61012061011b366004610e92565b610316565b6040519015158152602001610104565b6002545b604051908152602001610104565b610120610150366004610ebc565b610330565b60405160128152602001610104565b610177610172366004610e92565b610354565b005b610134610187366004610ef8565b6001600160a01b031660009081526020819052604090205490565b6101347fd099cc98ef71107a616c4f0f941f04c322d8e254fe26b3c6668db87aae413de881565b6101d1610362565b6040516101049796959493929190610f13565b6100f76103a8565b6101206101fa366004610e92565b6103b7565b61013461020d366004610fa9565b6001600160a01b03918216600090815260016020908152604080832093909416825291909152205490565b610120610246366004610e92565b6001600160a01b03919091166000908152600760209081526040808320938352929052205460ff1690565b61017761027f366004610fdc565b6103c5565b60606003805461029390611064565b80601f01602080910402602001604051908101604052809291908181526020018280546102bf90611064565b801561030c5780601f106102e15761010080835404028352916020019161030c565b820191906000526020600020905b8154815290600101906020018083116102ef57829003601f168201915b5050505050905090565b600033610324818585610672565b60019150505b92915050565b60003361033e858285610684565b610349858585610703565b506001949350505050565b61035e8282610762565b5050565b600060608060008060006060610376610798565b61037e6107ca565b60408051600080825260208201909252600f60f81b9b939a50919850469750309650945092509050565b60606004805461029390611064565b600033610324818585610703565b85421161042a5760405162461bcd60e51b815260206004820152602860248201527f4d6f636b555344433a20617574686f72697a6174696f6e206973206e6f742079604482015267195d081d985b1a5960c21b60648201526084015b60405180910390fd5b8442106104845760405162461bcd60e51b815260206004820152602260248201527f4d6f636b555344433a20617574686f72697a6174696f6e206973206578706972604482015261195960f21b6064820152608401610421565b6001600160a01b038916600090815260076020908152604080832087845290915290205460ff16156104f85760405162461bcd60e51b815260206004820152601f60248201527f4d6f636b555344433a20617574686f72697a6174696f6e2069732075736564006044820152606401610421565b604080517fd099cc98ef71107a616c4f0f941f04c322d8e254fe26b3c6668db87aae413de86020808301919091526001600160a01b038c8116838501528b166060830152608082018a905260a0820189905260c0820188905260e0808301889052835180840390910181526101009092019092528051910120600061057c826107f7565b9050600061058c82878787610824565b90506001600160a01b038116158015906105b757508b6001600160a01b0316816001600160a01b0316145b6106035760405162461bcd60e51b815260206004820152601b60248201527f4d6f636b555344433a20696e76616c6964207369676e617475726500000000006044820152606401610421565b6001600160a01b038c1660008181526007602090815260408083208b8452909152808220805460ff19166001179055518992917f98de503528ee59b575ef0c0a2576a82497bfc029a5685b209e9ec333479b10a591a36106648c8c8c610703565b505050505050505050505050565b61067f8383836001610852565b505050565b6001600160a01b038381166000908152600160209081526040808320938616835292905220546000198110156106fd57818110156106ee57604051637dc7a0d960e11b81526001600160a01b03841660048201526024810182905260448101839052606401610421565b6106fd84848484036000610852565b50505050565b6001600160a01b03831661072d57604051634b637e8f60e11b815260006004820152602401610421565b6001600160a01b0382166107575760405163ec442f0560e01b815260006004820152602401610421565b61067f838383610927565b6001600160a01b03821661078c5760405163ec442f0560e01b815260006004820152602401610421565b61035e60008383610927565b60606107c57f00000000000000000000000000000000000000000000000000000000000000006005610a51565b905090565b60606107c57f00000000000000000000000000000000000000000000000000000000000000006006610a51565b600061032a610804610afc565b8360405161190160f01b8152600281019290925260228201526042902090565b60008060008061083688888888610c27565b9250925092506108468282610cf6565b50909695505050505050565b6001600160a01b03841661087c5760405163e602df0560e01b815260006004820152602401610421565b6001600160a01b0383166108a657604051634a1406b160e11b815260006004820152602401610421565b6001600160a01b03808516600090815260016020908152604080832093871683529290522082905580156106fd57826001600160a01b0316846001600160a01b03167f8c5be1e5ebec7d5bd14f71427d1e84f3dd0314c0f7b2291e5b200ac8c7c3b9258460405161091991815260200190565b60405180910390a350505050565b6001600160a01b038316610952578060026000828254610947919061109e565b909155506109c49050565b6001600160a01b038316600090815260208190526040902054818110156109a55760405163391434e360e21b81526001600160a01b03851660048201526024810182905260448101839052606401610421565b6001600160a01b03841660009081526020819052604090209082900390555b6001600160a01b0382166109e0576002805482900390556109ff565b6001600160a01b03821660009081526020819052604090208054820190555b816001600160a01b0316836001600160a01b03167fddf252ad1be2c89b69c2b068fc378daa952ba7f163c4a11628f55a4df523b3ef83604051610a4491815260200190565b60405180910390a3505050565b606060ff8314610a6b57610a6483610daf565b905061032a565b818054610a7790611064565b80601f0160208091040260200160405190810160405280929190818152602001828054610aa390611064565b8015610af05780601f10610ac557610100808354040283529160200191610af0565b820191906000526020600020905b815481529060010190602001808311610ad357829003601f168201915b5050505050905061032a565b6000306001600160a01b037f000000000000000000000000000000000000000000000000000000000000000016148015610b5557507f000000000000000000000000000000000000000000000000000000000000000046145b15610b7f57507f000000000000000000000000000000000000000000000000000000000000000090565b6107c5604080517f8b73c3c69bb8fe3d512ecc4cf759cc79239f7b179b0ffacaa9a75d522b39400f60208201527f0000000000000000000000000000000000000000000000000000000000000000918101919091527f000000000000000000000000000000000000000000000000000000000000000060608201524660808201523060a082015260009060c00160405160208183030381529060405280519060200120905090565b600080807f7fffffffffffffffffffffffffffffff5d576e7357a4501ddfe92f46681b20a0841115610c625750600091506003905082610cec565b604080516000808252602082018084528a905260ff891692820192909252606081018790526080810186905260019060a0016020604051602081039080840390855afa158015610cb6573d6000803e3d6000fd5b5050604051601f1901519150506001600160a01b038116610ce257506000925060019150829050610cec565b9250600091508190505b9450945094915050565b6000826003811115610d0a57610d0a6110bf565b03610d13575050565b6001826003811115610d2757610d276110bf565b03610d455760405163f645eedf60e01b815260040160405180910390fd5b6002826003811115610d5957610d596110bf565b03610d7a5760405163fce698f760e01b815260048101829052602401610421565b6003826003811115610d8e57610d8e6110bf565b0361035e576040516335e2f38360e21b815260048101829052602401610421565b60606000610dbc83610dee565b604080516020808252818301909252919250600091906020820181803683375050509182525060208101929092525090565b600060ff8216601f81111561032a57604051632cd44ac360e21b815260040160405180910390fd5b6000815180845260005b81811015610e3c57602081850181015186830182015201610e20565b506000602082860101526020601f19601f83011685010191505092915050565b602081526000610e6f6020830184610e16565b9392505050565b80356001600160a01b0381168114610e8d57600080fd5b919050565b60008060408385031215610ea557600080fd5b610eae83610e76565b946020939093013593505050565b600080600060608486031215610ed157600080fd5b610eda84610e76565b9250610ee860208501610e76565b9150604084013590509250925092565b600060208284031215610f0a57600080fd5b610e6f82610e76565b60ff60f81b881681526000602060e081840152610f3360e084018a610e16565b8381036040850152610f45818a610e16565b606085018990526001600160a01b038816608086015260a0850187905284810360c0860152855180825283870192509083019060005b81811015610f9757835183529284019291840191600101610f7b565b50909c9b505050505050505050505050565b60008060408385031215610fbc57600080fd5b610fc583610e76565b9150610fd360208401610e76565b90509250929050565b60008060008060008060008060006101208a8c031215610ffb57600080fd5b6110048a610e76565b985061101260208b01610e76565b975060408a0135965060608a0135955060808a0135945060a08a0135935060c08a013560ff8116811461104457600080fd5b8093505060e08a013591506101008a013590509295985092959850929598565b600181811c9082168061107857607f821691505b60208210810361109857634e487b7160e01b600052602260045260246000fd5b50919050565b8082018082111561032a57634e487b7160e01b600052601160045260246000fd5b634e487b7160e01b600052602160045260246000fdfea2646970667358221220029ab60f815b87e0ce1ce7c5e847fd3ab77ae2fae32ea701119b46235e58d96364736f6c63430008140033",
  "linkReferences": {},
  "deployedLinkReferences": {}
}